{
  "contractName": "BountiesMetaTxRelayer",
  "abi": [
    {
      "constant": true,
      "inputs": [
        {
          "name": "",
          "type": "address"
        }
      ],
      "name": "replayNonce",
      "outputs": [
        {
          "name": "",
          "type": "uint256"
        }
      ],
      "payable": false,
      "stateMutability": "view",
      "type": "function"
    },
    {
      "constant": true,
      "inputs": [],
      "name": "bountiesContract",
      "outputs": [
        {
          "name": "",
          "type": "address"
        }
      ],
      "payable": false,
      "stateMutability": "view",
      "type": "function"
    },
    {
      "inputs": [
        {
          "name": "_contract",
          "type": "address"
        }
      ],
      "payable": false,
      "stateMutability": "nonpayable",
      "type": "constructor"
    },
    {
      "constant": false,
      "inputs": [
        {
          "name": "signature",
          "type": "bytes"
        },
        {
          "name": "_issuers",
          "type": "address[]"
        },
        {
          "name": "_approvers",
          "type": "address[]"
        },
        {
          "name": "_data",
          "type": "string"
        },
        {
          "name": "_deadline",
          "type": "uint256"
        },
        {
          "name": "_token",
          "type": "address"
        },
        {
          "name": "_tokenVersion",
          "type": "uint256"
        },
        {
          "name": "_nonce",
          "type": "uint256"
        }
      ],
      "name": "metaIssueBounty",
      "outputs": [
        {
          "name": "",
          "type": "uint256"
        }
      ],
      "payable": false,
      "stateMutability": "nonpayable",
      "type": "function"
    },
    {
      "constant": false,
      "inputs": [
        {
          "name": "signature",
          "type": "bytes"
        },
        {
          "name": "_issuers",
          "type": "address[]"
        },
        {
          "name": "_approvers",
          "type": "address[]"
        },
        {
          "name": "_data",
          "type": "string"
        },
        {
          "name": "_deadline",
          "type": "uint256"
        },
        {
          "name": "_token",
          "type": "address"
        },
        {
          "name": "_tokenVersion",
          "type": "uint256"
        },
        {
          "name": "_depositAmount",
          "type": "uint256"
        },
        {
          "name": "_nonce",
          "type": "uint256"
        }
      ],
      "name": "metaIssueAndContribute",
      "outputs": [
        {
          "name": "",
          "type": "uint256"
        }
      ],
      "payable": true,
      "stateMutability": "payable",
      "type": "function"
    },
    {
      "constant": false,
      "inputs": [
        {
          "name": "_signature",
          "type": "bytes"
        },
        {
          "name": "_bountyId",
          "type": "uint256"
        },
        {
          "name": "_amount",
          "type": "uint256"
        },
        {
          "name": "_nonce",
          "type": "uint256"
        }
      ],
      "name": "metaContribute",
      "outputs": [],
      "payable": true,
      "stateMutability": "payable",
      "type": "function"
    },
    {
      "constant": false,
      "inputs": [
        {
          "name": "_signature",
          "type": "bytes"
        },
        {
          "name": "_bountyId",
          "type": "uint256"
        },
        {
          "name": "_contributionId",
          "type": "uint256"
        },
        {
          "name": "_nonce",
          "type": "uint256"
        }
      ],
      "name": "metaRefundContribution",
      "outputs": [],
      "payable": false,
      "stateMutability": "nonpayable",
      "type": "function"
    },
    {
      "constant": false,
      "inputs": [
        {
          "name": "_signature",
          "type": "bytes"
        },
        {
          "name": "_bountyId",
          "type": "uint256"
        },
        {
          "name": "_contributionIds",
          "type": "uint256[]"
        },
        {
          "name": "_nonce",
          "type": "uint256"
        }
      ],
      "name": "metaRefundMyContributions",
      "outputs": [],
      "payable": false,
      "stateMutability": "nonpayable",
      "type": "function"
    },
    {
      "constant": false,
      "inputs": [
        {
          "name": "_signature",
          "type": "bytes"
        },
        {
          "name": "_bountyId",
          "type": "uint256"
        },
        {
          "name": "_issuerId",
          "type": "uint256"
        },
        {
          "name": "_contributionIds",
          "type": "uint256[]"
        },
        {
          "name": "_nonce",
          "type": "uint256"
        }
      ],
      "name": "metaRefundContributions",
      "outputs": [],
      "payable": false,
      "stateMutability": "nonpayable",
      "type": "function"
    },
    {
      "constant": false,
      "inputs": [
        {
          "name": "_signature",
          "type": "bytes"
        },
        {
          "name": "_bountyId",
          "type": "uint256"
        },
        {
          "name": "_issuerId",
          "type": "uint256"
        },
        {
          "name": "_amounts",
          "type": "uint256[]"
        },
        {
          "name": "_nonce",
          "type": "uint256"
        }
      ],
      "name": "metaDrainBounty",
      "outputs": [],
      "payable": false,
      "stateMutability": "nonpayable",
      "type": "function"
    },
    {
      "constant": false,
      "inputs": [
        {
          "name": "_signature",
          "type": "bytes"
        },
        {
          "name": "_bountyId",
          "type": "uint256"
        },
        {
          "name": "_data",
          "type": "string"
        },
        {
          "name": "_nonce",
          "type": "uint256"
        }
      ],
      "name": "metaPerformAction",
      "outputs": [],
      "payable": false,
      "stateMutability": "nonpayable",
      "type": "function"
    },
    {
      "constant": false,
      "inputs": [
        {
          "name": "_signature",
          "type": "bytes"
        },
        {
          "name": "_bountyId",
          "type": "uint256"
        },
        {
          "name": "_fulfillers",
          "type": "address[]"
        },
        {
          "name": "_data",
          "type": "string"
        },
        {
          "name": "_nonce",
          "type": "uint256"
        }
      ],
      "name": "metaFulfillBounty",
      "outputs": [],
      "payable": false,
      "stateMutability": "nonpayable",
      "type": "function"
    },
    {
      "constant": false,
      "inputs": [
        {
          "name": "_signature",
          "type": "bytes"
        },
        {
          "name": "_bountyId",
          "type": "uint256"
        },
        {
          "name": "_fulfillmentId",
          "type": "uint256"
        },
        {
          "name": "_fulfillers",
          "type": "address[]"
        },
        {
          "name": "_data",
          "type": "string"
        },
        {
          "name": "_nonce",
          "type": "uint256"
        }
      ],
      "name": "metaUpdateFulfillment",
      "outputs": [],
      "payable": false,
      "stateMutability": "nonpayable",
      "type": "function"
    },
    {
      "constant": false,
      "inputs": [
        {
          "name": "_signature",
          "type": "bytes"
        },
        {
          "name": "_bountyId",
          "type": "uint256"
        },
        {
          "name": "_fulfillmentId",
          "type": "uint256"
        },
        {
          "name": "_approverId",
          "type": "uint256"
        },
        {
          "name": "_tokenAmounts",
          "type": "uint256[]"
        },
        {
          "name": "_nonce",
          "type": "uint256"
        }
      ],
      "name": "metaAcceptFulfillment",
      "outputs": [],
      "payable": false,
      "stateMutability": "nonpayable",
      "type": "function"
    },
    {
      "constant": false,
      "inputs": [
        {
          "name": "_signature",
          "type": "bytes"
        },
        {
          "name": "_bountyId",
          "type": "uint256"
        },
        {
          "name": "_fulfillers",
          "type": "address[]"
        },
        {
          "name": "_data",
          "type": "string"
        },
        {
          "name": "_approverId",
          "type": "uint256"
        },
        {
          "name": "_tokenAmounts",
          "type": "uint256[]"
        },
        {
          "name": "_nonce",
          "type": "uint256"
        }
      ],
      "name": "metaFulfillAndAccept",
      "outputs": [],
      "payable": false,
      "stateMutability": "nonpayable",
      "type": "function"
    },
    {
      "constant": false,
      "inputs": [
        {
          "name": "_signature",
          "type": "bytes"
        },
        {
          "name": "_bountyId",
          "type": "uint256"
        },
        {
          "name": "_issuerId",
          "type": "uint256"
        },
        {
          "name": "_issuers",
          "type": "address[]"
        },
        {
          "name": "_approvers",
          "type": "address[]"
        },
        {
          "name": "_data",
          "type": "string"
        },
        {
          "name": "_deadline",
          "type": "uint256"
        },
        {
          "name": "_nonce",
          "type": "uint256"
        }
      ],
      "name": "metaChangeBounty",
      "outputs": [],
      "payable": false,
      "stateMutability": "nonpayable",
      "type": "function"
    },
    {
      "constant": false,
      "inputs": [
        {
          "name": "_signature",
          "type": "bytes"
        },
        {
          "name": "_bountyId",
          "type": "uint256"
        },
        {
          "name": "_issuerId",
          "type": "uint256"
        },
        {
          "name": "_issuerIdToChange",
          "type": "uint256"
        },
        {
          "name": "_newIssuer",
          "type": "address"
        },
        {
          "name": "_nonce",
          "type": "uint256"
        }
      ],
      "name": "metaChangeIssuer",
      "outputs": [],
      "payable": false,
      "stateMutability": "nonpayable",
      "type": "function"
    },
    {
      "constant": false,
      "inputs": [
        {
          "name": "_signature",
          "type": "bytes"
        },
        {
          "name": "_bountyId",
          "type": "uint256"
        },
        {
          "name": "_issuerId",
          "type": "uint256"
        },
        {
          "name": "_approverId",
          "type": "uint256"
        },
        {
          "name": "_approver",
          "type": "address"
        },
        {
          "name": "_nonce",
          "type": "uint256"
        }
      ],
      "name": "metaChangeApprover",
      "outputs": [],
      "payable": false,
      "stateMutability": "nonpayable",
      "type": "function"
    },
    {
      "constant": false,
      "inputs": [
        {
          "name": "_signature",
          "type": "bytes"
        },
        {
          "name": "_bountyId",
          "type": "uint256"
        },
        {
          "name": "_issuerId",
          "type": "uint256"
        },
        {
          "name": "_data",
          "type": "string"
        },
        {
          "name": "_nonce",
          "type": "uint256"
        }
      ],
      "name": "metaChangeData",
      "outputs": [],
      "payable": false,
      "stateMutability": "nonpayable",
      "type": "function"
    },
    {
      "constant": false,
      "inputs": [
        {
          "name": "_signature",
          "type": "bytes"
        },
        {
          "name": "_bountyId",
          "type": "uint256"
        },
        {
          "name": "_issuerId",
          "type": "uint256"
        },
        {
          "name": "_deadline",
          "type": "uint256"
        },
        {
          "name": "_nonce",
          "type": "uint256"
        }
      ],
      "name": "metaChangeDeadline",
      "outputs": [],
      "payable": false,
      "stateMutability": "nonpayable",
      "type": "function"
    },
    {
      "constant": false,
      "inputs": [
        {
          "name": "_signature",
          "type": "bytes"
        },
        {
          "name": "_bountyId",
          "type": "uint256"
        },
        {
          "name": "_issuerId",
          "type": "uint256"
        },
        {
          "name": "_issuers",
          "type": "address[]"
        },
        {
          "name": "_nonce",
          "type": "uint256"
        }
      ],
      "name": "metaAddIssuers",
      "outputs": [],
      "payable": false,
      "stateMutability": "nonpayable",
      "type": "function"
    },
    {
      "constant": false,
      "inputs": [
        {
          "name": "_signature",
          "type": "bytes"
        },
        {
          "name": "_bountyId",
          "type": "uint256"
        },
        {
          "name": "_issuerId",
          "type": "uint256"
        },
        {
          "name": "_approvers",
          "type": "address[]"
        },
        {
          "name": "_nonce",
          "type": "uint256"
        }
      ],
      "name": "metaAddApprovers",
      "outputs": [],
      "payable": false,
      "stateMutability": "nonpayable",
      "type": "function"
    }
  ],
  "bytecode": "0x60806040523480156200001157600080fd5b506040516200362c3803806200362c83398101604081905262000034916200006d565b600080546001600160a01b0319166001600160a01b0392909216919091179055620000c2565b80516200006781620000a8565b92915050565b6000602082840312156200008057600080fd5b60006200008e84846200005a565b949350505050565b60006001600160a01b03821662000067565b620000b38162000096565b8114620000bf57600080fd5b50565b61355a80620000d26000396000f3fe60806040526004361061012a5760003560e01c8063926b4e5f116100ab578063b1e6bcbb1161006f578063b1e6bcbb1461031c578063c353a38a1461032f578063dc5065a81461034f578063df4015fc1461036f578063ec34c4c01461038f578063fbb9e715146103af5761012a565b8063926b4e5f1461027a57806393ee9f4f1461029a578063a39da942146102ba578063a84d579d146102dc578063ae96762d146102fc5761012a565b8063432326a9116100f2578063432326a9146101d1578063484621d5146101e4578063632ebc7b1461020457806367d407df146102245780637984dfe61461025a5761012a565b80630dd72a791461012f578063103cd44f14610151578063189002051461017157806332a7856d1461019157806336bb9122146101b1575b600080fd5b34801561013b57600080fd5b5061014f61014a366004611bc7565b6103cf565b005b34801561015d57600080fd5b5061014f61016c366004611f1a565b6104db565b34801561017d57600080fd5b5061014f61018c3660046120ed565b6105e2565b34801561019d57600080fd5b5061014f6101ac3660046122b8565b6106e4565b3480156101bd57600080fd5b5061014f6101cc366004611e41565b6107ab565b61014f6101df366004612149565b6108bc565b3480156101f057600080fd5b5061014f6101ff366004611d4c565b610a36565b34801561021057600080fd5b5061014f61021f366004611cbe565b610af9565b34801561023057600080fd5b5061024461023f3660046118be565b610bbc565b60405161025191906133f3565b60405180910390f35b34801561026657600080fd5b5061014f610275366004612222565b610bce565b34801561028657600080fd5b5061014f610295366004611dbd565b610c97565b3480156102a657600080fd5b5061014f6102b5366004612149565b610d5e565b3480156102c657600080fd5b506102cf610e21565b60405161025191906133e5565b3480156102e857600080fd5b5061014f6102f73660046121a3565b610e30565b34801561030857600080fd5b5061014f610317366004612069565b610efb565b61024461032a3660046119ef565b610fc2565b34801561033b57600080fd5b5061014f61034a366004611fe5565b6111b2565b34801561035b57600080fd5b5061014f61036a3660046121a3565b611279565b34801561037b57600080fd5b5061024461038a3660046118e4565b611344565b34801561039b57600080fd5b5061014f6103aa366004611b0e565b61147b565b3480156103bb57600080fd5b5061014f6103ca366004612069565b611542565b6000308787878787876040516020016103ee9796959493929190612f2f565b6040516020818303038152906040528051906020012090506000610412828a611609565b90506001600160a01b03811661042757600080fd5b6001600160a01b038116600090815260016020526040902054831461044b57600080fd5b6001600160a01b03808216600090815260016020819052604080832080549092019091559054905163184442b760e31b815291169063c22215b89061049e9084908c908c908c908c908c906004016130e3565b600060405180830381600087803b1580156104b857600080fd5b505af11580156104cc573d6000803e3d6000fd5b50505050505050505050505050565b60003086868686866040516020016104f896959493929190612fb4565b604051602081830303815290604052805190602001209050600061051c8289611609565b90506001600160a01b03811661053157600080fd5b6001600160a01b038116600090815260016020526040902054831461055557600080fd5b6001600160a01b038082166000908152600160208190526040808320805490920190915590549051630c49604560e41b815291169063c4960450906105a69084908b908b908b908b90600401613284565b600060405180830381600087803b1580156105c057600080fd5b505af11580156105d4573d6000803e3d6000fd5b505050505050505050505050565b600030858585856040516020016105fd959493929190612c5e565b60405160208183030381529060405280519060200120905060006106218288611609565b90506001600160a01b03811661063657600080fd5b6001600160a01b038116600090815260016020526040902054831461065a57600080fd5b6001600160a01b038082166000908152600160208190526040808320805490920190915590549051631fbe084f60e21b8152911690637ef8213c906106a99084908a908a908a906004016132d2565b600060405180830381600087803b1580156106c357600080fd5b505af11580156106d7573d6000803e3d6000fd5b5050505050505050505050565b600030858585856040516020016106ff959493929190612d84565b60405160208183030381529060405280519060200120905060006107238288611609565b90506001600160a01b03811661073857600080fd5b6001600160a01b038116600090815260016020526040902054831461075c57600080fd5b6001600160a01b03808216600090815260016020819052604080832080549092019091559054905163aa17aaef60e01b815291169063aa17aaef906106a99084908a908a908a9060040161330c565b600030888888888888886040516020016107cc9897969594939291906129f6565b60405160208183030381529060405280519060200120905060006107f0828b611609565b90506001600160a01b03811661080557600080fd5b6001600160a01b038116600090815260016020526040902054831461082957600080fd5b6001600160a01b03808216600090815260016020819052604080832080549092019091559054905163162f1aed60e31b815291169063b178d7689061087e9084908d908d908d908d908d908d90600401613213565b600060405180830381600087803b15801561089857600080fd5b505af11580156108ac573d6000803e3d6000fd5b5050505050505050505050505050565b6000308484846040516020016108d59493929190612ba9565b60405160208183030381529060405280519060200120905060006108f98287611609565b90506001600160a01b03811661090e57600080fd5b6001600160a01b038116600090815260016020526040902054831461093257600080fd5b6001600160a01b03811660009081526001602081905260409091208054909101905534156109c757600054604051632823de4f60e21b81526001600160a01b039091169063a08f793c9034906109909085908a908a9060040161298a565b6000604051808303818588803b1580156109a957600080fd5b505af11580156109bd573d6000803e3d6000fd5b5050505050610a2e565b600054604051632823de4f60e21b81526001600160a01b039091169063a08f793c906109fb9084908990899060040161298a565b600060405180830381600087803b158015610a1557600080fd5b505af1158015610a29573d6000803e3d6000fd5b505050505b505050505050565b600030848484604051602001610a4f9493929190612b51565b6040516020818303038152906040528051906020012090506000610a738287611609565b90506001600160a01b038116610a8857600080fd5b6001600160a01b0381166000908152600160205260409020548314610aac57600080fd5b6001600160a01b038082166000908152600160208190526040808320805490920190915590549051632562712d60e11b8152911690634ac4e25a906109fb90849089908990600401613172565b600030848484604051602001610b129493929190613015565b6040516020818303038152906040528051906020012090506000610b368287611609565b90506001600160a01b038116610b4b57600080fd5b6001600160a01b0381166000908152600160205260409020548314610b6f57600080fd5b6001600160a01b03808216600090815260016020819052604080832080549092019091559054905163edba701360e01b815291169063edba7013906109fb90849089908990600401613145565b60016020526000908152604090205481565b6000308686868686604051602001610beb96959493929190612e17565b6040516020818303038152906040528051906020012090506000610c0f8289611609565b90506001600160a01b038116610c2457600080fd5b6001600160a01b0381166000908152600160205260409020548314610c4857600080fd5b6001600160a01b038082166000908152600160208190526040808320805490920190915590549051621e4fc760e31b815291169062f27e38906105a69084908b908b908b908b90600401613383565b60003085858585604051602001610cb2959493929190612a89565b6040516020818303038152906040528051906020012090506000610cd68288611609565b90506001600160a01b038116610ceb57600080fd5b6001600160a01b0381166000908152600160205260409020548314610d0f57600080fd5b6001600160a01b038082166000908152600160208190526040808320805490920190915590549051634daf1bb560e01b8152911690634daf1bb5906106a99084908a908a908a9060040161319f565b600030848484604051602001610d779493929190612df8565b6040516020818303038152906040528051906020012090506000610d9b8287611609565b90506001600160a01b038116610db057600080fd5b6001600160a01b0381166000908152600160205260409020548314610dd457600080fd5b6001600160a01b0380821660009081526001602081905260408083208054909201909155905490516393c1ccc960e01b81529116906393c1ccc9906109fb9084908990899060040161298a565b6000546001600160a01b031681565b6000308686868686604051602001610e4d96959493929190612dd9565b6040516020818303038152906040528051906020012090506000610e718289611609565b90506001600160a01b038116610e8657600080fd5b6001600160a01b0381166000908152600160205260409020548314610eaa57600080fd5b6001600160a01b038082166000908152600160208190526040808320805490920190915590549051632092e25960e01b8152911690632092e259906105a69084908b908b908b908b90600401613341565b60003085858585604051602001610f16959493929190612ae5565b6040516020818303038152906040528051906020012090506000610f3a8288611609565b90506001600160a01b038116610f4f57600080fd5b6001600160a01b0381166000908152600160205260409020548314610f7357600080fd5b6001600160a01b0380821660009081526001602081905260408083208054909201909155905490516306eade7960e31b8152911690633756f3c8906106a99084908a908a908a906004016129b2565b600080308a8a8a8a8a8a8a8a604051602001610fe699989796959493929190612e80565b604051602081830303815290604052805190602001209050600061100a828d611609565b90506001600160a01b03811661101f57600080fd5b6001600160a01b038116600090815260016020526040902054841461104357600080fd5b6001600160a01b0381166000908152600160208190526040909120805490910190553415611115576000809054906101000a90046001600160a01b03166001600160a01b03166306060ae334838e8e8e8e8e8e8e6040518a63ffffffff1660e01b81526004016110ba98979695949392919061290b565b6020604051808303818588803b1580156110d357600080fd5b505af11580156110e7573d6000803e3d6000fd5b50505050506040513d601f19601f8201168201806040525061110c9190810190612325565b925050506111a5565b6000546040516306060ae360e01b81526001600160a01b03909116906306060ae3906111539084908f908f908f908f908f908f908f9060040161290b565b602060405180830381600087803b15801561116d57600080fd5b505af1158015611181573d6000803e3d6000fd5b505050506040513d601f19601f8201168201806040525061110c9190810190612325565b9998505050505050505050565b600030858585856040516020016111cd959493929190613055565b60405160208183030381529060405280519060200120905060006111f18288611609565b90506001600160a01b03811661120657600080fd5b6001600160a01b038116600090815260016020526040902054831461122a57600080fd5b6001600160a01b03808216600090815260016020819052604080832080549092019091559054905163c6a8b42b60e01b815291169063c6a8b42b906106a99084908a908a908a906004016131d9565b600030868686868660405160200161129696959493929190612bf1565b60405160208183030381529060405280519060200120905060006112ba8289611609565b90506001600160a01b0381166112cf57600080fd5b6001600160a01b03811660009081526001602052604090205483146112f357600080fd5b6001600160a01b038082166000908152600160208190526040808320805490920190915590549051639e64d9bf60e01b8152911690639e64d9bf906105a69084908b908b908b908b90600401613341565b6000803089898989898989604051602001611366989796959493929190612cff565b604051602081830303815290604052805190602001209050600061138a828c611609565b90506001600160a01b03811661139f57600080fd5b6001600160a01b03811660009081526001602052604090205484146113c357600080fd5b6001600160a01b038082166000908152600160208190526040808320805490920190915590549051632b3d9e9760e11b815291169063567b3d2e906114189084908e908e908e908e908e908e9060040161289a565b602060405180830381600087803b15801561143257600080fd5b505af1158015611446573d6000803e3d6000fd5b505050506040513d601f19601f8201168201806040525061146a9190810190612325565b925050505b98975050505050505050565b60003085858585604051602001611496959493929190612cab565b60405160208183030381529060405280519060200120905060006114ba8288611609565b90506001600160a01b0381166114cf57600080fd5b6001600160a01b03811660009081526001602052604090205483146114f357600080fd5b6001600160a01b0380821660009081526001602081905260408083208054909201909155905490516397d7666560e01b81529116906397d76665906106a99084908a908a908a906004016130a2565b6000308585858560405160200161155d959493929190612b32565b60405160208183030381529060405280519060200120905060006115818288611609565b90506001600160a01b03811661159657600080fd5b6001600160a01b03811660009081526001602052604090205483146115ba57600080fd5b6001600160a01b03808216600090815260016020819052604080832080549092019091559054905163a071fbd560e01b815291169063a071fbd5906106a99084908a908a908a906004016129b2565b600080600080845160411461162457600093505050506116f2565b50505060208201516040830151606084015160001a601b81101561164657601b015b8060ff16601b1415801561165e57508060ff16601c14155b1561166f57600093505050506116f2565b600186604051602001611682919061287a565b60405160208183030381529060405280519060200120828585604051600081526020016040526040516116b894939291906133ca565b6020604051602081039080840390855afa1580156116da573d6000803e3d6000fd5b5050506020604051035193505050506116f2565b5050505b92915050565b80356116f2816134f7565b600082601f83011261171457600080fd5b813561172761172282613427565b613401565b9150818183526020840193506020810190508385602084028201111561174c57600080fd5b60005b83811015611778578161176288826116f8565b845250602092830192919091019060010161174f565b5050505092915050565b600082601f83011261179357600080fd5b81356117a161172282613427565b915081818352602084019350602081019050838560208402820111156117c657600080fd5b60005b8381101561177857816117dc88826116f8565b84525060209283019291909101906001016117c9565b600082601f83011261180357600080fd5b813561181161172282613427565b9150818183526020840193506020810190508385602084028201111561183657600080fd5b60005b83811015611778578161184c88826118a8565b8452506020928301929190910190600101611839565b600082601f83011261187357600080fd5b813561188161172282613447565b9150808252602083016020830185838301111561189d57600080fd5b6116ee8382846134b1565b80356116f28161350e565b80516116f28161350e565b6000602082840312156118d057600080fd5b60006118dc84846116f8565b949350505050565b600080600080600080600080610100898b03121561190157600080fd5b88356001600160401b0381111561191757600080fd5b6119238b828c01611862565b98505060208901356001600160401b0381111561193f57600080fd5b61194b8b828c01611782565b97505060408901356001600160401b0381111561196757600080fd5b6119738b828c01611703565b96505060608901356001600160401b0381111561198f57600080fd5b61199b8b828c01611862565b95505060806119ac8b828c016118a8565b94505060a06119bd8b828c016116f8565b93505060c06119ce8b828c016118a8565b92505060e06119df8b828c016118a8565b9150509295985092959890939650565b60008060008060008060008060006101208a8c031215611a0e57600080fd5b89356001600160401b03811115611a2457600080fd5b611a308c828d01611862565b99505060208a01356001600160401b03811115611a4c57600080fd5b611a588c828d01611782565b98505060408a01356001600160401b03811115611a7457600080fd5b611a808c828d01611703565b97505060608a01356001600160401b03811115611a9c57600080fd5b611aa88c828d01611862565b9650506080611ab98c828d016118a8565b95505060a0611aca8c828d016116f8565b94505060c0611adb8c828d016118a8565b93505060e0611aec8c828d016118a8565b925050610100611afe8c828d016118a8565b9150509295985092959850929598565b600080600080600060a08688031215611b2657600080fd5b85356001600160401b03811115611b3c57600080fd5b611b4888828901611862565b9550506020611b59888289016118a8565b94505060408601356001600160401b03811115611b7557600080fd5b611b8188828901611782565b93505060608601356001600160401b03811115611b9d57600080fd5b611ba988828901611862565b9250506080611bba888289016118a8565b9150509295509295909350565b600080600080600080600060e0888a031215611be257600080fd5b87356001600160401b03811115611bf857600080fd5b611c048a828b01611862565b9750506020611c158a828b016118a8565b96505060408801356001600160401b03811115611c3157600080fd5b611c3d8a828b01611782565b95505060608801356001600160401b03811115611c5957600080fd5b611c658a828b01611862565b9450506080611c768a828b016118a8565b93505060a08801356001600160401b03811115611c9257600080fd5b611c9e8a828b016117f2565b92505060c0611caf8a828b016118a8565b91505092959891949750929550565b60008060008060808587031215611cd457600080fd5b84356001600160401b03811115611cea57600080fd5b611cf687828801611862565b9450506020611d07878288016118a8565b93505060408501356001600160401b03811115611d2357600080fd5b611d2f878288016117f2565b9250506060611d40878288016118a8565b91505092959194509250565b60008060008060808587031215611d6257600080fd5b84356001600160401b03811115611d7857600080fd5b611d8487828801611862565b9450506020611d95878288016118a8565b93505060408501356001600160401b03811115611db157600080fd5b611d2f87828801611862565b600080600080600060a08688031215611dd557600080fd5b85356001600160401b03811115611deb57600080fd5b611df788828901611862565b9550506020611e08888289016118a8565b9450506040611e19888289016118a8565b93505060608601356001600160401b03811115611e3557600080fd5b611ba988828901611703565b600080600080600080600080610100898b031215611e5e57600080fd5b88356001600160401b03811115611e7457600080fd5b611e808b828c01611862565b9850506020611e918b828c016118a8565b9750506040611ea28b828c016118a8565b96505060608901356001600160401b03811115611ebe57600080fd5b611eca8b828c01611782565b95505060808901356001600160401b03811115611ee657600080fd5b611ef28b828c01611782565b94505060a08901356001600160401b03811115611f0e57600080fd5b6119bd8b828c01611862565b60008060008060008060c08789031215611f3357600080fd5b86356001600160401b03811115611f4957600080fd5b611f5589828a01611862565b9650506020611f6689828a016118a8565b9550506040611f7789828a016118a8565b94505060608701356001600160401b03811115611f9357600080fd5b611f9f89828a01611782565b93505060808701356001600160401b03811115611fbb57600080fd5b611fc789828a01611862565b92505060a0611fd889828a016118a8565b9150509295509295509295565b600080600080600060a08688031215611ffd57600080fd5b85356001600160401b0381111561201357600080fd5b61201f88828901611862565b9550506020612030888289016118a8565b9450506040612041888289016118a8565b93505060608601356001600160401b0381111561205d57600080fd5b611ba988828901611782565b600080600080600060a0868803121561208157600080fd5b85356001600160401b0381111561209757600080fd5b6120a388828901611862565b95505060206120b4888289016118a8565b94505060406120c5888289016118a8565b93505060608601356001600160401b038111156120e157600080fd5b611ba9888289016117f2565b600080600080600060a0868803121561210557600080fd5b85356001600160401b0381111561211b57600080fd5b61212788828901611862565b9550506020612138888289016118a8565b9450506040611b81888289016118a8565b6000806000806080858703121561215f57600080fd5b84356001600160401b0381111561217557600080fd5b61218187828801611862565b9450506020612192878288016118a8565b9350506040611d2f878288016118a8565b60008060008060008060c087890312156121bc57600080fd5b86356001600160401b038111156121d257600080fd5b6121de89828a01611862565b96505060206121ef89828a016118a8565b955050604061220089828a016118a8565b945050606061221189828a016118a8565b9350506080611fc789828a016116f8565b60008060008060008060c0878903121561223b57600080fd5b86356001600160401b0381111561225157600080fd5b61225d89828a01611862565b965050602061226e89828a016118a8565b955050604061227f89828a016118a8565b945050606061229089828a016118a8565b93505060808701356001600160401b038111156122ac57600080fd5b611fc789828a016117f2565b600080600080600060a086880312156122d057600080fd5b85356001600160401b038111156122e657600080fd5b6122f288828901611862565b9550506020612303888289016118a8565b9450506040612314888289016118a8565b9350506060611ba9888289016118a8565b60006020828403121561233757600080fd5b60006118dc84846118b3565b600061234f8383612363565b505060200190565b600061234f8383612467565b61236c81613486565b82525050565b600061237d82613474565b6123878185613478565b93506123928361346e565b8060005b838110156123c05781516123aa8882612343565b97506123b58361346e565b925050600101612396565b509495945050505050565b60006123d682613474565b6123e08185613478565b93506123eb8361346e565b8060005b838110156123c05781516124038882612343565b975061240e8361346e565b9250506001016123ef565b600061242482613474565b61242e8185613478565b93506124398361346e565b8060005b838110156123c05781516124518882612357565b975061245c8361346e565b92505060010161243d565b61236c81613491565b61236c61247c82613491565b613491565b61236c816134a6565b600061249582613474565b61249f8185613478565b93506124af8185602086016134bd565b6124b8816134ed565b9093019392505050565b60006124cf601c83613481565b7f19457468657265756d205369676e6564204d6573736167653a0a3332000000008152601c0192915050565b6000612508601083613478565b6f6d6574614368616e6765426f756e747960801b815260200192915050565b6000612534601083613478565b6f6d657461416464417070726f7665727360801b815260200192915050565b6000612560600f83613478565b6e6d657461447261696e426f756e747960881b815260200192915050565b600061258b601783613478565b7f6d657461526566756e64436f6e747269627574696f6e73000000000000000000815260200192915050565b60006125c4601183613478565b7036b2ba30a832b93337b936a0b1ba34b7b760791b815260200192915050565b60006125f1600e83613478565b6d6d657461436f6e7472696275746560901b815260200192915050565b600061261b601083613478565b6f36b2ba30a1b430b733b2a4b9b9bab2b960811b815260200192915050565b6000612647600e83613478565b6d6d6574614368616e67654461746160901b815260200192915050565b6000612671601183613478565b706d65746146756c66696c6c426f756e747960781b815260200192915050565b600061269e600f83613478565b6e6d6574614973737565426f756e747960881b815260200192915050565b60006126c9601283613478565b716d6574614368616e6765446561646c696e6560701b815260200192915050565b60006126f7601283613478565b7136b2ba30a1b430b733b2a0b8383937bb32b960711b815260200192915050565b6000612725601683613478565b7536b2ba30a932b33ab73221b7b73a3934b13aba34b7b760511b815260200192915050565b6000612757601583613478565b741b595d185058d8d95c1d119d5b199a5b1b1b595b9d605a1b815260200192915050565b6000612788601683613478565b756d6574614973737565416e64436f6e7472696275746560501b815260200192915050565b60006127ba601483613478565b731b595d18519d5b199a5b1b105b991058d8d95c1d60621b815260200192915050565b60006127ea601583613478565b741b595d18555c19185d19519d5b199a5b1b1b595b9d605a1b815260200192915050565b600061281b601983613478565b7f6d657461526566756e644d79436f6e747269627574696f6e7300000000000000815260200192915050565b6000612854600e83613478565b6d6d6574614164644973737565727360901b815260200192915050565b61236c816134a0565b6000612885826124c2565b91506128918284612470565b50602001919050565b60e081016128a8828a612363565b81810360208301526128ba81896123cb565b905081810360408301526128ce8188612372565b905081810360608301526128e2818761248a565b90506128f16080830186612467565b6128fe60a0830185612363565b61146f60c0830184612467565b610100810161291a828b612363565b818103602083015261292c818a6123cb565b905081810360408301526129408189612372565b90508181036060830152612954818861248a565b90506129636080830187612467565b61297060a0830186612363565b61297d60c0830185612467565b6111a560e0830184612467565b606081016129988286612363565b6129a56020830185612467565b6118dc6040830184612467565b608081016129c08287612363565b6129cd6020830186612467565b6129da6040830185612467565b81810360608301526129ec8184612419565b9695505050505050565b6101208101612a05828b612363565b8181036020830152612a16816124fb565b9050612a25604083018a612467565b612a326060830189612467565b8181036080830152612a4481886123cb565b905081810360a0830152612a5881876123cb565b905081810360c0830152612a6c818661248a565b9050612a7b60e0830185612467565b6111a5610100830184612467565b60c08101612a978288612363565b8181036020830152612aa881612527565b9050612ab76040830187612467565b612ac46060830186612467565b8181036080830152612ad68185612372565b90506129ec60a0830184612467565b60c08101612af38288612363565b8181036020830152612b0481612553565b9050612b136040830187612467565b612b206060830186612467565b8181036080830152612ad68185612419565b60c08101612b408288612363565b8181036020830152612b048161257e565b60a08101612b5f8287612363565b8181036020830152612b70816125b7565b9050612b7f6040830186612467565b8181036060830152612b91818561248a565b9050612ba06080830184612467565b95945050505050565b60a08101612bb78287612363565b8181036020830152612bc8816125e4565b9050612bd76040830186612467565b612be46060830185612467565b612ba06080830184612467565b60e08101612bff8289612363565b8181036020830152612c108161260e565b9050612c1f6040830188612467565b612c2c6060830187612467565b612c396080830186612467565b612c4660a0830185612363565b612c5360c0830184612467565b979650505050505050565b60c08101612c6c8288612363565b8181036020830152612c7d8161263a565b9050612c8c6040830187612467565b612c996060830186612467565b8181036080830152612ad6818561248a565b60c08101612cb98288612363565b8181036020830152612cca81612664565b9050612cd96040830187612467565b8181036060830152612ceb81866123cb565b90508181036080830152612ad6818561248a565b6101208101612d0e828b612363565b8181036020830152612d1f81612691565b90508181036040830152612d33818a6123cb565b90508181036060830152612d478189612372565b90508181036080830152612d5b818861248a565b9050612d6a60a0830187612467565b612d7760c0830186612363565b612a7b60e0830185612467565b60c08101612d928288612363565b8181036020830152612da3816126bc565b9050612db26040830187612467565b612dbf6060830186612467565b612dcc6080830185612467565b6129ec60a0830184612467565b60e08101612de78289612363565b8181036020830152612c10816126ea565b60a08101612e068287612363565b8181036020830152612bc881612718565b60e08101612e258289612363565b8181036020830152612e368161274a565b9050612e456040830188612467565b612e526060830187612467565b612e5f6080830186612467565b81810360a0830152612e718185612419565b9050612c5360c0830184612467565b6101408101612e8f828c612363565b8181036020830152612ea08161277b565b90508181036040830152612eb4818b6123cb565b90508181036060830152612ec8818a612372565b90508181036080830152612edc818961248a565b9050612eeb60a0830188612467565b612ef860c0830187612363565b612f0560e0830186612467565b612f13610100830185612467565b612f21610120830184612467565b9a9950505050505050505050565b6101008101612f3e828a612363565b8181036020830152612f4f816127ad565b9050612f5e6040830189612467565b8181036060830152612f7081886123cb565b90508181036080830152612f84818761248a565b9050612f9360a0830186612467565b81810360c0830152612fa58185612419565b905061146f60e0830184612467565b60e08101612fc28289612363565b8181036020830152612fd3816127dd565b9050612fe26040830188612467565b612fef6060830187612467565b818103608083015261300181866123cb565b905081810360a0830152612e71818561248a565b60a081016130238287612363565b81810360208301526130348161280e565b90506130436040830186612467565b8181036060830152612b918185612419565b60c081016130638288612363565b818103602083015261307481612847565b90506130836040830187612467565b6130906060830186612467565b8181036080830152612ad681856123cb565b608081016130b08287612363565b6130bd6020830186612467565b81810360408301526130cf81856123cb565b905081810360608301526129ec818461248a565b60c081016130f18289612363565b6130fe6020830188612467565b818103604083015261311081876123cb565b90508181036060830152613124818661248a565b90506131336080830185612467565b81810360a083015261146f8184612419565b606081016131538286612363565b6131606020830185612467565b8181036040830152612ba08184612419565b606081016131808286612363565b61318d6020830185612467565b8181036040830152612ba0818461248a565b608081016131ad8287612363565b6131ba6020830186612467565b6131c76040830185612467565b81810360608301526129ec8184612372565b608081016131e78287612363565b6131f46020830186612467565b6132016040830185612467565b81810360608301526129ec81846123cb565b60e08101613221828a612363565b61322e6020830189612467565b61323b6040830188612467565b818103606083015261324d81876123cb565b9050818103608083015261326181866123cb565b905081810360a0830152613275818561248a565b905061146f60c0830184612467565b60a081016132928288612363565b61329f6020830187612467565b6132ac6040830186612467565b81810360608301526132be81856123cb565b90508181036080830152612c53818461248a565b608081016132e08287612363565b6132ed6020830186612467565b6132fa6040830185612467565b81810360608301526129ec818461248a565b6080810161331a8287612363565b6133276020830186612467565b6133346040830185612467565b612ba06060830184612467565b60a0810161334f8288612363565b61335c6020830187612467565b6133696040830186612467565b6133766060830185612467565b6129ec6080830184612363565b60a081016133918288612363565b61339e6020830187612467565b6133ab6040830186612467565b6133b86060830185612467565b8181036080830152612c538184612419565b608081016133d88287612467565b6133276020830186612871565b602081016116f28284612481565b602081016116f28284612467565b6040518181016001600160401b038111828210171561341f57600080fd5b604052919050565b60006001600160401b0382111561343d57600080fd5b5060209081020190565b60006001600160401b0382111561345d57600080fd5b506020601f91909101601f19160190565b60200190565b5190565b90815260200190565b919050565b60006116f282613494565b90565b6001600160a01b031690565b60ff1690565b60006116f282613486565b82818337506000910152565b60005b838110156134d85781810151838201526020016134c0565b838111156134e7576000848401525b50505050565b601f01601f191690565b61350081613486565b811461350b57600080fd5b50565b6135008161349156fea365627a7a72305820d46ac7774b9f5e0e1a92bca46972d482a42e14e8d7cab347f06be9b2199227436c6578706572696d656e74616cf564736f6c63430005090040",
  "source": "pragma solidity >=0.5.0 < 0.6.0;\r\npragma experimental ABIEncoderV2;\r\n\r\nimport \"./StandardBounties.sol\";\r\n\r\n\r\ncontract BountiesMetaTxRelayer {\r\n\r\n  // This contract serves as a relayer for meta txns being sent to the Bounties contract\r\n\r\n  StandardBounties public bountiesContract;\r\n  mapping(address => uint) public replayNonce;\r\n\r\n\r\n  constructor(address _contract) public {\r\n    bountiesContract = StandardBounties(_contract);\r\n  }\r\n\r\n  function metaIssueBounty(\r\n    bytes memory signature,\r\n    address payable[] memory _issuers,\r\n    address[] memory _approvers,\r\n    string memory _data,\r\n    uint _deadline,\r\n    address _token,\r\n    uint _tokenVersion,\r\n    uint _nonce)\r\n    public\r\n    returns (uint)\r\n    {\r\n    bytes32 metaHash = keccak256(abi.encode(address(this),\r\n                                                  \"metaIssueBounty\",\r\n                                                  _issuers,\r\n                                                  _approvers,\r\n                                                  _data,\r\n                                                  _deadline,\r\n                                                  _token,\r\n                                                  _tokenVersion,\r\n                                                  _nonce));\r\n    address signer = getSigner(metaHash, signature);\r\n\r\n    //make sure signer doesn't come back as 0x0\r\n    require(signer != address(0));\r\n    require(_nonce == replayNonce[signer]);\r\n\r\n    //increase the nonce to prevent replay attacks\r\n    replayNonce[signer]++;\r\n    return bountiesContract.issueBounty(address(uint160(signer)),\r\n                                         _issuers,\r\n                                         _approvers,\r\n                                         _data,\r\n                                         _deadline,\r\n                                         _token,\r\n                                         _tokenVersion);\r\n  }\r\n\r\n  function metaIssueAndContribute(\r\n    bytes memory signature,\r\n    address payable[] memory _issuers,\r\n    address[] memory _approvers,\r\n    string memory _data,\r\n    uint _deadline,\r\n    address _token,\r\n    uint _tokenVersion,\r\n    uint _depositAmount,\r\n    uint _nonce)\r\n    public\r\n    payable\r\n    returns (uint)\r\n    {\r\n    bytes32 metaHash = keccak256(abi.encode(address(this),\r\n                                                  \"metaIssueAndContribute\",\r\n                                                  _issuers,\r\n                                                  _approvers,\r\n                                                  _data,\r\n                                                  _deadline,\r\n                                                  _token,\r\n                                                  _tokenVersion,\r\n                                                  _depositAmount,\r\n                                                  _nonce));\r\n    address signer = getSigner(metaHash, signature);\r\n\r\n    //make sure signer doesn't come back as 0x0\r\n    require(signer != address(0));\r\n    require(_nonce == replayNonce[signer]);\r\n\r\n    //increase the nonce to prevent replay attacks\r\n    replayNonce[signer]++;\r\n\r\n    if (msg.value > 0){\r\n      return bountiesContract.issueAndContribute.value(msg.value)(address(uint160(signer)),\r\n                                                 _issuers,\r\n                                                 _approvers,\r\n                                                 _data,\r\n                                                 _deadline,\r\n                                                 _token,\r\n                                                 _tokenVersion,\r\n                                                 _depositAmount);\r\n    } else {\r\n      return bountiesContract.issueAndContribute(address(uint160(signer)),\r\n                                                 _issuers,\r\n                                                 _approvers,\r\n                                                 _data,\r\n                                                 _deadline,\r\n                                                 _token,\r\n                                                 _tokenVersion,\r\n                                                 _depositAmount);\r\n    }\r\n\r\n  }\r\n\r\n  function metaContribute(\r\n    bytes memory _signature,\r\n    uint _bountyId,\r\n    uint _amount,\r\n    uint _nonce)\r\n    public\r\n    payable\r\n    {\r\n    bytes32 metaHash = keccak256(abi.encode(address(this),\r\n                                                  \"metaContribute\",\r\n                                                  _bountyId,\r\n                                                  _amount,\r\n                                                  _nonce));\r\n    address signer = getSigner(metaHash, _signature);\r\n\r\n    //make sure signer doesn't come back as 0x0\r\n    require(signer != address(0));\r\n    require(_nonce == replayNonce[signer]);\r\n\r\n    //increase the nonce to prevent replay attacks\r\n    replayNonce[signer]++;\r\n\r\n    if (msg.value > 0){\r\n      bountiesContract.contribute.value(msg.value)(address(uint160(signer)), _bountyId, _amount);\r\n    } else {\r\n      bountiesContract.contribute(address(uint160(signer)), _bountyId, _amount);\r\n    }\r\n  }\r\n\r\n\r\n  function metaRefundContribution(\r\n    bytes memory _signature,\r\n    uint _bountyId,\r\n    uint _contributionId,\r\n    uint _nonce)\r\n    public\r\n    {\r\n    bytes32 metaHash = keccak256(abi.encode(address(this),\r\n                                                  \"metaRefundContribution\",\r\n                                                  _bountyId,\r\n                                                  _contributionId,\r\n                                                  _nonce));\r\n    address signer = getSigner(metaHash, _signature);\r\n\r\n    //make sure signer doesn't come back as 0x0\r\n    require(signer != address(0));\r\n    require(_nonce == replayNonce[signer]);\r\n\r\n    //increase the nonce to prevent replay attacks\r\n    replayNonce[signer]++;\r\n\r\n    bountiesContract.refundContribution(signer, _bountyId, _contributionId);\r\n  }\r\n\r\n  function metaRefundMyContributions(\r\n    bytes memory _signature,\r\n    uint _bountyId,\r\n    uint[] memory _contributionIds,\r\n    uint _nonce)\r\n    public\r\n    {\r\n    bytes32 metaHash = keccak256(abi.encode(address(this),\r\n                                                  \"metaRefundMyContributions\",\r\n                                                  _bountyId,\r\n                                                  _contributionIds,\r\n                                                  _nonce));\r\n    address signer = getSigner(metaHash, _signature);\r\n\r\n    //make sure signer doesn't come back as 0x0\r\n    require(signer != address(0));\r\n    require(_nonce == replayNonce[signer]);\r\n\r\n    //increase the nonce to prevent replay attacks\r\n    replayNonce[signer]++;\r\n\r\n    bountiesContract.refundMyContributions(signer, _bountyId, _contributionIds);\r\n  }\r\n\r\n  function metaRefundContributions(\r\n    bytes memory _signature,\r\n    uint _bountyId,\r\n    uint _issuerId,\r\n    uint[] memory _contributionIds,\r\n    uint _nonce)\r\n    public\r\n    {\r\n    bytes32 metaHash = keccak256(abi.encode(address(this),\r\n                                                  \"metaRefundContributions\",\r\n                                                  _bountyId,\r\n                                                  _issuerId,\r\n                                                  _contributionIds,\r\n                                                  _nonce));\r\n    address signer = getSigner(metaHash, _signature);\r\n\r\n    //make sure signer doesn't come back as 0x0\r\n    require(signer != address(0));\r\n    require(_nonce == replayNonce[signer]);\r\n\r\n    //increase the nonce to prevent replay attacks\r\n    replayNonce[signer]++;\r\n\r\n    bountiesContract.refundContributions(signer, _bountyId, _issuerId, _contributionIds);\r\n  }\r\n\r\n  function metaDrainBounty(\r\n    bytes memory _signature,\r\n    uint _bountyId,\r\n    uint _issuerId,\r\n    uint[] memory _amounts,\r\n    uint _nonce)\r\n    public\r\n    {\r\n    bytes32 metaHash = keccak256(abi.encode(address(this),\r\n                                                  \"metaDrainBounty\",\r\n                                                  _bountyId,\r\n                                                  _issuerId,\r\n                                                  _amounts,\r\n                                                  _nonce));\r\n    address payable signer = address(uint160(getSigner(metaHash, _signature)));\r\n\r\n    //make sure signer doesn't come back as 0x0\r\n    require(signer != address(0));\r\n    require(_nonce == replayNonce[signer]);\r\n\r\n    //increase the nonce to prevent replay attacks\r\n    replayNonce[signer]++;\r\n\r\n    bountiesContract.drainBounty(signer, _bountyId, _issuerId, _amounts);\r\n  }\r\n\r\n  function metaPerformAction(\r\n    bytes memory _signature,\r\n    uint _bountyId,\r\n    string memory _data,\r\n    uint256 _nonce)\r\n    public\r\n    {\r\n    bytes32 metaHash = keccak256(abi.encode(address(this),\r\n                                                  \"metaPerformAction\",\r\n                                                  _bountyId,\r\n                                                  _data,\r\n                                                  _nonce));\r\n    address signer = getSigner(metaHash, _signature);\r\n    //make sure signer doesn't come back as 0x0\r\n    require(signer != address(0));\r\n    require(_nonce == replayNonce[signer]);\r\n\r\n    //increase the nonce to prevent replay attacks\r\n    replayNonce[signer]++;\r\n\r\n    bountiesContract.performAction(signer, _bountyId, _data);\r\n  }\r\n\r\n  function metaFulfillBounty(\r\n    bytes memory _signature,\r\n    uint _bountyId,\r\n    address payable[] memory  _fulfillers,\r\n    string memory _data,\r\n    uint256 _nonce)\r\n    public\r\n    {\r\n    bytes32 metaHash = keccak256(abi.encode(address(this),\r\n                                                  \"metaFulfillBounty\",\r\n                                                  _bountyId,\r\n                                                  _fulfillers,\r\n                                                  _data,\r\n                                                  _nonce));\r\n    address signer = getSigner(metaHash, _signature);\r\n    //make sure signer doesn't come back as 0x0\r\n    require(signer != address(0));\r\n    require(_nonce == replayNonce[signer]);\r\n\r\n    //increase the nonce to prevent replay attacks\r\n    replayNonce[signer]++;\r\n\r\n    bountiesContract.fulfillBounty(signer, _bountyId, _fulfillers, _data);\r\n  }\r\n\r\n  function metaUpdateFulfillment(\r\n    bytes memory _signature,\r\n    uint _bountyId,\r\n    uint _fulfillmentId,\r\n    address payable[] memory  _fulfillers,\r\n    string memory _data,\r\n    uint256 _nonce)\r\n    public\r\n    {\r\n    bytes32 metaHash = keccak256(abi.encode(address(this),\r\n                                                  \"metaUpdateFulfillment\",\r\n                                                  _bountyId,\r\n                                                  _fulfillmentId,\r\n                                                  _fulfillers,\r\n                                                  _data,\r\n                                                  _nonce));\r\n    address signer = getSigner(metaHash, _signature);\r\n    //make sure signer doesn't come back as 0x0\r\n    require(signer != address(0));\r\n    require(_nonce == replayNonce[signer]);\r\n\r\n    //increase the nonce to prevent replay attacks\r\n    replayNonce[signer]++;\r\n\r\n    bountiesContract.updateFulfillment(signer, _bountyId, _fulfillmentId, _fulfillers, _data);\r\n  }\r\n\r\n  function metaAcceptFulfillment(\r\n    bytes memory _signature,\r\n    uint _bountyId,\r\n    uint _fulfillmentId,\r\n    uint _approverId,\r\n    uint[] memory _tokenAmounts,\r\n    uint256 _nonce)\r\n    public\r\n    {\r\n    bytes32 metaHash = keccak256(abi.encode(address(this),\r\n                                                  \"metaAcceptFulfillment\",\r\n                                                  _bountyId,\r\n                                                  _fulfillmentId,\r\n                                                  _approverId,\r\n                                                  _tokenAmounts,\r\n                                                  _nonce));\r\n    address signer = getSigner(metaHash, _signature);\r\n    //make sure signer doesn't come back as 0x0\r\n    require(signer != address(0));\r\n    require(_nonce == replayNonce[signer]);\r\n\r\n    //increase the nonce to prevent replay attacks\r\n    replayNonce[signer]++;\r\n\r\n    bountiesContract.acceptFulfillment(signer,\r\n                       _bountyId,\r\n                       _fulfillmentId,\r\n                       _approverId,\r\n                       _tokenAmounts);\r\n  }\r\n\r\n  function metaFulfillAndAccept(\r\n    bytes memory _signature,\r\n    uint _bountyId,\r\n    address payable[] memory _fulfillers,\r\n    string memory _data,\r\n    uint _approverId,\r\n    uint[] memory _tokenAmounts,\r\n    uint256 _nonce)\r\n    public\r\n    {\r\n    bytes32 metaHash = keccak256(abi.encode(address(this),\r\n                                                  \"metaFulfillAndAccept\",\r\n                                                  _bountyId,\r\n                                                  _fulfillers,\r\n                                                  _data,\r\n                                                  _approverId,\r\n                                                  _tokenAmounts,\r\n                                                  _nonce));\r\n    address signer = getSigner(metaHash, _signature);\r\n    //make sure signer doesn't come back as 0x0\r\n    require(signer != address(0));\r\n    require(_nonce == replayNonce[signer]);\r\n\r\n    //increase the nonce to prevent replay attacks\r\n    replayNonce[signer]++;\r\n\r\n    bountiesContract.fulfillAndAccept(signer,\r\n                      _bountyId,\r\n                      _fulfillers,\r\n                      _data,\r\n                      _approverId,\r\n                      _tokenAmounts);\r\n  }\r\n\r\n  function metaChangeBounty(\r\n    bytes memory _signature,\r\n    uint _bountyId,\r\n    uint _issuerId,\r\n    address payable[] memory _issuers,\r\n    address payable[] memory _approvers,\r\n    string memory _data,\r\n    uint _deadline,\r\n    uint256 _nonce)\r\n    public\r\n    {\r\n    bytes32 metaHash = keccak256(abi.encode(address(this),\r\n                                                  \"metaChangeBounty\",\r\n                                                  _bountyId,\r\n                                                  _issuerId,\r\n                                                  _issuers,\r\n                                                  _approvers,\r\n                                                  _data,\r\n                                                  _deadline,\r\n                                                  _nonce));\r\n    address signer = getSigner(metaHash, _signature);\r\n    //make sure signer doesn't come back as 0x0\r\n    require(signer != address(0));\r\n    require(_nonce == replayNonce[signer]);\r\n\r\n    //increase the nonce to prevent replay attacks\r\n    replayNonce[signer]++;\r\n\r\n    bountiesContract.changeBounty(signer,\r\n                  _bountyId,\r\n                  _issuerId,\r\n                  _issuers,\r\n                  _approvers,\r\n                  _data,\r\n                  _deadline);\r\n  }\r\n\r\n  function metaChangeIssuer(\r\n    bytes memory _signature,\r\n    uint _bountyId,\r\n    uint _issuerId,\r\n    uint _issuerIdToChange,\r\n    address payable _newIssuer,\r\n    uint256 _nonce)\r\n    public\r\n    {\r\n    bytes32 metaHash = keccak256(abi.encode(address(this),\r\n                                                  \"metaChangeIssuer\",\r\n                                                  _bountyId,\r\n                                                  _issuerId,\r\n                                                  _issuerIdToChange,\r\n                                                  _newIssuer,\r\n                                                  _nonce));\r\n    address signer = getSigner(metaHash, _signature);\r\n    //make sure signer doesn't come back as 0x0\r\n    require(signer != address(0));\r\n    require(_nonce == replayNonce[signer]);\r\n\r\n    //increase the nonce to prevent replay attacks\r\n    replayNonce[signer]++;\r\n\r\n    bountiesContract.changeIssuer(signer,\r\n                  _bountyId,\r\n                  _issuerId,\r\n                  _issuerIdToChange,\r\n                  _newIssuer);\r\n  }\r\n\r\n  function metaChangeApprover(\r\n    bytes memory _signature,\r\n    uint _bountyId,\r\n    uint _issuerId,\r\n    uint _approverId,\r\n    address payable _approver,\r\n    uint256 _nonce)\r\n    public\r\n    {\r\n    bytes32 metaHash = keccak256(abi.encode(address(this),\r\n                                                  \"metaChangeApprover\",\r\n                                                  _bountyId,\r\n                                                  _issuerId,\r\n                                                  _approverId,\r\n                                                  _approver,\r\n                                                  _nonce));\r\n    address signer = getSigner(metaHash, _signature);\r\n    //make sure signer doesn't come back as 0x0\r\n    require(signer != address(0));\r\n    require(_nonce == replayNonce[signer]);\r\n\r\n    //increase the nonce to prevent replay attacks\r\n    replayNonce[signer]++;\r\n\r\n    bountiesContract.changeApprover(signer,\r\n                  _bountyId,\r\n                  _issuerId,\r\n                  _approverId,\r\n                  _approver);\r\n  }\r\n\r\n  function metaChangeData(\r\n    bytes memory _signature,\r\n    uint _bountyId,\r\n    uint _issuerId,\r\n    string memory _data,\r\n    uint256 _nonce)\r\n    public\r\n    {\r\n    bytes32 metaHash = keccak256(abi.encode(address(this),\r\n                                                  \"metaChangeData\",\r\n                                                  _bountyId,\r\n                                                  _issuerId,\r\n                                                  _data,\r\n                                                  _nonce));\r\n    address signer = getSigner(metaHash, _signature);\r\n    //make sure signer doesn't come back as 0x0\r\n    require(signer != address(0));\r\n    require(_nonce == replayNonce[signer]);\r\n\r\n    //increase the nonce to prevent replay attacks\r\n    replayNonce[signer]++;\r\n\r\n    bountiesContract.changeData(signer,\r\n                _bountyId,\r\n                _issuerId,\r\n                _data);\r\n  }\r\n\r\n  function metaChangeDeadline(\r\n    bytes memory _signature,\r\n    uint _bountyId,\r\n    uint _issuerId,\r\n    uint  _deadline,\r\n    uint256 _nonce)\r\n    public\r\n    {\r\n    bytes32 metaHash = keccak256(abi.encode(address(this),\r\n                                                  \"metaChangeDeadline\",\r\n                                                  _bountyId,\r\n                                                  _issuerId,\r\n                                                  _deadline,\r\n                                                  _nonce));\r\n    address signer = getSigner(metaHash, _signature);\r\n    //make sure signer doesn't come back as 0x0\r\n    require(signer != address(0));\r\n    require(_nonce == replayNonce[signer]);\r\n\r\n    //increase the nonce to prevent replay attacks\r\n    replayNonce[signer]++;\r\n\r\n    bountiesContract.changeDeadline(signer,\r\n                    _bountyId,\r\n                    _issuerId,\r\n                    _deadline);\r\n  }\r\n\r\n  function metaAddIssuers(\r\n    bytes memory _signature,\r\n    uint _bountyId,\r\n    uint _issuerId,\r\n    address payable[] memory _issuers,\r\n    uint256 _nonce)\r\n    public\r\n    {\r\n    bytes32 metaHash = keccak256(abi.encode(address(this),\r\n                                                  \"metaAddIssuers\",\r\n                                                  _bountyId,\r\n                                                  _issuerId,\r\n                                                  _issuers,\r\n                                                  _nonce));\r\n    address signer = getSigner(metaHash, _signature);\r\n    //make sure signer doesn't come back as 0x0\r\n    require(signer != address(0));\r\n    require(_nonce == replayNonce[signer]);\r\n\r\n    //increase the nonce to prevent replay attacks\r\n    replayNonce[signer]++;\r\n\r\n    bountiesContract.addIssuers(signer,\r\n                _bountyId,\r\n                _issuerId,\r\n                _issuers);\r\n  }\r\n\r\n  function metaAddApprovers(\r\n    bytes memory _signature,\r\n    uint _bountyId,\r\n    uint _issuerId,\r\n    address[] memory _approvers,\r\n    uint256 _nonce)\r\n    public\r\n    {\r\n    bytes32 metaHash = keccak256(abi.encode(address(this),\r\n                                                  \"metaAddApprovers\",\r\n                                                  _bountyId,\r\n                                                  _issuerId,\r\n                                                  _approvers,\r\n                                                  _nonce));\r\n    address signer = getSigner(metaHash, _signature);\r\n    //make sure signer doesn't come back as 0x0\r\n    require(signer != address(0));\r\n    require(_nonce == replayNonce[signer]);\r\n\r\n    //increase the nonce to prevent replay attacks\r\n    replayNonce[signer]++;\r\n\r\n    bountiesContract.addApprovers(signer,\r\n                _bountyId,\r\n                _issuerId,\r\n                _approvers);\r\n  }\r\n\r\n  function getSigner(\r\n    bytes32 _hash,\r\n    bytes memory _signature)\r\n    internal\r\n    pure\r\n    returns (address)\r\n  {\r\n    bytes32 r;\r\n    bytes32 s;\r\n    uint8 v;\r\n    if (_signature.length != 65){\r\n      return address(0);\r\n    }\r\n    assembly {\r\n      r := mload(add(_signature, 32))\r\n      s := mload(add(_signature, 64))\r\n      v := byte(0, mload(add(_signature, 96)))\r\n    }\r\n    if (v < 27){\r\n      v += 27;\r\n    }\r\n    if (v != 27 && v != 28){\r\n      return address(0);\r\n    } else {\r\n        return ecrecover(keccak256(abi.encodePacked(\"\\x19Ethereum Signed Message:\\n32\", _hash)), v, r, s );\r\n    }\r\n  }\r\n}\r\n",
  "sourcePath": "C:\\Users\\abhinavanshul\\contracts\\truffle-contracts\\contracts\\bounties\\BountiesMetaTxRelayer.sol",
  "compiler": {
    "name": "solc",
    "version": "0.5.9+commit.e560f70d.Emscripten.clang"
  },
  "schemaVersion": "3.0.23",
  "updatedAt": "2020-06-02T13:56:31.137Z",
  "networkType": "ethereum",
  "devdoc": {
    "methods": {}
  },
  "userdoc": {
    "methods": {}
  }
}