{
  "contractName": "DAOFactory",
  "abi": [
    {
      "constant": true,
      "inputs": [
        {
          "name": "",
          "type": "address"
        },
        {
          "name": "",
          "type": "uint256"
        }
      ],
      "name": "daos",
      "outputs": [
        {
          "name": "",
          "type": "address"
        }
      ],
      "payable": false,
      "stateMutability": "view",
      "type": "function"
    },
    {
      "constant": true,
      "inputs": [],
      "name": "daoCount",
      "outputs": [
        {
          "name": "",
          "type": "uint256"
        }
      ],
      "payable": false,
      "stateMutability": "view",
      "type": "function"
    },
    {
      "inputs": [
        {
          "name": "_tokenAddress",
          "type": "address"
        }
      ],
      "payable": false,
      "stateMutability": "nonpayable",
      "type": "constructor"
    },
    {
      "anonymous": false,
      "inputs": [
        {
          "indexed": false,
          "name": "admin",
          "type": "address"
        }
      ],
      "name": "daoAdded",
      "type": "event"
    },
    {
      "constant": false,
      "inputs": [
        {
          "name": "_admin",
          "type": "address"
        }
      ],
      "name": "newDAO",
      "outputs": [
        {
          "name": "",
          "type": "address"
        }
      ],
      "payable": false,
      "stateMutability": "nonpayable",
      "type": "function"
    },
    {
      "constant": true,
      "inputs": [],
      "name": "getContractAddress",
      "outputs": [
        {
          "name": "",
          "type": "address[]"
        }
      ],
      "payable": false,
      "stateMutability": "view",
      "type": "function"
    },
    {
      "constant": true,
      "inputs": [],
      "name": "getDAOCount",
      "outputs": [
        {
          "name": "",
          "type": "uint256"
        }
      ],
      "payable": false,
      "stateMutability": "view",
      "type": "function"
    }
  ],
  "bytecode": "0x60806040526000805534801561001457600080fd5b5060405161314d38038061314d8339818101604052602081101561003757600080fd5b5051600180546001600160a01b0319166001600160a01b039092169190911790556130e6806100676000396000f3fe608060405234801561001057600080fd5b50600436106100575760003560e01c8063216874441461005c57806332a2c5d01461009e5780633a479fb8146100f6578063bd18993814610110578063d01cf4191461013c575b600080fd5b6100826004803603602081101561007257600080fd5b50356001600160a01b0316610144565b604080516001600160a01b039092168252519081900360200190f35b6100a66102a6565b60408051602080825283518183015283519192839290830191858101910280838360005b838110156100e25781810151838201526020016100ca565b505050509050019250505060405180910390f35b6100fe610311565b60408051918252519081900360200190f35b6100826004803603604081101561012657600080fd5b506001600160a01b038135169060200135610317565b6100fe61034c565b600080826040518060200160405280600160009054906101000a90046001600160a01b03166001600160a01b03166001600160a01b031681525061438060238060236046600a6003600160405161019a90610352565b6001600160a01b038b1681526020808201908b9080838360005b838110156101cc5781810151838201526020016101b4565b505050509050018981526020018881526020018781526020018681526020018581526020018481526020018381526020018281526020019a5050505050505050505050604051809103906000f08015801561022b573d6000803e3d6000fd5b503360008181526002602090815260408083208054600180820183559185528385200180546001600160a01b0319166001600160a01b038816179055835401909255815192835290519293507fbb14e6561111416eda7607c478c09b236c0873cd3699549afe42dd57656b978792918290030190a192915050565b3360009081526002602090815260409182902080548351818402810184019094528084526060939283018282801561030757602002820191906000526020600020905b81546001600160a01b031681526001909101906020018083116102e9575b5050505050905090565b60005490565b6002602052816000526040600020818154811061033057fe5b6000918252602090912001546001600160a01b03169150829050565b60005481565b612d52806103608339019056fe608060405260006009819055600a819055600c805460ff19169055600d553480156200002a57600080fd5b5060405162002d5238038062002d5283398181016040526101408110156200005157600080fd5b50805160408201516060830151608084015160a085015160c086015160e08701516101008801516101208901516000805460ff191660011790559798602001976001600160a01b038a166200010757604080517f08c379a000000000000000000000000000000000000000000000000000000000815260206004820152601160248201527f61646d696e2063616e6e6f742062652030000000000000000000000000000000604482015290519081900360640190fd5b600088116200017757604080517f08c379a000000000000000000000000000000000000000000000000000000000815260206004820152601b60248201527f5f706572696f644475726174696f6e2063616e6e6f7420626520300000000000604482015290519081900360640190fd5b60008711620001e757604080517f08c379a000000000000000000000000000000000000000000000000000000000815260206004820152601f60248201527f5f766f74696e67506572696f644c656e6774682063616e6e6f74206265203000604482015290519081900360640190fd5b670de0b6b3a76400008711156200024a576040517f08c379a000000000000000000000000000000000000000000000000000000000815260040180806020018281038252602181526020018062002d0d6021913960400191505060405180910390fd5b670de0b6b3a7640000861115620002c257604080517f08c379a000000000000000000000000000000000000000000000000000000000815260206004820181905260248201527f5f6772616365506572696f644c656e6774682065786365656473206c696d6974604482015290519081900360640190fd5b600085116200031d576040517f08c379a000000000000000000000000000000000000000000000000000000000815260040180806020018281038252602481526020018062002d2e6024913960400191505060405180910390fd5b60008054610100600160a81b0319166101006001600160a01b038d160217815589906020020151600780546001600160a01b0319166001600160a01b0390921691909117905560005b60018110156200044e5760008a82600181106200037f57fe5b60200201516001600160a01b03161415620003fb57604080517f08c379a000000000000000000000000000000000000000000000000000000000815260206004820152601a60248201527f5f617070726f766564546f6b656e2063616e6e6f742062652030000000000000604482015290519081900360640190fd5b600e8a82600181106200040a57fe5b6020908102919091015182546001808201855560009485529290932090920180546001600160a01b0319166001600160a01b03909316929092179091550162000366565b506040516200045d9062000586565b604051809103906000f0801580156200047a573d6000803e3d6000fd5b50600880546001600160a01b03199081166001600160a01b039384161790915560018a815560028a815560038a815560048a9055600588905542600655604080516080810182526000805461010090819004891680845260208085018981528587018a815260608701868152938652600f8352878620965187548d16908e161787559051868b015551978501805460ff1916981515989098179097555192909401919091558054839004871680825260108552828220805490971617909555600a8490559354845193845293519304909316927f03995a801b13c36325306deef859ef977ce61c6e15a794281bf969d20482522792918290030190a25050505050505050505062000594565b61051880620027f583390190565b61225180620005a46000396000f3fe608060405234801561001057600080fd5b50600436106101e55760003560e01c80638340bbce1161010f578063b2643aab116100a2578063da35c66411610071578063da35c664146106a8578063de292789146106b0578063e63bc62d146106b8578063f851a440146106d5576101e5565b8063b2643aab1461063b578063b470aade14610690578063b9e2bea014610698578063c89039c5146106a0576101e5565b806399653fbe116100de57806399653fbe146105e6578063a3dc38001461060e578063a42afd291461062b578063a44a5e7e14610633576101e5565b80638340bbce1461059c5780638b15a605146105a45780639425a476146105ac5780639746d940146105c9576101e5565b80633b214a741161018757806363858f2d1161015657806363858f2d1461057c5780636537214714610584578063797daf701461058c5780637d5b6c7214610594576101e5565b80633b214a741461043d578063402c17941461045a578063505afd7414610480578063590f940b1461049c576101e5565b806308ae4b0c116101c357806308ae4b0c1461039e5780631dafede0146103f45780631e2362ec1461042d5780633a98ef3914610435576101e5565b8063013cf08b146101ea578063044a0ca814610334578063086146d214610384575b600080fd5b6102076004803603602081101561020057600080fd5b50356106dd565b604051808f6001600160a01b03166001600160a01b031681526020018e6001600160a01b03166001600160a01b031681526020018d6001600160a01b03166001600160a01b031681526020018c81526020018b81526020018a8152602001896001600160a01b03166001600160a01b03168152602001888152602001876001600160a01b03166001600160a01b0316815260200186815260200185815260200184815260200180602001838152602001828103825284818151815260200191508051906020019080838360005b838110156102ec5781810151838201526020016102d4565b50505050905090810190601f1680156103195780820380516001836020036101000a031916815260200191505b509f5050505050505050505050505050505060405180910390f35b6103606004803603604081101561034a57600080fd5b506001600160a01b038135169060200135610840565b6040518082600281111561037057fe5b60ff16815260200191505060405180910390f35b61038c610947565b60408051918252519081900360200190f35b6103c4600480360360208110156103b457600080fd5b50356001600160a01b0316610976565b604080516001600160a01b0390951685526020850193909352901515838301526060830152519081900360800190f35b6104116004803603602081101561040a57600080fd5b50356109ad565b604080516001600160a01b039092168252519081900360200190f35b61038c6109d4565b61038c6109da565b61038c6004803603602081101561045357600080fd5b50356109e0565b6104116004803603602081101561047057600080fd5b50356001600160a01b03166109fe565b610488610a19565b604080519115158252519081900360200190f35b61038c60048036036101008110156104b357600080fd5b6001600160a01b038235811692602081013592604082013592606083013592608081013582169260a08201359260c0830135169190810190610100810160e082013564010000000081111561050757600080fd5b82018360208201111561051957600080fd5b8035906020019184600183028401116401000000008311171561053b57600080fd5b91908080601f016020809104026020016040519081016040528093929190818152602001838380828437600092019190915250929550610a22945050505050565b61038c610b5d565b61038c610b63565b61038c610b69565b61038c610b6f565b61038c610b75565b61038c610b7b565b610488600480360360208110156105c257600080fd5b5035610b81565b61038c600480360360208110156105df57600080fd5b5035610ba8565b61060c600480360360408110156105fc57600080fd5b508035906020013560ff16610ee5565b005b6104886004803603602081101561062457600080fd5b50356112eb565b610411611394565b61038c6113a3565b6106586004803603602081101561065157600080fd5b50356113a9565b604051808260c080838360005b8381101561067d578181015183820152602001610665565b5050505090500191505060405180910390f35b61038c611413565b61038c611419565b61041161141f565b61038c61142e565b61038c611434565b61060c600480360360208110156106ce57600080fd5b503561143a565b610411611736565b60116020528060005260406000206000915090508060000160009054906101000a90046001600160a01b0316908060010160009054906101000a90046001600160a01b0316908060020160009054906101000a90046001600160a01b0316908060030154908060040154908060050154908060060160009054906101000a90046001600160a01b0316908060070154908060080160009054906101000a90046001600160a01b03169080600901549080600a01549080600b01549080600d018054600181600116156101000203166002900480601f0160208091040260200160405190810160405280929190818152602001828054600181600116156101000203166002900480156108305780601f1061080557610100808354040283529160200191610830565b820191906000526020600020905b81548152906001019060200180831161081357829003601f168201915b50505050509080600e015490508e565b6001600160a01b0382166000908152600f602052604081206002015460ff166108a8576040805162461bcd60e51b81526020600482015260156024820152741b595b58995c88191bd95cc81b9bdd08195e1a5cdd605a1b604482015290519081900360640190fd5b60125482106108f8576040805162461bcd60e51b81526020600482015260176024820152761c1c9bdc1bdcd85b08191bd95cc81b9bdd08195e1a5cdd604a1b604482015290519081900360640190fd5b601160006012848154811061090957fe5b6000918252602080832090910154835282810193909352604091820181206001600160a01b0387168252600f0190925290205460ff16905092915050565b60006109706001546109646006544261174a90919063ffffffff16565b9063ffffffff61175f16565b90505b90565b600f6020526000908152604090208054600182015460028301546003909301546001600160a01b0390921692909160ff9091169084565b600e81815481106109ba57fe5b6000918252602090912001546001600160a01b0316905081565b60045481565b600a5481565b601281815481106109ed57fe5b600091825260209091200154905081565b6010602052600090815260409020546001600160a01b031681565b600c5460ff1681565b6000805460ff16610a68576040805162461bcd60e51b815260206004820152601f6024820152600080516020612172833981519152604482015290519081900360640190fd5b6000805460ff19169055670de0b6b3a7640000881115610acf576040805162461bcd60e51b815260206004820152601960248201527f746f6f206d616e79207368617265732072657175657374656400000000000000604482015290519081900360640190fd5b6001600160a01b038916610b22576040805162461bcd60e51b815260206004820152601560248201527406170706c6963616e742063616e6e6f74206265203605c1b604482015290519081900360640190fd5b610b2a611f66565b610b3b8a8a8a8a8a8a8a8a89611781565b5050600954600019016000805460ff1916600117905598975050505050505050565b60035481565b600b5481565b60125490565b60065481565b60025481565b60055481565b6000610b9860025483611a4290919063ffffffff16565b610ba0610947565b101592915050565b6000805460ff16610bee576040805162461bcd60e51b815260206004820152601f6024820152600080516020612172833981519152604482015290519081900360640190fd5b6000805460ff19168155338152601060209081526040808320546001600160a01b03168352600f909152902060010154610c60576040805162461bcd60e51b815260206004820152600e60248201526d6e6f7420612064656c656761746560901b604482015290519081900360640190fd5b600082815260116020526040902060018101546001600160a01b0316610ccd576040805162461bcd60e51b815260206004820181905260248201527f70726f706f73616c206d7573742068617665206265656e2070726f706f736564604482015290519081900360640190fd5b600c81015460ff1615610d115760405162461bcd60e51b81526004018080602001828103825260238152602001806121b56023913960400191505060405180910390fd5b600c8101546301000000900460ff1615610d72576040805162461bcd60e51b815260206004820152601b60248201527f70726f706f73616c20686173206265656e2063616e63656c6c65640000000000604482015290519081900360640190fd5b6000610de76001610ddb610d84610947565b60125415610dd35760128054601191600091610da790600163ffffffff61174a16565b81548110610db157fe5b9060005260206000200154815260200190815260200160002060090154610dd6565b60005b611a5b565b9063ffffffff611a4216565b60098301819055336000818152601060205260408120546002860180546001600160a01b0319166001600160a01b039092169182179055600c8601805460ff19166001908117909155601280548083018255938190527fbb8a6a4669ba250d26cd7a459eca9d215f8307e33aebe50379bc5a3617ec34449093018990559154939450928392917f2a383a979381335e3eb401ac01dd8083e024ff0256bf5338456ffc0063390bbd918991610e9b919061174a565b604080519283526020830191909152818101879052519081900360600190a3601254610ece90600163ffffffff61174a16565b93505050506000805460ff19166001179055919050565b60005460ff16610f2a576040805162461bcd60e51b815260206004820152601f6024820152600080516020612172833981519152604482015290519081900360640190fd5b6000805460ff19168155338152601060209081526040808320546001600160a01b03168352600f909152902060010154610f9c576040805162461bcd60e51b815260206004820152600e60248201526d6e6f7420612064656c656761746560901b604482015290519081900360640190fd5b336000908152601060209081526040808320546001600160a01b0316808452600f9092529091206012548410611013576040805162461bcd60e51b81526020600482015260176024820152761c1c9bdc1bdcd85b08191bd95cc81b9bdd08195e1a5cdd604a1b604482015290519081900360640190fd5b6000601160006012878154811061102657fe5b90600052602060002001548152602001908152602001600020905060038460ff161061108f576040805162461bcd60e51b81526020600482015260136024820152726d757374206265206c657373207468616e203360681b604482015290519081900360640190fd5b60008460ff1660028111156110a057fe5b90506110af8260090154610b81565b156110eb5760405162461bcd60e51b81526004018080602001828103825260228152602001806121d86022913960400191505060405180910390fd5b6001600160a01b0384166000908152600f8301602052604081205460ff16600281111561111457fe5b14611166576040805162461bcd60e51b815260206004820152601860248201527f6d656d6265722068617320616c726561647920766f7465640000000000000000604482015290519081900360640190fd5b600181600281111561117457fe5b148061118b5750600281600281111561118957fe5b145b6111dc576040805162461bcd60e51b815260206004820152601d60248201527f766f7465206d7573742062652065697468657220596573206f72204e6f000000604482015290519081900360640190fd5b6001600160a01b0384166000908152600f830160205260409020805482919060ff1916600183600281111561120d57fe5b0217905550600181600281111561122057fe5b141561125d576001830154600a83015461123f9163ffffffff611a4216565b600a830155600383015486111561125857600383018690555b611290565b600281600281111561126b57fe5b1415611290576001830154600b83015461128a9163ffffffff611a4216565b600b8301555b6040805160ff8716815290516001600160a01b03861691339189917f29bf0061f2faa9daa482f061b116195432d435536d8af4ae6b3c5dd78223679b919081900360200190a450506000805460ff1916600117905550505050565b601254600090821061133e576040805162461bcd60e51b81526020600482015260176024820152761c1c9bdc1bdcd85b08191bd95cc81b9bdd08195e1a5cdd604a1b604482015290519081900360640190fd5b601160006012848154811061134f57fe5b90600052602060002001548152602001908152602001600020600c0160016006811061137757fe5b602081049091015460ff601f9092166101000a9004169050919050565b6008546001600160a01b031681565b600d5481565b6113b1611f66565b600082815260116020526040808220815160c081019283905292600c909101916006918390855b825461010083900a900460ff1615158152602060019283018181049485019490930390920291018084116113d8575094979650505050505050565b60015481565b60095490565b6007546001600160a01b031681565b60095481565b600b5490565b60005460ff1661147f576040805162461bcd60e51b815260206004820152601f6024820152600080516020612172833981519152604482015290519081900360640190fd5b6000805460ff1916905561149281611a72565b6000601282815481106114a157fe5b600091825260208083209190910154808352601190915260408220600c8101805461ff00191661010017905590925090806114db85611d83565b91509150670de0b6b3a76400006115018460030154600a54611a4290919063ffffffff16565b111561150c57600091505b81156116e3576001600b55600c8301805462ff000019166201000017905582546001600160a01b03166000908152600f602052604090206002015460ff16156115a257600383015483546001600160a01b03166000908152600f60205260409020600101546115809163ffffffff611a4216565b83546001600160a01b03166000908152600f60205260409020600101556116c4565b82546001600160a01b039081166000908152601060209081526040808320549093168252600f9052206002015460ff16156116265782546001600160a01b0390811660009081526010602090815260408083205490931680835283832080546001600160a01b03199081168317909155600f90925292909120805490911690911790555b6040805160808101825284546001600160a01b0390811680835260038088015460208086019182526001868801818152600060608901818152968152600f8452898120985189549089166001600160a01b0319918216178a559451928901929092555160028801805491151560ff19909216919091179055935195909201949094558754909216808252601090925292909220805490911690911790555b6003830154600a546116db9163ffffffff611a4216565b600a556116e9565b6002600b555b6040805183151581529051859187917f86f74240ecee9e4230d26ff92e17fee978460d9c0f78f5c88b2864c9e7a494279181900360200190a350506000805460ff19166001179055505050565b60005461010090046001600160a01b031681565b60008282111561175957600080fd5b50900390565b600080821161176d57600080fd5b600082848161177857fe5b04949350505050565b611789611f84565b604051806101e001604052808b6001600160a01b03168152602001336001600160a01b0316815260200160006001600160a01b031681526020018a8152602001898152602001888152602001876001600160a01b03168152602001868152602001856001600160a01b03168152602001600081526020016000815260200160008152602001838152602001848152602001600081525090508060116000600954815260200190815260200160002060008201518160000160006101000a8154816001600160a01b0302191690836001600160a01b0316021790555060208201518160010160006101000a8154816001600160a01b0302191690836001600160a01b0316021790555060408201518160020160006101000a8154816001600160a01b0302191690836001600160a01b03160217905550606082015181600301556080820151816004015560a0820151816005015560c08201518160060160006101000a8154816001600160a01b0302191690836001600160a01b0316021790555060e082015181600701556101008201518160080160006101000a8154816001600160a01b0302191690836001600160a01b03160217905550610120820151816009015561014082015181600a015561016082015181600b015561018082015181600c0190600661197a92919061202d565b506101a0820151805161199791600d8401916020909101906120bf565b506101c09190910151600e90910155336000818152601060209081526040918290205460095483519081529182018d90528183018c9052606082018b90526001600160a01b038a8116608084015260a083018a905288811660c0840152925190831693928e1692849290917f1facc413faf060d5cc5c8bc12d8fe29e5c530eb98e2475c76733ec749787a7509181900360e00190a45050600980546001019055505050505050505050565b600082820183811015611a5457600080fd5b9392505050565b600081831015611a6b5781611a54565b5090919050565b6012548110611ac2576040805162461bcd60e51b81526020600482015260176024820152761c1c9bdc1bdcd85b08191bd95cc81b9bdd08195e1a5cdd604a1b604482015290519081900360640190fd5b611aca611f84565b6011600060128481548110611adb57fe5b6000918252602080832091909101548352828101939093526040918201812082516101e08101845281546001600160a01b039081168252600183015481169582019590955260028201548516818501526003820154606082015260048201546080820152600582015460a0820152600680830154861660c080840191909152600784015460e084015260088401549096166101008301526009830154610120830152600a830154610140830152600b83015461016083015284519586019485905290949193610180860193600c86019291908390855b825461010083900a900460ff161515815260206001928301818104948501949093039092029101808411611bb157505050928452505050600d8201805460408051602060026001851615610100026000190190941693909304601f8101849004840282018401909252818152938201939291830182828015611c745780601f10611c4957610100808354040283529160200191611c74565b820191906000526020600020905b815481529060010190602001808311611c5757829003601f168201915b50505050508152602001600e820154815250509050806101800151600160068110611c9b57fe5b602002015115611cdc5760405162461bcd60e51b81526004018080602001828103825260238152602001806121fa6023913960400191505060405180910390fd5b811580611d445750601160006012611cfb85600163ffffffff61174a16565b81548110611d0557fe5b90600052602060002001548152602001908152602001600020600c01600160068110611d2d57fe5b602081049091015460ff601f9092166101000a9004165b611d7f5760405162461bcd60e51b81526004018080602001828103825260238152602001806121926023913960400191505060405180910390fd5b5050565b600080611d8e611f84565b6011600060128681548110611d9f57fe5b6000918252602080832091909101548352828101939093526040918201812082516101e08101845281546001600160a01b039081168252600183015481169582019590955260028201548516818501526003820154606082015260048201546080820152600582015460a0820152600680830154861660c080840191909152600784015460e084015260088401549096166101008301526009830154610120830152600a830154610140830152600b83015461016083015284519586019485905290949193610180860193600c86019291908390855b825461010083900a900460ff161515815260206001928301818104948501949093039092029101808411611e7557505050928452505050600d8201805460408051602060026001851615610100026000190190941693909304601f8101849004840282018401909252818152938201939291830182828015611f385780601f10611f0d57610100808354040283529160200191611f38565b820191906000526020600020905b815481529060010190602001808311611f1b57829003601f168201915b5050509183525050600e91909101546020909101526101608101516101409091015111946000945092505050565b6040518060c001604052806006906020820280388339509192915050565b60405180610280016040528060006001600160a01b0316815260200160006001600160a01b0316815260200160006001600160a01b0316815260200160008152602001600081526020016000815260200160006001600160a01b031681526020016000815260200160006001600160a01b03168152602001600081526020016000815260200160008152602001612019611f66565b815260200160608152602001600081525090565b6001830191839082156120af5791602002820160005b8382111561208057835183826101000a81548160ff0219169083151502179055509260200192600101602081600001049283019260010302612043565b80156120ad5782816101000a81549060ff0219169055600101602081600001049283019260010302612080565b505b506120bb929150612139565b5090565b828054600181600116156101000203166002900490600052602060002090601f016020900481019282601f1061210057805160ff191683800117855561212d565b8280016001018555821561212d579182015b8281111561212d578251825591602001919060010190612112565b506120bb929150612157565b61097391905b808211156120bb57805460ff1916815560010161213f565b61097391905b808211156120bb576000815560010161215d56fe5265656e7472616e637947756172643a207265656e7472616e742063616c6c0070726576696f75732070726f706f73616c206d7573742062652070726f63657373656470726f706f73616c2068617320616c7265616479206265656e2073706f6e736f72656470726f706f73616c20766f74696e6720706572696f6420686173206578706972656470726f706f73616c2068617320616c7265616479206265656e2070726f636573736564a265627a7a723058204aadd5a65785cc61785723b74e34bd108bbb4ad24956b9ecd95015be2e7f326b64736f6c63430005090032608060405234801561001057600080fd5b50600080546001600160a01b031916331790556104e6806100326000396000f3fe608060405234801561001057600080fd5b50600436106100415760003560e01c806301e3366714610046578063732c8f57146100905780638da5cb5b1461014f575b600080fd5b61007c6004803603606081101561005c57600080fd5b506001600160a01b03813581169160208101359091169060400135610173565b604080519115158252519081900360200190f35b61007c600480360360808110156100a657600080fd5b6001600160a01b0382351691602081013591604082013591908101906080810160608201356401000000008111156100dd57600080fd5b8201836020820111156100ef57600080fd5b8035906020019184602083028401116401000000008311171561011157600080fd5b91908080602002602001604051908101604052809392919081815260200183836020028082843760009201919091525092955061026c945050505050565b61015761044e565b604080516001600160a01b039092168252519081900360200190f35b600080546001600160a01b0316331461018b57600080fd5b836001600160a01b0316836001600160a01b03167f2717ead6b9200dd235aad468c9809ea400fe33ac69b5bfaa6d3e90fc922b6398846040518082815260200191505060405180910390a3836001600160a01b031663a9059cbb84846040518363ffffffff1660e01b815260040180836001600160a01b03166001600160a01b0316815260200182815260200192505050602060405180830381600087803b15801561023657600080fd5b505af115801561024a573d6000803e3d6000fd5b505050506040513d602081101561026057600080fd5b505190505b9392505050565b600080546001600160a01b0316331461028457600080fd5b60005b82518110156104425760006103318483815181106102a157fe5b60200260200101516001600160a01b03166370a08231306040518263ffffffff1660e01b815260040180826001600160a01b03166001600160a01b0316815260200191505060206040518083038186803b1580156102fe57600080fd5b505afa158015610312573d6000803e3d6000fd5b505050506040513d602081101561032857600080fd5b5051878761045d565b905083828151811061033f57fe5b60200260200101516001600160a01b0316876001600160a01b03167f2717ead6b9200dd235aad468c9809ea400fe33ac69b5bfaa6d3e90fc922b6398836040518082815260200191505060405180910390a383828151811061039d57fe5b60200260200101516001600160a01b031663a9059cbb88836040518363ffffffff1660e01b815260040180836001600160a01b03166001600160a01b0316815260200182815260200192505050602060405180830381600087803b15801561040457600080fd5b505af1158015610418573d6000803e3d6000fd5b505050506040513d602081101561042e57600080fd5b505161043957600080fd5b50600101610287565b50600195945050505050565b6000546001600160a01b031681565b60008161046957600080fd5b8361047657506000610265565b8383028385828161048357fe5b04141561049c5782818161049357fe5b04915050610265565b838386816104a657fe5b04029594505050505056fea265627a7a72305820600a90e68081feae486f77ec58352ebe4f959e2362fac128a8d418122da6121464736f6c634300050900325f766f74696e67506572696f644c656e6774682065786365656473206c696d69745f656d657267656e637950726f63657373696e67576169742063616e6e6f742062652030a265627a7a7230582079f1b5475a4ba4a4bde5586d1a3a1ca470c9023ac8016950766732b9eca2ee9b64736f6c63430005090032",
  "source": "pragma solidity >=0.5.0 < 0.6.0;\r\nimport './Governance.sol';\r\n\r\ncontract DAOFactory {\r\n\r\n  uint public daoCount = 0;\r\n  address tokenAddress;\r\n  mapping(address => address[]) public daos;\r\n\r\n  constructor(address _tokenAddress) public {\r\n\r\n    tokenAddress = _tokenAddress;\r\n\r\n  }\r\n\r\n  event daoAdded (\r\n        address admin\r\n\r\n  );\r\n\r\n  function newDAO(address _admin) public returns (address) {\r\n\r\n    Governance dao = new Governance(_admin, [tokenAddress], 17280, 35, 35, 35, 70, 10, 3, 1);\r\n\r\n    daos[msg.sender].push(address(dao));\r\n    daoCount += 1;\r\n\r\n    emit daoAdded(msg.sender);\r\n\r\n    return address(dao);\r\n  }\r\n\r\n  function getContractAddress() public view returns (address[] memory) {\r\n    return daos[msg.sender];\r\n  }\r\n\r\n  function getDAOCount() public view returns (uint) {\r\n    return daoCount;\r\n  }\r\n}\r\n",
  "sourcePath": "C:\\Users\\abhinavanshul\\contracts\\truffle-contracts\\contracts\\dao\\DAOFactory.sol",
  "compiler": {
    "name": "solc",
    "version": "0.5.9+commit.e560f70d.Emscripten.clang"
  },
  "schemaVersion": "3.0.23",
  "updatedAt": "2020-05-25T13:31:49.926Z",
  "devdoc": {
    "methods": {}
  },
  "userdoc": {
    "methods": {}
  }
}