{
  "contractName": "ERC721BasicTokenMock",
  "abi": [
    {
      "constant": true,
      "inputs": [
        {
          "name": "_interfaceId",
          "type": "bytes4"
        }
      ],
      "name": "supportsInterface",
      "outputs": [
        {
          "name": "",
          "type": "bool"
        }
      ],
      "payable": false,
      "stateMutability": "view",
      "type": "function"
    },
    {
      "constant": true,
      "inputs": [
        {
          "name": "_tokenId",
          "type": "uint256"
        }
      ],
      "name": "getApproved",
      "outputs": [
        {
          "name": "",
          "type": "address"
        }
      ],
      "payable": false,
      "stateMutability": "view",
      "type": "function"
    },
    {
      "constant": false,
      "inputs": [
        {
          "name": "_to",
          "type": "address"
        },
        {
          "name": "_tokenId",
          "type": "uint256"
        }
      ],
      "name": "approve",
      "outputs": [],
      "payable": false,
      "stateMutability": "nonpayable",
      "type": "function"
    },
    {
      "constant": true,
      "inputs": [],
      "name": "InterfaceId_ERC165",
      "outputs": [
        {
          "name": "",
          "type": "bytes4"
        }
      ],
      "payable": false,
      "stateMutability": "view",
      "type": "function"
    },
    {
      "constant": false,
      "inputs": [
        {
          "name": "_from",
          "type": "address"
        },
        {
          "name": "_to",
          "type": "address"
        },
        {
          "name": "_tokenId",
          "type": "uint256"
        }
      ],
      "name": "transferFrom",
      "outputs": [],
      "payable": false,
      "stateMutability": "nonpayable",
      "type": "function"
    },
    {
      "constant": false,
      "inputs": [
        {
          "name": "_from",
          "type": "address"
        },
        {
          "name": "_to",
          "type": "address"
        },
        {
          "name": "_tokenId",
          "type": "uint256"
        }
      ],
      "name": "safeTransferFrom",
      "outputs": [],
      "payable": false,
      "stateMutability": "nonpayable",
      "type": "function"
    },
    {
      "constant": true,
      "inputs": [
        {
          "name": "_tokenId",
          "type": "uint256"
        }
      ],
      "name": "exists",
      "outputs": [
        {
          "name": "",
          "type": "bool"
        }
      ],
      "payable": false,
      "stateMutability": "view",
      "type": "function"
    },
    {
      "constant": true,
      "inputs": [
        {
          "name": "_tokenId",
          "type": "uint256"
        }
      ],
      "name": "ownerOf",
      "outputs": [
        {
          "name": "",
          "type": "address"
        }
      ],
      "payable": false,
      "stateMutability": "view",
      "type": "function"
    },
    {
      "constant": true,
      "inputs": [
        {
          "name": "_owner",
          "type": "address"
        }
      ],
      "name": "balanceOf",
      "outputs": [
        {
          "name": "",
          "type": "uint256"
        }
      ],
      "payable": false,
      "stateMutability": "view",
      "type": "function"
    },
    {
      "constant": false,
      "inputs": [
        {
          "name": "_to",
          "type": "address"
        },
        {
          "name": "_approved",
          "type": "bool"
        }
      ],
      "name": "setApprovalForAll",
      "outputs": [],
      "payable": false,
      "stateMutability": "nonpayable",
      "type": "function"
    },
    {
      "constant": false,
      "inputs": [
        {
          "name": "_from",
          "type": "address"
        },
        {
          "name": "_to",
          "type": "address"
        },
        {
          "name": "_tokenId",
          "type": "uint256"
        },
        {
          "name": "_data",
          "type": "bytes"
        }
      ],
      "name": "safeTransferFrom",
      "outputs": [],
      "payable": false,
      "stateMutability": "nonpayable",
      "type": "function"
    },
    {
      "constant": true,
      "inputs": [],
      "name": "testint",
      "outputs": [
        {
          "name": "",
          "type": "uint256"
        }
      ],
      "payable": false,
      "stateMutability": "view",
      "type": "function"
    },
    {
      "constant": true,
      "inputs": [
        {
          "name": "_owner",
          "type": "address"
        },
        {
          "name": "_operator",
          "type": "address"
        }
      ],
      "name": "isApprovedForAll",
      "outputs": [
        {
          "name": "",
          "type": "bool"
        }
      ],
      "payable": false,
      "stateMutability": "view",
      "type": "function"
    },
    {
      "anonymous": false,
      "inputs": [
        {
          "indexed": false,
          "name": "_from",
          "type": "address"
        },
        {
          "indexed": false,
          "name": "_to",
          "type": "address"
        },
        {
          "indexed": false,
          "name": "_tokenId",
          "type": "uint256"
        }
      ],
      "name": "Transfer",
      "type": "event"
    },
    {
      "anonymous": false,
      "inputs": [
        {
          "indexed": false,
          "name": "_owner",
          "type": "address"
        },
        {
          "indexed": false,
          "name": "_approved",
          "type": "address"
        },
        {
          "indexed": false,
          "name": "_tokenId",
          "type": "uint256"
        }
      ],
      "name": "Approval",
      "type": "event"
    },
    {
      "anonymous": false,
      "inputs": [
        {
          "indexed": false,
          "name": "_owner",
          "type": "address"
        },
        {
          "indexed": false,
          "name": "_operator",
          "type": "address"
        },
        {
          "indexed": false,
          "name": "_approved",
          "type": "bool"
        }
      ],
      "name": "ApprovalForAll",
      "type": "event"
    },
    {
      "constant": false,
      "inputs": [
        {
          "name": "_to",
          "type": "address"
        },
        {
          "name": "_tokenId",
          "type": "uint256"
        }
      ],
      "name": "mint",
      "outputs": [],
      "payable": false,
      "stateMutability": "nonpayable",
      "type": "function"
    },
    {
      "constant": false,
      "inputs": [
        {
          "name": "_tokenId",
          "type": "uint256"
        }
      ],
      "name": "burn",
      "outputs": [],
      "payable": false,
      "stateMutability": "nonpayable",
      "type": "function"
    }
  ],
  "bytecode": "0x60806040526100367f01ffc9a7000000000000000000000000000000000000000000000000000000006001600160e01b0361009f16565b6100687f80ac58cd000000000000000000000000000000000000000000000000000000006001600160e01b0361009f16565b61009a7f4f558e79000000000000000000000000000000000000000000000000000000006001600160e01b0361009f16565b61010b565b7fffffffff0000000000000000000000000000000000000000000000000000000080821614156100ce57600080fd5b7fffffffff00000000000000000000000000000000000000000000000000000000166000908152602081905260409020805460ff19166001179055565b610bb78061011a6000396000f3fe608060405234801561001057600080fd5b50600436106100f55760003560e01c806342966c6811610097578063a22cb46511610066578063a22cb465146102e8578063b88d4fde14610316578063e701c464146103dc578063e985e9c5146103e4576100f5565b806342966c68146102595780634f558e79146102765780636352211e1461029357806370a08231146102b0576100f5565b806319fa8f50116100d357806319fa8f501461019c57806323b872dd146101c157806340c10f19146101f757806342842e0e14610223576100f5565b806301ffc9a7146100fa578063081812fc14610135578063095ea7b31461016e575b600080fd5b6101216004803603602081101561011057600080fd5b50356001600160e01b031916610412565b604080519115158252519081900360200190f35b6101526004803603602081101561014b57600080fd5b5035610431565b604080516001600160a01b039092168252519081900360200190f35b61019a6004803603604081101561018457600080fd5b506001600160a01b03813516906020013561044c565b005b6101a4610512565b604080516001600160e01b03199092168252519081900360200190f35b61019a600480360360608110156101d757600080fd5b506001600160a01b0381358116916020810135909116906040013561051d565b61019a6004803603604081101561020d57600080fd5b506001600160a01b0381351690602001356105c5565b61019a6004803603606081101561023957600080fd5b506001600160a01b038135811691602081013590911690604001356105d3565b61019a6004803603602081101561026f57600080fd5b5035610608565b6101216004803603602081101561028c57600080fd5b503561061d565b610152600480360360208110156102a957600080fd5b503561063a565b6102d6600480360360208110156102c657600080fd5b50356001600160a01b0316610662565b60408051918252519081900360200190f35b61019a600480360360408110156102fe57600080fd5b506001600160a01b0381351690602001351515610693565b61019a6004803603608081101561032c57600080fd5b6001600160a01b0382358116926020810135909116916040820135919081019060808101606082013564010000000081111561036757600080fd5b82018360208201111561037957600080fd5b8035906020019184600183028401116401000000008311171561039b57600080fd5b91908080601f01602080910402602001604051908101604052809392919081815260200183838082843760009201919091525092955061071e945050505050565b6102d6610759565b610121600480360360408110156103fa57600080fd5b506001600160a01b038135811691602001351661075f565b6001600160e01b03191660009081526020819052604090205460ff1690565b6000908152600260205260409020546001600160a01b031690565b60006104578261063a565b9050806001600160a01b0316836001600160a01b0316141561047857600080fd5b336001600160a01b03821614806104945750610494813361075f565b61049d57600080fd5b60008281526002602090815260409182902080546001600160a01b038088166001600160a01b03199092168217909255835191851682529181019190915280820184905290517f8c5be1e5ebec7d5bd14f71427d1e84f3dd0314c0f7b2291e5b200ac8c7c3b9259181900360600190a1505050565b6301ffc9a760e01b81565b80610528338261078d565b61053157600080fd5b6001600160a01b03841661054457600080fd5b6001600160a01b03831661055757600080fd5b61056184836107ec565b61056b848361084e565b61057583836108d7565b604080516001600160a01b0380871682528516602082015280820184905290517fddf252ad1be2c89b69c2b068fc378daa952ba7f163c4a11628f55a4df523b3ef9181900360600190a150505050565b6105cf828261095a565b5050565b806105de338261078d565b6105e757600080fd5b6106028484846040518060200160405280600081525061071e565b50505050565b61061a6106148261063a565b826109c4565b50565b6000908152600160205260409020546001600160a01b0316151590565b6000818152600160205260408120546001600160a01b03168061065c57600080fd5b92915050565b60006001600160a01b03821661067757600080fd5b506001600160a01b031660009081526003602052604090205490565b6001600160a01b0382163314156106a957600080fd5b3360008181526004602090815260408083206001600160a01b03871680855290835292819020805486151560ff19909116811790915581519485529184019290925282820152517f17307eab39ab6107e8899845ad3d59bd9653f200f220920489ca2b5937696c319181900360600190a15050565b81610729338261078d565b61073257600080fd5b61073d85858561051d565b61074985858585610a25565b61075257600080fd5b5050505050565b60055481565b6001600160a01b03918216600090815260046020908152604080832093909416825291909152205460ff1690565b6000806107998361063a565b9050806001600160a01b0316846001600160a01b031614806107d45750836001600160a01b03166107c984610431565b6001600160a01b0316145b806107e457506107e4818561075f565b949350505050565b816001600160a01b03166107ff8261063a565b6001600160a01b03161461081257600080fd5b6000818152600260205260409020546001600160a01b0316156105cf57600090815260026020526040902080546001600160a01b031916905550565b816001600160a01b03166108618261063a565b6001600160a01b03161461087457600080fd5b6001600160a01b03821660009081526003602052604090205461089e90600163ffffffff610b4e16565b6001600160a01b0390921660009081526003602090815260408083209490945591815260019091522080546001600160a01b0319169055565b6000818152600160205260409020546001600160a01b0316156108f957600080fd5b600081815260016020818152604080842080546001600160a01b0319166001600160a01b038816908117909155845260039091529091205461093a91610b63565b6001600160a01b0390921660009081526003602052604090209190915550565b6001600160a01b03821661096d57600080fd5b61097782826108d7565b60408051600081526001600160a01b038416602082015280820183905290517fddf252ad1be2c89b69c2b068fc378daa952ba7f163c4a11628f55a4df523b3ef9181900360600190a15050565b6109ce82826107ec565b6109d8828261084e565b604080516001600160a01b03841681526000602082015280820183905290517fddf252ad1be2c89b69c2b068fc378daa952ba7f163c4a11628f55a4df523b3ef9181900360600190a15050565b6000610a39846001600160a01b0316610b7c565b610a45575060016107e4565b60405163785cf2dd60e11b81526001600160a01b0386811660048301908152602483018690526060604484019081528551606485015285516000949389169363f0b9e5ba938b938a938a936084019060208501908083838d5b83811015610ab6578181015183820152602001610a9e565b50505050905090810190601f168015610ae35780820380516001836020036101000a031916815260200191505b50945050505050602060405180830381600087803b158015610b0457600080fd5b505af1158015610b18573d6000803e3d6000fd5b505050506040513d6020811015610b2e57600080fd5b50516001600160e01b03191663785cf2dd60e11b14915050949350505050565b600082821115610b5d57600080fd5b50900390565b600082820183811015610b7557600080fd5b9392505050565b3b15159056fea265627a7a72305820f2d7895c160c1b744d766fce345dc3b0176d1fd852d183f00566d42e896bb00864736f6c63430005090032",
  "source": "pragma solidity >=0.5.0 < 0.6.0;\r\nimport '../../dao/oz/SafeMath.sol';\r\n\r\n/**\r\n * @title SafeMath\r\n * @dev Math operations with safety checks that throw on error\r\n */\r\n//library SafeMath {\r\n//\r\n//  /**\r\n//  * @dev Multiplies two numbers, throws on overflow.\r\n//  */\r\n//  function mul(uint256 a, uint256 b) internal pure returns (uint256 c) {\r\n//    // Gas optimization: this is cheaper than asserting 'a' not being zero, but the\r\n//    // benefit is lost if 'b' is also tested.\r\n//    // See: https://github.com/OpenZeppelin/openzeppelin-solidity/pull/522\r\n//    if (a == 0) {\r\n//      return 0;\r\n//    }\r\n//\r\n//    c = a * b;\r\n//    assert(c / a == b);\r\n//    return c;\r\n//  }\r\n//\r\n//  /**\r\n//  * @dev Integer division of two numbers, truncating the quotient.\r\n//  */\r\n//  function div(uint256 a, uint256 b) internal pure returns (uint256) {\r\n//    // assert(b > 0); // Solidity automatically throws when dividing by 0\r\n//    // uint256 c = a / b;\r\n//    // assert(a == b * c + a % b); // There is no case in which this doesn't hold\r\n//    return a / b;\r\n//  }\r\n//\r\n//  /**\r\n//  * @dev Subtracts two numbers, throws on overflow (i.e. if subtrahend is greater than minuend).\r\n//  */\r\n//  function sub(uint256 a, uint256 b) internal pure returns (uint256) {\r\n//    assert(b <= a);\r\n//    return a - b;\r\n//  }\r\n//\r\n//  /**\r\n//  * @dev Adds two numbers, throws on overflow.\r\n//  */\r\n//  function add(uint256 a, uint256 b) internal pure returns (uint256 c) {\r\n//    c = a + b;\r\n//    assert(c >= a);\r\n//    return c;\r\n//  }\r\n//}\r\n\r\n/**\r\n * Utility library of inline functions on addresses\r\n */\r\nlibrary AddressUtils {\r\n\r\n  /**\r\n   * Returns whether the target address is a contract\r\n   * @dev This function will return false if invoked during the constructor of a contract,\r\n   * as the code is not actually created until after the constructor finishes.\r\n   * @param addr address to check\r\n   * @return whether the target address is a contract\r\n   */\r\n  function isContract(address addr) internal view returns (bool) {\r\n    uint256 size;\r\n    // XXX Currently there is no better way to check if there is a contract in an address\r\n    // than to check the size of the code at that address.\r\n    // See https://ethereum.stackexchange.com/a/14016/36603\r\n    // for more details about how this works.\r\n    // TODO Check this again before the Serenity release, because all addresses will be\r\n    // contracts then.\r\n    // solium-disable-next-line security/no-inline-assembly\r\n    assembly { size := extcodesize(addr) }\r\n    return size > 0;\r\n  }\r\n\r\n}\r\n\r\n/**\r\n * @title ERC165\r\n * @dev https://github.com/ethereum/EIPs/blob/master/EIPS/eip-165.md\r\n */\r\ninterface ERC165 {\r\n\r\n  /**\r\n   * @notice Query if a contract implements an interface\r\n   * @param _interfaceId The interface identifier, as specified in ERC-165\r\n   * @dev Interface identification is specified in ERC-165. This function\r\n   * uses less than 30,000 gas.\r\n   */\r\n  function supportsInterface(bytes4 _interfaceId)\r\n    external\r\n    view\r\n    returns (bool);\r\n}\r\n\r\n\r\n/**\r\n * @title SupportsInterfaceWithLookup\r\n * @author Matt Condon (@shrugs)\r\n * @dev Implements ERC165 using a lookup table.\r\n */\r\ncontract SupportsInterfaceWithLookup is ERC165 {\r\n  bytes4 public constant InterfaceId_ERC165 = 0x01ffc9a7;\r\n  /**\r\n   * 0x01ffc9a7 ===\r\n   *   bytes4(keccak256('supportsInterface(bytes4)'))\r\n   */\r\n\r\n  /**\r\n   * @dev a mapping of interface id to whether or not it's supported\r\n   */\r\n  mapping(bytes4 => bool) internal supportedInterfaces;\r\n\r\n  /**\r\n   * @dev A contract implementing SupportsInterfaceWithLookup\r\n   * implement ERC165 itself\r\n   */\r\n  constructor()\r\n    public\r\n  {\r\n    _registerInterface(InterfaceId_ERC165);\r\n  }\r\n\r\n  /**\r\n   * @dev implement supportsInterface(bytes4) using a lookup table\r\n   */\r\n  function supportsInterface(bytes4 _interfaceId)\r\n    external\r\n    view\r\n    returns (bool)\r\n  {\r\n    return supportedInterfaces[_interfaceId];\r\n  }\r\n\r\n  /**\r\n   * @dev private method for registering an interface\r\n   */\r\n  function _registerInterface(bytes4 _interfaceId)\r\n    internal\r\n  {\r\n    require(_interfaceId != 0xffffffff);\r\n    supportedInterfaces[_interfaceId] = true;\r\n  }\r\n}\r\n\r\n/**\r\n * @title ERC721 token receiver interface\r\n * @dev Interface for any contract that wants to support safeTransfers\r\n * from ERC721 asset contracts.\r\n */\r\ncontract ERC721Receiver {\r\n  /**\r\n   * @dev Magic value to be returned upon successful reception of an NFT\r\n   *  Equals to `bytes4(keccak256(\"onERC721Received(address,uint256,bytes)\"))`,\r\n   *  which can be also obtained as `ERC721Receiver(0).onERC721Received.selector`\r\n   */\r\n  bytes4 internal constant ERC721_RECEIVED = 0xf0b9e5ba;\r\n\r\n  /**\r\n   * @notice Handle the receipt of an NFT\r\n   * @dev The ERC721 smart contract calls this function on the recipient\r\n   * after a `safetransfer`. This function MAY throw to revert and reject the\r\n   * transfer. This function MUST use 50,000 gas or less. Return of other\r\n   * than the magic value MUST result in the transaction being reverted.\r\n   * Note: the contract address is always the message sender.\r\n   * @param _from The sending address\r\n   * @param _tokenId The NFT identifier which is being transfered\r\n   * @param _data Additional data with no specified format\r\n   * @return `bytes4(keccak256(\"onERC721Received(address,uint256,bytes)\"))`\r\n   */\r\n  function onERC721Received(\r\n    address _from,\r\n    uint256 _tokenId,\r\n    bytes memory _data\r\n  )\r\n    public\r\n    returns(bytes4);\r\n}\r\n\r\n/**\r\n * @title ERC721 Non-Fungible Token Standard basic interface\r\n * @dev see https://github.com/ethereum/EIPs/blob/master/EIPS/eip-721.md\r\n */\r\ncontract ERC721Basic is ERC165 {\r\n  event Transfer(\r\n    address  _from,\r\n    address  _to,\r\n    uint256  _tokenId\r\n  );\r\n  event Approval(\r\n    address  _owner,\r\n    address  _approved,\r\n    uint256  _tokenId\r\n  );\r\n  event ApprovalForAll(\r\n    address  _owner,\r\n    address  _operator,\r\n    bool _approved\r\n  );\r\n\r\n  function balanceOf(address _owner) public view returns (uint256 _balance);\r\n  function ownerOf(uint256 _tokenId) public view returns (address _owner);\r\n  function exists(uint256 _tokenId) public view returns (bool _exists);\r\n\r\n  function approve(address _to, uint256 _tokenId) public;\r\n  function getApproved(uint256 _tokenId)\r\n    public view returns (address _operator);\r\n\r\n  function setApprovalForAll(address _operator, bool _approved) public;\r\n  function isApprovedForAll(address _owner, address _operator)\r\n    public view returns (bool);\r\n\r\n  function transferFrom(address _from, address _to, uint256 _tokenId) public;\r\n  function safeTransferFrom(address _from, address _to, uint256 _tokenId)\r\n    public;\r\n\r\n  function safeTransferFrom(\r\n    address _from,\r\n    address _to,\r\n    uint256 _tokenId,\r\n    bytes memory _data\r\n  )\r\n    public;\r\n}\r\n\r\n/**\r\n * @title ERC721 Non-Fungible Token Standard basic implementation\r\n * @dev see https://github.com/ethereum/EIPs/blob/master/EIPS/eip-721.md\r\n */\r\ncontract ERC721BasicToken is SupportsInterfaceWithLookup, ERC721Basic {\r\n\r\n  bytes4 private constant InterfaceId_ERC721 = 0x80ac58cd;\r\n  /*\r\n   * 0x80ac58cd ===\r\n   *   bytes4(keccak256('balanceOf(address)')) ^\r\n   *   bytes4(keccak256('ownerOf(uint256)')) ^\r\n   *   bytes4(keccak256('approve(address,uint256)')) ^\r\n   *   bytes4(keccak256('getApproved(uint256)')) ^\r\n   *   bytes4(keccak256('setApprovalForAll(address,bool)')) ^\r\n   *   bytes4(keccak256('isApprovedForAll(address,address)')) ^\r\n   *   bytes4(keccak256('transferFrom(address,address,uint256)')) ^\r\n   *   bytes4(keccak256('safeTransferFrom(address,address,uint256)')) ^\r\n   *   bytes4(keccak256('safeTransferFrom(address,address,uint256,bytes)'))\r\n   */\r\n\r\n  bytes4 private constant InterfaceId_ERC721Exists = 0x4f558e79;\r\n  /*\r\n   * 0x4f558e79 ===\r\n   *   bytes4(keccak256('exists(uint256)'))\r\n   */\r\n\r\n  using SafeMath for uint256;\r\n  using AddressUtils for address;\r\n\r\n  // Equals to `bytes4(keccak256(\"onERC721Received(address,uint256,bytes)\"))`\r\n  // which can be also obtained as `ERC721Receiver(0).onERC721Received.selector`\r\n  bytes4 private constant ERC721_RECEIVED = 0xf0b9e5ba;\r\n\r\n  // Mapping from token ID to owner\r\n  mapping (uint256 => address) internal tokenOwner;\r\n\r\n  // Mapping from token ID to approved address\r\n  mapping (uint256 => address) internal tokenApprovals;\r\n\r\n  // Mapping from owner to number of owned token\r\n  mapping (address => uint256) internal ownedTokensCount;\r\n\r\n  // Mapping from owner to operator approvals\r\n  mapping (address => mapping (address => bool)) internal operatorApprovals;\r\n\r\n\r\n  uint public testint;\r\n  /**\r\n   * @dev Guarantees msg.sender is owner of the given token\r\n   * @param _tokenId uint256 ID of the token to validate its ownership belongs to msg.sender\r\n   */\r\n  modifier onlyOwnerOf(uint256 _tokenId) {\r\n    require(ownerOf(_tokenId) == msg.sender);\r\n    _;\r\n  }\r\n\r\n  /**\r\n   * @dev Checks msg.sender can transfer a token, by being owner, approved, or operator\r\n   * @param _tokenId uint256 ID of the token to validate\r\n   */\r\n  modifier canTransfer(uint256 _tokenId) {\r\n    require(isApprovedOrOwner(msg.sender, _tokenId));\r\n    _;\r\n  }\r\n\r\n  constructor()\r\n    public\r\n  {\r\n    // register the supported interfaces to conform to ERC721 via ERC165\r\n    _registerInterface(InterfaceId_ERC721);\r\n    _registerInterface(InterfaceId_ERC721Exists);\r\n  }\r\n\r\n  /**\r\n   * @dev Gets the balance of the specified address\r\n   * @param _owner address to query the balance of\r\n   * @return uint256 representing the amount owned by the passed address\r\n   */\r\n  function balanceOf(address _owner) public view returns (uint256) {\r\n    require(_owner != address(0));\r\n    return ownedTokensCount[_owner];\r\n  }\r\n\r\n  /**\r\n   * @dev Gets the owner of the specified token ID\r\n   * @param _tokenId uint256 ID of the token to query the owner of\r\n   * @return owner address currently marked as the owner of the given token ID\r\n   */\r\n  function ownerOf(uint256 _tokenId) public view returns (address) {\r\n    address owner = tokenOwner[_tokenId];\r\n    require(owner != address(0));\r\n    return owner;\r\n  }\r\n\r\n  /**\r\n   * @dev Returns whether the specified token exists\r\n   * @param _tokenId uint256 ID of the token to query the existence of\r\n   * @return whether the token exists\r\n   */\r\n  function exists(uint256 _tokenId) public view returns (bool) {\r\n    address owner = tokenOwner[_tokenId];\r\n    return owner != address(0);\r\n  }\r\n\r\n  /**\r\n   * @dev Approves another address to transfer the given token ID\r\n   * The zero address indicates there is no approved address.\r\n   * There can only be one approved address per token at a given time.\r\n   * Can only be called by the token owner or an approved operator.\r\n   * @param _to address to be approved for the given token ID\r\n   * @param _tokenId uint256 ID of the token to be approved\r\n   */\r\n  function approve(address _to, uint256 _tokenId) public {\r\n    address owner = ownerOf(_tokenId);\r\n    require(_to != owner);\r\n    require(msg.sender == owner || isApprovedForAll(owner, msg.sender));\r\n\r\n    tokenApprovals[_tokenId] = _to;\r\n    emit Approval(owner, _to, _tokenId);\r\n  }\r\n\r\n  /**\r\n   * @dev Gets the approved address for a token ID, or zero if no address set\r\n   * @param _tokenId uint256 ID of the token to query the approval of\r\n   * @return address currently approved for the given token ID\r\n   */\r\n  function getApproved(uint256 _tokenId) public view returns (address) {\r\n    return tokenApprovals[_tokenId];\r\n  }\r\n\r\n  /**\r\n   * @dev Sets or unsets the approval of a given operator\r\n   * An operator is allowed to transfer all tokens of the sender on their behalf\r\n   * @param _to operator address to set the approval\r\n   * @param _approved representing the status of the approval to be set\r\n   */\r\n  function setApprovalForAll(address _to, bool _approved) public {\r\n    require(_to != msg.sender);\r\n    operatorApprovals[msg.sender][_to] = _approved;\r\n    emit ApprovalForAll(msg.sender, _to, _approved);\r\n  }\r\n\r\n  /**\r\n   * @dev Tells whether an operator is approved by a given owner\r\n   * @param _owner owner address which you want to query the approval of\r\n   * @param _operator operator address which you want to query the approval of\r\n   * @return bool whether the given operator is approved by the given owner\r\n   */\r\n  function isApprovedForAll(\r\n    address _owner,\r\n    address _operator\r\n  )\r\n    public\r\n    view\r\n    returns (bool)\r\n  {\r\n    return operatorApprovals[_owner][_operator];\r\n  }\r\n\r\n  /**\r\n   * @dev Transfers the ownership of a given token ID to another address\r\n   * Usage of this method is discouraged, use `safeTransferFrom` whenever possible\r\n   * Requires the msg sender to be the owner, approved, or operator\r\n   * @param _from current owner of the token\r\n   * @param _to address to receive the ownership of the given token ID\r\n   * @param _tokenId uint256 ID of the token to be transferred\r\n  */\r\n  function transferFrom(\r\n    address _from,\r\n    address _to,\r\n    uint256 _tokenId\r\n  )\r\n    public\r\n    canTransfer(_tokenId)\r\n  {\r\n    require(_from != address(0));\r\n    require(_to != address(0));\r\n\r\n    clearApproval(_from, _tokenId);\r\n    removeTokenFrom(_from, _tokenId);\r\n    addTokenTo(_to, _tokenId);\r\n\r\n    emit Transfer(_from, _to, _tokenId);\r\n  }\r\n\r\n  /**\r\n   * @dev Safely transfers the ownership of a given token ID to another address\r\n   * If the target address is a contract, it must implement `onERC721Received`,\r\n   * which is called upon a safe transfer, and return the magic value\r\n   * `bytes4(keccak256(\"onERC721Received(address,uint256,bytes)\"))`; otherwise,\r\n   * the transfer is reverted.\r\n   *\r\n   * Requires the msg sender to be the owner, approved, or operator\r\n   * @param _from current owner of the token\r\n   * @param _to address to receive the ownership of the given token ID\r\n   * @param _tokenId uint256 ID of the token to be transferred\r\n  */\r\n  function safeTransferFrom(\r\n    address _from,\r\n    address _to,\r\n    uint256 _tokenId\r\n  )\r\n    public\r\n    canTransfer(_tokenId)\r\n  {\r\n    // solium-disable-next-line arg-overflow\r\n    safeTransferFrom(_from, _to, _tokenId, \"\");\r\n  }\r\n\r\n  /**\r\n   * @dev Safely transfers the ownership of a given token ID to another address\r\n   * If the target address is a contract, it must implement `onERC721Received`,\r\n   * which is called upon a safe transfer, and return the magic value\r\n   * `bytes4(keccak256(\"onERC721Received(address,uint256,bytes)\"))`; otherwise,\r\n   * the transfer is reverted.\r\n   * Requires the msg sender to be the owner, approved, or operator\r\n   * @param _from current owner of the token\r\n   * @param _to address to receive the ownership of the given token ID\r\n   * @param _tokenId uint256 ID of the token to be transferred\r\n   * @param _data bytes data to send along with a safe transfer check\r\n   */\r\n  function safeTransferFrom(\r\n    address _from,\r\n    address _to,\r\n    uint256 _tokenId,\r\n    bytes memory _data\r\n  )\r\n    public\r\n    canTransfer(_tokenId)\r\n  {\r\n    transferFrom(_from, _to, _tokenId);\r\n    // solium-disable-next-line arg-overflow\r\n    require(checkAndCallSafeTransfer(_from, _to, _tokenId, _data));\r\n  }\r\n\r\n  /**\r\n   * @dev Returns whether the given spender can transfer a given token ID\r\n   * @param _spender address of the spender to query\r\n   * @param _tokenId uint256 ID of the token to be transferred\r\n   * @return bool whether the msg.sender is approved for the given token ID,\r\n   *  is an operator of the owner, or is the owner of the token\r\n   */\r\n  function isApprovedOrOwner(\r\n    address _spender,\r\n    uint256 _tokenId\r\n  )\r\n    internal\r\n    view\r\n    returns (bool)\r\n  {\r\n    address owner = ownerOf(_tokenId);\r\n    // Disable solium check because of\r\n    // https://github.com/duaraghav8/Solium/issues/175\r\n    // solium-disable-next-line operator-whitespace\r\n    return (\r\n      _spender == owner ||\r\n      getApproved(_tokenId) == _spender ||\r\n      isApprovedForAll(owner, _spender)\r\n    );\r\n  }\r\n\r\n  /**\r\n   * @dev Internal function to mint a new token\r\n   * Reverts if the given token ID already exists\r\n   * @param _to The address that will own the minted token\r\n   * @param _tokenId uint256 ID of the token to be minted by the msg.sender\r\n   */\r\n  function _mint(address _to, uint256 _tokenId) internal {\r\n    require(_to != address(0));\r\n    addTokenTo(_to, _tokenId);\r\n    emit Transfer(address(0), _to, _tokenId);\r\n  }\r\n\r\n  /**\r\n   * @dev Internal function to burn a specific token\r\n   * Reverts if the token does not exist\r\n   * @param _tokenId uint256 ID of the token being burned by the msg.sender\r\n   */\r\n  function _burn(address _owner, uint256 _tokenId) internal {\r\n    clearApproval(_owner, _tokenId);\r\n    removeTokenFrom(_owner, _tokenId);\r\n    emit Transfer(_owner, address(0), _tokenId);\r\n  }\r\n\r\n  /**\r\n   * @dev Internal function to clear current approval of a given token ID\r\n   * Reverts if the given address is not indeed the owner of the token\r\n   * @param _owner owner of the token\r\n   * @param _tokenId uint256 ID of the token to be transferred\r\n   */\r\n  function clearApproval(address _owner, uint256 _tokenId) internal {\r\n    require(ownerOf(_tokenId) == _owner);\r\n    if (tokenApprovals[_tokenId] != address(0)) {\r\n      tokenApprovals[_tokenId] = address(0);\r\n    }\r\n  }\r\n\r\n  /**\r\n   * @dev Internal function to add a token ID to the list of a given address\r\n   * @param _to address representing the new owner of the given token ID\r\n   * @param _tokenId uint256 ID of the token to be added to the tokens list of the given address\r\n   */\r\n  function addTokenTo(address _to, uint256 _tokenId) internal {\r\n    require(tokenOwner[_tokenId] == address(0));\r\n    tokenOwner[_tokenId] = _to;\r\n    ownedTokensCount[_to] = ownedTokensCount[_to].add(1);\r\n  }\r\n\r\n  /**\r\n   * @dev Internal function to remove a token ID from the list of a given address\r\n   * @param _from address representing the previous owner of the given token ID\r\n   * @param _tokenId uint256 ID of the token to be removed from the tokens list of the given address\r\n   */\r\n  function removeTokenFrom(address _from, uint256 _tokenId) internal {\r\n    require(ownerOf(_tokenId) == _from);\r\n    ownedTokensCount[_from] = ownedTokensCount[_from].sub(1);\r\n    tokenOwner[_tokenId] = address(0);\r\n  }\r\n\r\n  /**\r\n   * @dev Internal function to invoke `onERC721Received` on a target address\r\n   * The call is not executed if the target address is not a contract\r\n   * @param _from address representing the previous owner of the given token ID\r\n   * @param _to target address that will receive the tokens\r\n   * @param _tokenId uint256 ID of the token to be transferred\r\n   * @param _data bytes optional data to send along with the call\r\n   * @return whether the call correctly returned the expected magic value\r\n   */\r\n  function checkAndCallSafeTransfer(\r\n    address _from,\r\n    address _to,\r\n    uint256 _tokenId,\r\n    bytes memory _data\r\n  )\r\n    internal\r\n    returns (bool)\r\n  {\r\n    if (!_to.isContract()) {\r\n      return true;\r\n    }\r\n    bytes4 retval = ERC721Receiver(_to).onERC721Received(\r\n      _from, _tokenId, _data);\r\n    return (retval == ERC721_RECEIVED);\r\n  }\r\n}\r\n\r\ncontract ERC721BasicTokenMock is ERC721BasicToken {\r\n  function mint(address _to, uint256 _tokenId) public {\r\n    super._mint(_to, _tokenId);\r\n  }\r\n\r\n  function burn(uint256 _tokenId) public {\r\n    super._burn(ownerOf(_tokenId), _tokenId);\r\n  }\r\n}\r\n",
  "sourcePath": "C:\\Users\\abhinavanshul\\contracts\\truffle-contracts\\contracts\\bounties\\inherited\\ERC721Basic.sol",
  "compiler": {
    "name": "solc",
    "version": "0.5.9+commit.e560f70d.Emscripten.clang"
  },
  "schemaVersion": "3.0.23",
  "updatedAt": "2020-05-25T13:31:49.810Z",
  "devdoc": {
    "methods": {
      "approve(address,uint256)": {
        "details": "Approves another address to transfer the given token ID\r The zero address indicates there is no approved address.\r There can only be one approved address per token at a given time.\r Can only be called by the token owner or an approved operator.\r",
        "params": {
          "_to": "address to be approved for the given token ID\r",
          "_tokenId": "uint256 ID of the token to be approved\r"
        }
      },
      "balanceOf(address)": {
        "details": "Gets the balance of the specified address\r",
        "params": {
          "_owner": "address to query the balance of\r"
        },
        "return": "uint256 representing the amount owned by the passed address\r"
      },
      "exists(uint256)": {
        "details": "Returns whether the specified token exists\r",
        "params": {
          "_tokenId": "uint256 ID of the token to query the existence of\r"
        },
        "return": "whether the token exists\r"
      },
      "getApproved(uint256)": {
        "details": "Gets the approved address for a token ID, or zero if no address set\r",
        "params": {
          "_tokenId": "uint256 ID of the token to query the approval of\r"
        },
        "return": "address currently approved for the given token ID\r"
      },
      "isApprovedForAll(address,address)": {
        "details": "Tells whether an operator is approved by a given owner\r",
        "params": {
          "_operator": "operator address which you want to query the approval of\r",
          "_owner": "owner address which you want to query the approval of\r"
        },
        "return": "bool whether the given operator is approved by the given owner\r"
      },
      "ownerOf(uint256)": {
        "details": "Gets the owner of the specified token ID\r",
        "params": {
          "_tokenId": "uint256 ID of the token to query the owner of\r"
        },
        "return": "owner address currently marked as the owner of the given token ID\r"
      },
      "safeTransferFrom(address,address,uint256)": {
        "details": "Safely transfers the ownership of a given token ID to another address\r If the target address is a contract, it must implement `onERC721Received`,\r which is called upon a safe transfer, and return the magic value\r `bytes4(keccak256(\"onERC721Received(address,uint256,bytes)\"))`; otherwise,\r the transfer is reverted.\r    * Requires the msg sender to be the owner, approved, or operator\r",
        "params": {
          "_from": "current owner of the token\r",
          "_to": "address to receive the ownership of the given token ID\r",
          "_tokenId": "uint256 ID of the token to be transferred\r"
        }
      },
      "safeTransferFrom(address,address,uint256,bytes)": {
        "details": "Safely transfers the ownership of a given token ID to another address\r If the target address is a contract, it must implement `onERC721Received`,\r which is called upon a safe transfer, and return the magic value\r `bytes4(keccak256(\"onERC721Received(address,uint256,bytes)\"))`; otherwise,\r the transfer is reverted.\r Requires the msg sender to be the owner, approved, or operator\r",
        "params": {
          "_data": "bytes data to send along with a safe transfer check\r",
          "_from": "current owner of the token\r",
          "_to": "address to receive the ownership of the given token ID\r",
          "_tokenId": "uint256 ID of the token to be transferred\r"
        }
      },
      "setApprovalForAll(address,bool)": {
        "details": "Sets or unsets the approval of a given operator\r An operator is allowed to transfer all tokens of the sender on their behalf\r",
        "params": {
          "_approved": "representing the status of the approval to be set\r",
          "_to": "operator address to set the approval\r"
        }
      },
      "supportsInterface(bytes4)": {
        "details": "implement supportsInterface(bytes4) using a lookup table\r"
      },
      "transferFrom(address,address,uint256)": {
        "details": "Transfers the ownership of a given token ID to another address\r Usage of this method is discouraged, use `safeTransferFrom` whenever possible\r Requires the msg sender to be the owner, approved, or operator\r",
        "params": {
          "_from": "current owner of the token\r",
          "_to": "address to receive the ownership of the given token ID\r",
          "_tokenId": "uint256 ID of the token to be transferred\r"
        }
      }
    }
  },
  "userdoc": {
    "methods": {}
  }
}