{
  "contractName": "GitFundedGrantFactory",
  "abi": [
    {
      "constant": true,
      "inputs": [],
      "name": "projectCount",
      "outputs": [
        {
          "name": "",
          "type": "uint256"
        }
      ],
      "payable": false,
      "stateMutability": "view",
      "type": "function"
    },
    {
      "constant": true,
      "inputs": [
        {
          "name": "",
          "type": "address"
        },
        {
          "name": "",
          "type": "uint256"
        }
      ],
      "name": "projects",
      "outputs": [
        {
          "name": "",
          "type": "address"
        }
      ],
      "payable": false,
      "stateMutability": "view",
      "type": "function"
    },
    {
      "inputs": [
        {
          "name": "_bountyAddress",
          "type": "address"
        },
        {
          "name": "_tokenAddress",
          "type": "address"
        }
      ],
      "payable": false,
      "stateMutability": "nonpayable",
      "type": "constructor"
    },
    {
      "anonymous": false,
      "inputs": [
        {
          "indexed": false,
          "name": "repoId",
          "type": "string"
        },
        {
          "indexed": false,
          "name": "title",
          "type": "string"
        },
        {
          "indexed": false,
          "name": "budget",
          "type": "uint256"
        },
        {
          "indexed": false,
          "name": "availableFund",
          "type": "uint256"
        },
        {
          "indexed": false,
          "name": "admin",
          "type": "address"
        }
      ],
      "name": "projectAdded",
      "type": "event"
    },
    {
      "constant": false,
      "inputs": [
        {
          "name": "repoId",
          "type": "string"
        },
        {
          "name": "title",
          "type": "string"
        },
        {
          "name": "budget",
          "type": "uint256"
        }
      ],
      "name": "newProject",
      "outputs": [
        {
          "name": "",
          "type": "address"
        }
      ],
      "payable": false,
      "stateMutability": "nonpayable",
      "type": "function"
    },
    {
      "constant": true,
      "inputs": [],
      "name": "getContractAddress",
      "outputs": [
        {
          "name": "",
          "type": "address[]"
        }
      ],
      "payable": false,
      "stateMutability": "view",
      "type": "function"
    },
    {
      "constant": true,
      "inputs": [],
      "name": "getProjectsCount",
      "outputs": [
        {
          "name": "",
          "type": "uint256"
        }
      ],
      "payable": false,
      "stateMutability": "view",
      "type": "function"
    }
  ],
  "bytecode": "0x60806040526000805534801561001457600080fd5b506040516130813803806130818339818101604052604081101561003757600080fd5b508051602090910151600180546001600160a01b039384166001600160a01b031991821617909155600280549390921692169190911790556130038061007e6000396000f3fe608060405234801561001057600080fd5b50600436106100575760003560e01c806332a2c5d01461005c57806336fbad26146100b45780637ecdd3c5146100ce578063954db47414610116578063e4a8f18b14610245575b600080fd5b61006461024d565b60408051602080825283518183015283519192839290830191858101910280838360005b838110156100a0578181015183820152602001610088565b505050509050019250505060405180910390f35b6100bc6102b8565b60408051918252519081900360200190f35b6100fa600480360360408110156100e457600080fd5b506001600160a01b0381351690602001356102be565b604080516001600160a01b039092168252519081900360200190f35b6100fa6004803603606081101561012c57600080fd5b81019060208101813564010000000081111561014757600080fd5b82018360208201111561015957600080fd5b8035906020019184600183028401116401000000008311171561017b57600080fd5b91908080601f01602080910402602001604051908101604052809392919081815260200183838082843760009201919091525092959493602081019350359150506401000000008111156101ce57600080fd5b8201836020820111156101e057600080fd5b8035906020019184600183028401116401000000008311171561020257600080fd5b91908080601f01602080910402602001604051908101604052809392919081815260200183838082843760009201919091525092955050913592506102f3915050565b6100bc61059c565b336000908152600360209081526040918290208054835181840281018401909452808452606093928301828280156102ae57602002820191906000526020600020905b81546001600160a01b03168152600190910190602001808311610290575b5050505050905090565b60005481565b600360205281600052604060002081815481106102d757fe5b6000918252602090912001546001600160a01b03169150829050565b600154600254604051600092839287928792879233926001600160a01b039283169290911690610322906105a2565b604081018590526001600160a01b0380851660608301528381166080830152821660a082015260c08082528751908201528651819060208083019160e08401918b019080838360005b8381101561038357818101518382015260200161036b565b50505050905090810190601f1680156103b05780820380516001836020036101000a031916815260200191505b5083810382528851815288516020918201918a019080838360005b838110156103e35781810151838201526020016103cb565b50505050905090810190601f1680156104105780820380516001836020036101000a031916815260200191505b5098505050505050505050604051809103906000f080158015610437573d6000803e3d6000fd5b503360008181526003602090815260408083208054600180820183559185528385200180546001600160a01b0319166001600160a01b03881617905583540183558051908101889052606081018390526080810184905260a08082528a519082015289519495507fa4802727cd9ec0d1fcbf51f260983cba0fd67d1ce8b069f1d8d2ddeb0e8adbf3948a948a948a949093919282918281019160c08401918a01908083838a5b838110156104f55781810151838201526020016104dd565b50505050905090810190601f1680156105225780820380516001836020036101000a031916815260200191505b50838103825287518152875160209182019189019080838360005b8381101561055557818101518382015260200161053d565b50505050905090810190601f1680156105825780820380516001836020036101000a031916815260200191505b5097505050505050505060405180910390a1949350505050565b60005490565b612a1f806105b08339019056fe6080604052600160008181558180556003805460ff19169092179091556004553480156200002c57600080fd5b5060405162002a1f38038062002a1f833981810160405260c08110156200005257600080fd5b8101908080516401000000008111156200006b57600080fd5b820160208101848111156200007f57600080fd5b81516401000000008111828201871017156200009a57600080fd5b50509291906020018051640100000000811115620000b757600080fd5b82016020810184811115620000cb57600080fd5b8151640100000000811182820187101715620000e657600080fd5b5050602080830151604084015160608501516080909501518851949750919550939290916200011b91600c91890190620001a4565b5084516200013190600d906020880190620001a4565b5050600e92909255600b80546001600160a01b039283166001600160a01b0319918216179091556000600f556010805460068054958516959093169490941790915561010060ff19909316600117838104909216909202610100600160a81b031990911617905550504260025562000249565b828054600181600116156101000203166002900490600052602060002090601f016020900481019282601f10620001e757805160ff191683800117855562000217565b8280016001018555821562000217579182015b8281111562000217578251825591602001919060010190620001fa565b506200022592915062000229565b5090565b6200024691905b8082111562000225576000815560010162000230565b90565b6127c680620002596000396000f3fe6080604052600436106101b75760003560e01c80637436f3dc116100ec578063c4d66de81161008a578063d63dc66111610064578063d63dc66114610d21578063dff3ad6914610d29578063e2dc35e014610ea0578063f851a44014610ecc576101b7565b8063c4d66de814610ca6578063cce7db5814610cd9578063d0cb3cd114610d0c576101b7565b806391fc17b4116100c657806391fc17b414610911578063a87430ba14610926578063a9a74bd6146109a6578063af4afe0a14610c02576101b7565b80637436f3dc1461081a57806383197ef01461082f5780638c3006c714610844576101b7565b806322dffcbb1161015957806350b594471161013357806350b594471461071e57806354fd4d501461073357806360d41290146107485780636415921d1461075d576101b7565b806322dffcbb146105b757806325a287ce1461066a5780634a79d50c14610694576101b7565b80630c3d5157116101955780630c3d5157146105215780630d0f3f5d146105485780630daded9514610578578063125ede9d1461058d576101b7565b8063013e9128146101bc57806302fb0c5e1461041357806304e15de51461043c575b600080fd5b61041160048036036101408110156101d357600080fd5b81359190810190604081016020820135600160201b8111156101f457600080fd5b82018360208201111561020657600080fd5b803590602001918460018302840111600160201b8311171561022757600080fd5b91908080601f0160208091040260200160405190810160405280939291908181526020018383808284376000920191909152509295949360208101935035915050600160201b81111561027957600080fd5b82018360208201111561028b57600080fd5b803590602001918460208302840111600160201b831117156102ac57600080fd5b9190808060200260200160405190810160405280939291908181526020018383602002808284376000920191909152509295949360208101935035915050600160201b8111156102fb57600080fd5b82018360208201111561030d57600080fd5b803590602001918460208302840111600160201b8311171561032e57600080fd5b9190808060200260200160405190810160405280939291908181526020018383602002808284376000920191909152509295949360208101935035915050600160201b81111561037d57600080fd5b82018360208201111561038f57600080fd5b803590602001918460018302840111600160201b831117156103b057600080fd5b91908080601f0160208091040260200160405190810160405280939291908181526020018383808284376000920191909152509295505082359350506001600160a01b03602083013516916040810135915060608101359060800135610efd565b005b34801561041f57600080fd5b50610428611300565b604080519115158252519081900360200190f35b34801561044857600080fd5b506104666004803603602081101561045f57600080fd5b5035611309565b6040518080602001878152602001868152602001858152602001846001600160a01b03166001600160a01b031681526020018360048111156104a457fe5b60ff168152602001828103825288818151815260200191508051906020019080838360005b838110156104e15781810151838201526020016104c9565b50505050905090810190601f16801561050e5780820380516001836020036101000a031916815260200191505b5097505050505050505060405180910390f35b34801561052d57600080fd5b506105366113e7565b60408051918252519081900360200190f35b34801561055457600080fd5b506104116004803603604081101561056b57600080fd5b50803590602001356113ed565b34801561058457600080fd5b50610536611596565b34801561059957600080fd5b50610411600480360360208110156105b057600080fd5b503561159d565b3480156105c357600080fd5b50610411600480360360408110156105da57600080fd5b810190602081018135600160201b8111156105f457600080fd5b82018360208201111561060657600080fd5b803590602001918460018302840111600160201b8311171561062757600080fd5b91908080601f016020809104026020016040519081016040528093929190818152602001838380828437600092019190915250929550509135925061178c915050565b34801561067657600080fd5b506104116004803603602081101561068d57600080fd5b50356118a0565b3480156106a057600080fd5b506106a9611940565b6040805160208082528351818301528351919283929083019185019080838360005b838110156106e35781810151838201526020016106cb565b50505050905090810190601f1680156107105780820380516001836020036101000a031916815260200191505b509250505060405180910390f35b34801561072a57600080fd5b506105366119ce565b34801561073f57600080fd5b506105366119d4565b34801561075457600080fd5b506105366119da565b34801561076957600080fd5b506104116004803603608081101561078057600080fd5b81359190810190604081016020820135600160201b8111156107a157600080fd5b8201836020820111156107b357600080fd5b803590602001918460018302840111600160201b831117156107d457600080fd5b91908080601f01602080910402602001604051908101604052809392919081815260200183838082843760009201919091525092955050823593505050602001356119e0565b34801561082657600080fd5b50610536611b69565b34801561083b57600080fd5b50610411611b6f565b34801561085057600080fd5b50610859611bcd565b60408051908101849052606081018390526001600160a01b038216608082015260a08082528651908201528551819060208083019160c08401918a019080838360005b838110156108b457818101518382015260200161089c565b50505050905090810190601f1680156108e15780820380516001836020036101000a031916815260200191505b508381038252875181528751602091820191890190808383600083156104e15781810151838201526020016104c9565b34801561091d57600080fd5b506106a9611d21565b34801561093257600080fd5b506109596004803603602081101561094957600080fd5b50356001600160a01b0316611d7c565b6040805186151581526001600160a01b0386166020820152908101849052606081018390526080810182600281111561098e57fe5b60ff1681526020019550505050505060405180910390f35b3480156109b257600080fd5b5061041160048036036101208110156109ca57600080fd5b81359190810190604081016020820135600160201b8111156109eb57600080fd5b8201836020820111156109fd57600080fd5b803590602001918460018302840111600160201b83111715610a1e57600080fd5b91908080601f0160208091040260200160405190810160405280939291908181526020018383808284376000920191909152509295949360208101935035915050600160201b811115610a7057600080fd5b820183602082011115610a8257600080fd5b803590602001918460208302840111600160201b83111715610aa357600080fd5b9190808060200260200160405190810160405280939291908181526020018383602002808284376000920191909152509295949360208101935035915050600160201b811115610af257600080fd5b820183602082011115610b0457600080fd5b803590602001918460208302840111600160201b83111715610b2557600080fd5b9190808060200260200160405190810160405280939291908181526020018383602002808284376000920191909152509295949360208101935035915050600160201b811115610b7457600080fd5b820183602082011115610b8657600080fd5b803590602001918460018302840111600160201b83111715610ba757600080fd5b91908080601f0160208091040260200160405190810160405280939291908181526020018383808284376000920191909152509295505082359350506001600160a01b03602083013516916040810135915060600135611db7565b348015610c0e57600080fd5b50610c2c60048036036020811015610c2557600080fd5b5035612164565b6040518080602001878152602001868152602001856001600160a01b03166001600160a01b03168152602001846003811115610c6457fe5b60ff16815260200183815260200182810382528881815181526020019150805190602001908083836000838110156104e15781810151838201526020016104c9565b348015610cb257600080fd5b5061041160048036036020811015610cc957600080fd5b50356001600160a01b0316612243565b348015610ce557600080fd5b5061041160048036036020811015610cfc57600080fd5b50356001600160a01b03166122b5565b348015610d1857600080fd5b5061053661233f565b610411612345565b348015610d3557600080fd5b506104116004803603610140811015610d4d57600080fd5b810190602081018135600160201b811115610d6757600080fd5b820183602082011115610d7957600080fd5b803590602001918460018302840111600160201b83111715610d9a57600080fd5b91908080601f01602080910402602001604051908101604052809392919081815260200183838082843760009201919091525092958435956001600160a01b03602087013581169660408101359650606081013595506080810135945060a081013582169360c08201359360e08301359093169290916101208101906101000135600160201b811115610e2c57600080fd5b820183602082011115610e3e57600080fd5b803590602001918460018302840111600160201b83111715610e5f57600080fd5b91908080601f01602080910402602001604051908101604052809392919081815260200183838082843760009201919091525092955061235d945050505050565b61041160048036036040811015610eb657600080fd5b506001600160a01b03813516906020013561258d565b348015610ed857600080fd5b50610ee1612629565b604080516001600160a01b039092168252519081900360200190f35b600b546001600160a01b03163314610f4d576040805162461bcd60e51b815260206004820152600e60248201526d139bdd08105d5d1a1bdc9a5cd95960921b604482015290519081900360640190fd5b600060098b81548110610f5c57fe5b60009182526020822060016005909202010154915060098c81548110610f7e57fe5b906000526020600020906005020160040160149054906101000a900460ff166004811115610fa857fe5b14610ffa576040805162461bcd60e51b815260206004820152601960248201527f50726f6a656374206973206e6f7420696e206261636b6c6f6700000000000000604482015290519081900360640190fd5b80600f541015611047576040805162461bcd60e51b815260206004820152601360248201527246756e6473206e6f7420617661696c61626c6560681b604482015290519081900360640190fd5b600160098c8154811061105657fe5b906000526020600020906005020160040160146101000a81548160ff0219169083600481111561108257fe5b0217905550600f80548290039055600980548291908d9081106110a157fe5b906000526020600020906005020160020181905550600660009054906101000a90046001600160a01b03166001600160a01b031663b1e6bcbb828c8c8c8c8c8c8c8c8c6040518b63ffffffff1660e01b815260040180806020018060200180602001806020018a8152602001896001600160a01b03166001600160a01b0316815260200188815260200187815260200186815260200185810385528e818151815260200191508051906020019080838360005b8381101561116c578181015183820152602001611154565b50505050905090810190601f1680156111995780820380516001836020036101000a031916815260200191505b5085810384528d818151815260200191508051906020019060200280838360005b838110156111d25781810151838201526020016111ba565b5050505090500185810383528c818151815260200191508051906020019060200280838360005b838110156112115781810151838201526020016111f9565b5050505090500185810382528b818151815260200191508051906020019080838360005b8381101561124d578181015183820152602001611235565b50505050905090810190601f16801561127a5780820380516001836020036101000a031916815260200191505b509d50505050505050505050505050506020604051808303818588803b1580156112a357600080fd5b505af11580156112b7573d6000803e3d6000fd5b50505050506040513d60208110156112ce57600080fd5b5051600980548d9081106112de57fe5b9060005260206000209060050201600301819055505050505050505050505050565b60035460ff1681565b6009818154811061131657fe5b60009182526020918290206005919091020180546040805160026001841615610100026000190190931692909204601f8101859004850283018501909152808252919350918391908301828280156113af5780601f10611384576101008083540402835291602001916113af565b820191906000526020600020905b81548152906001019060200180831161139257829003601f168201915b50505050600183015460028401546003850154600490950154939491939092506001600160a01b03811690600160a01b900460ff1686565b60025481565b600b546001600160a01b0316331461143d576040805162461bcd60e51b815260206004820152600e60248201526d139bdd08105d5d1a1bdc9a5cd95960921b604482015290519081900360640190fd5b60006008838154811061144c57fe5b906000526020600020906005020160030160149054906101000a900460ff16600381111561147657fe5b1461148057600080fd5b80600f5410156114cd576040805162461bcd60e51b815260206004820152601360248201527246756e6473206e6f7420617661696c61626c6560681b604482015290519081900360640190fd5b6001600883815481106114dc57fe5b906000526020600020906005020160030160146101000a81548160ff0219169083600381111561150857fe5b0217905550600f80548290039055600880548291908490811061152757fe5b9060005260206000209060050201600201819055506008828154811061154957fe5b600091825260208220600360059092020101546040516001600160a01b039091169183156108fc02918491818181858888f19350505050158015611591573d6000803e3d6000fd5b505050565b6008545b90565b600b546001600160a01b031633146115ed576040805162461bcd60e51b815260206004820152600e60248201526d139bdd08105d5d1a1bdc9a5cd95960921b604482015290519081900360640190fd5b6000600882815481106115fc57fe5b906000526020600020906005020160040154905060006008838154811061161f57fe5b6000918252602082206001600590920201015491506008848154811061164157fe5b906000526020600020906005020160030160149054906101000a900460ff16600381111561166b57fe5b1461167557600080fd5b80600f5410156116c2576040805162461bcd60e51b815260206004820152601360248201527246756e6473206e6f7420617661696c61626c6560681b604482015290519081900360640190fd5b6002600884815481106116d157fe5b906000526020600020906005020160030160146101000a81548160ff021916908360038111156116fd57fe5b0217905550600f80548290039055600880548291908590811061171c57fe5b9060005260206000209060050201600201819055506008838154811061173e57fe5b600091825260208220600360059092020101546040516001600160a01b039091169183156108fc02918491818181858888f19350505050158015611786573d6000803e3d6000fd5b50505050565b611794612666565b6040518060c001604052808481526020018381526020016000815260200160008152602001336001600160a01b03168152602001600060048111156117d557fe5b90526009805460018101808355600092909252825180519394509192849260059092027f6e1540171b6c0c960b71a7020d9f60077f6af931a8bbf590da0223dacf75c7af019161182a918391602001906126af565b506020820151600182015560408201516002820155606082015160038201556080820151600480830180546001600160a01b0319166001600160a01b039093169290921780835560a0850151929160ff60a01b1990911690600160a01b90849081111561189357fe5b0217905550505050505050565b6007546040805163025d1b6560e61b81526004810184905290516001600160a01b0390921691639746d940916024808201926020929091908290030181600087803b1580156118ee57600080fd5b505af1158015611902573d6000803e3d6000fd5b505050506040513d602081101561191857600080fd5b5051600880548390811061192857fe5b90600052602060002090600502016004018190555050565b600d805460408051602060026001851615610100026000190190941693909304601f810184900484028201840190925281815292918301828280156119c65780601f1061199b576101008083540402835291602001916119c6565b820191906000526020600020905b8154815290600101906020018083116119a957829003601f168201915b505050505081565b60095490565b60005481565b60045481565b6000600985815481106119ef57fe5b60009182526020909120600360059092020101549050600160098681548110611a1457fe5b906000526020600020906005020160040160149054906101000a900460ff166004811115611a3e57fe5b14611a4857600080fd5b8260098681548110611a5657fe5b906000526020600020906005020160020160008282540192505081905550600660009054906101000a90046001600160a01b03166001600160a01b031663432326a984868487876040518663ffffffff1660e01b81526004018080602001858152602001848152602001838152602001828103825286818151815260200191508051906020019080838360005b83811015611afb578181015183820152602001611ae3565b50505050905090810190601f168015611b285780820380516001836020036101000a031916815260200191505b50955050505050506000604051808303818588803b158015611b4957600080fd5b505af1158015611b5d573d6000803e3d6000fd5b50505050505050505050565b60015481565b600b546001600160a01b03163314611bbf576040805162461bcd60e51b815260206004820152600e60248201526d139bdd08105d5d1a1bdc9a5cd95960921b604482015290519081900360640190fd5b600b546001600160a01b0316ff5b600e54600f54600b54600c8054604080516020601f600260001960018716156101000201909516949094049384018190048102820181019092528281526060968796600096879687969095600d956001600160a01b0390931692918791830182828015611c7b5780601f10611c5057610100808354040283529160200191611c7b565b820191906000526020600020905b815481529060010190602001808311611c5e57829003601f168201915b5050875460408051602060026001851615610100026000190190941693909304601f8101849004840282018401909252818152959a5089945092508401905082828015611d095780601f10611cde57610100808354040283529160200191611d09565b820191906000526020600020905b815481529060010190602001808311611cec57829003601f168201915b50989e939d50959b5093995091975095505050505050565b600c805460408051602060026001851615610100026000190190941693909304601f810184900484028201840190925281815292918301828280156119c65780601f1061199b576101008083540402835291602001916119c6565b600a60205260009081526040902080546001820154600283015460039093015460ff808416946101009094046001600160a01b031693911685565b600b546001600160a01b03163314611e07576040805162461bcd60e51b815260206004820152600e60248201526d139bdd08105d5d1a1bdc9a5cd95960921b604482015290519081900360640190fd5b600060098a81548110611e1657fe5b60009182526020822060016005909202010154915060098b81548110611e3857fe5b906000526020600020906005020160040160149054906101000a900460ff166004811115611e6257fe5b14611e6c57600080fd5b80600f541015611eb9576040805162461bcd60e51b815260206004820152601360248201527246756e6473206e6f7420617661696c61626c6560681b604482015290519081900360640190fd5b600160098b81548110611ec857fe5b906000526020600020906005020160040160146101000a81548160ff02191690836004811115611ef457fe5b0217905550600f80548290039055600980548291908c908110611f1357fe5b906000526020600020906005020160020181905550600660009054906101000a90046001600160a01b03166001600160a01b031663df4015fc8a8a8a8a8a8a8a8a6040518963ffffffff1660e01b81526004018080602001806020018060200180602001898152602001886001600160a01b03166001600160a01b0316815260200187815260200186815260200185810385528d818151815260200191508051906020019080838360005b83811015611fd6578181015183820152602001611fbe565b50505050905090810190601f1680156120035780820380516001836020036101000a031916815260200191505b5085810384528c5181528c51602091820191808f01910280838360005b83811015612038578181015183820152602001612020565b5050505090500185810383528b818151815260200191508051906020019060200280838360005b8381101561207757818101518382015260200161205f565b5050505090500185810382528a818151815260200191508051906020019080838360005b838110156120b357818101518382015260200161209b565b50505050905090810190601f1680156120e05780820380516001836020036101000a031916815260200191505b509c50505050505050505050505050602060405180830381600087803b15801561210957600080fd5b505af115801561211d573d6000803e3d6000fd5b505050506040513d602081101561213357600080fd5b5051600980548c90811061214357fe5b90600052602060002090600502016003018190555050505050505050505050565b6008818154811061217157fe5b60009182526020918290206005919091020180546040805160026001841615610100026000190190931692909204601f81018590048502830185019091528082529193509183919083018282801561220a5780601f106121df5761010080835404028352916020019161220a565b820191906000526020600020905b8154815290600101906020018083116121ed57829003601f168201915b50505050600183015460028401546003850154600490950154939491939092506001600160a01b03821691600160a01b900460ff169086565b600b546001600160a01b03163314612293576040805162461bcd60e51b815260206004820152600e60248201526d139bdd08105d5d1a1bdc9a5cd95960921b604482015290519081900360640190fd5b600780546001600160a01b0319166001600160a01b0392909216919091179055565b600b546001600160a01b03163314612305576040805162461bcd60e51b815260206004820152600e60248201526d139bdd08105d5d1a1bdc9a5cd95960921b604482015290519081900360640190fd5b6040516001600160a01b03821690303180156108fc02916000818181858888f1935050505015801561233b573d6000803e3d6000fd5b5050565b600f5481565b600f54612358903463ffffffff61263816565b600f55565b61236561272d565b6040805160c0810182528c8152602081018c90526000918101829052336060820152906080820190815260006020918201819052600880546001810180835591909252835180519495509093859360059093027ff3f7a9fe364faab93b216da50a3214154f22a0a2b415b23a84c8169e8b636ee301926123e99284929101906126af565b5060208201516001820155604082015160028201556060820151600380830180546001600160a01b0319166001600160a01b03909316929092178083556080850151929160ff60a01b1990911690600160a01b90849081111561244857fe5b021790555060a0919091015160049182015560075460405163590f940b60e01b81526001600160a01b038d8116938201938452602482018d9052604482018c9052606482018b9052898116608483015260a4820189905287811660c483015261010060e483019081528751610104840152875191909316945063590f940b938e938e938e938e938e938e938e938e9392916101240190602085019080838360005b838110156125015781810151838201526020016124e9565b50505050905090810190601f16801561252e5780820380516001836020036101000a031916815260200191505b509950505050505050505050602060405180830381600087803b15801561255457600080fd5b505af1158015612568573d6000803e3d6000fd5b505050506040513d602081101561257e57600080fd5b50505050505050505050505050565b600b546001600160a01b031633146125dd576040805162461bcd60e51b815260206004820152600e60248201526d139bdd08105d5d1a1bdc9a5cd95960921b604482015290519081900360640190fd5b600f546125f0908263ffffffff61265116565b600f556040516001600160a01b0383169082156108fc029083906000818181858888f19350505050158015611591573d6000803e3d6000fd5b600b546001600160a01b031681565b60008282018381101561264a57600080fd5b9392505050565b60008282111561266057600080fd5b50900390565b6040518060c001604052806060815260200160008152602001600081526020016000815260200160006001600160a01b03168152602001600060048111156126aa57fe5b905290565b828054600181600116156101000203166002900490600052602060002090601f016020900481019282601f106126f057805160ff191683800117855561271d565b8280016001018555821561271d579182015b8281111561271d578251825591602001919060010190612702565b50612729929150612777565b5090565b6040518060c0016040528060608152602001600081526020016000815260200160006001600160a01b031681526020016000600381111561276a57fe5b8152602001600081525090565b61159a91905b80821115612729576000815560010161277d56fea265627a7a723058200e546ac39b5535e507ab2dfeb382697613f80eb1cf6f25c1eeea6059d0901a6964736f6c63430005090032a265627a7a72305820e3be4db12b5f52aa7ebaa1ac9409c2c002ff7cd791dc2fc0d4cf1e142b97968064736f6c63430005090032",
  "source": "pragma solidity >=0.5.0 < 0.6.0;\r\nimport './GitFundedGrant.sol';\r\n\r\ncontract GitFundedGrantFactory {\r\n  uint public projectCount = 0;\r\n  address bountyAddress; // This is actually BountiesMetaTxRelayer address\r\n  address tokenAddress;\r\n  mapping(address => address[]) public projects;\r\n\r\n  constructor(address _bountyAddress, address _tokenAddress) public {\r\n\r\n    bountyAddress = _bountyAddress;\r\n    tokenAddress = _tokenAddress;\r\n\r\n\r\n  }\r\n\r\n\r\n  event projectAdded (\r\n        string repoId,\r\n        string title,\r\n        uint budget, // In dollars\r\n        uint availableFund, // In Ether\r\n        address admin\r\n\r\n  );\r\n\r\n  function newProject(\r\n    string memory repoId, string memory title, uint budget) public returns (address) {\r\n\r\n    GitFundedGrant project = new GitFundedGrant(\r\n      repoId,\r\n      title,\r\n      budget,\r\n      msg.sender,\r\n      bountyAddress,\r\n      tokenAddress\r\n    );\r\n\r\n    projects[msg.sender].push(address(project));\r\n    projectCount += 1;\r\n\r\n    emit projectAdded(repoId, title, budget, 0, msg.sender);\r\n\r\n    return address(project);\r\n  }\r\n\r\n  function getContractAddress() public view returns (address[] memory) {\r\n    return projects[msg.sender];\r\n  }\r\n\r\n  function getProjectsCount() public view returns (uint) {\r\n    return projectCount;\r\n  }\r\n}\r\n",
  "sourcePath": "C:\\Users\\abhinavanshul\\contracts\\truffle-contracts\\contracts\\GitFundedGrantFactory.sol",
  "compiler": {
    "name": "solc",
    "version": "0.5.9+commit.e560f70d.Emscripten.clang"
  },
  "schemaVersion": "3.0.23",
  "updatedAt": "2020-06-02T13:56:30.969Z",
  "networkType": "ethereum",
  "devdoc": {
    "methods": {}
  },
  "userdoc": {
    "methods": {}
  }
}