{
  "contractName": "Governance",
  "abi": [
    {
      "constant": true,
      "inputs": [
        {
          "name": "",
          "type": "uint256"
        }
      ],
      "name": "proposals",
      "outputs": [
        {
          "name": "applicant",
          "type": "address"
        },
        {
          "name": "proposer",
          "type": "address"
        },
        {
          "name": "sponsor",
          "type": "address"
        },
        {
          "name": "sharesRequested",
          "type": "uint256"
        },
        {
          "name": "lootRequested",
          "type": "uint256"
        },
        {
          "name": "tributeOffered",
          "type": "uint256"
        },
        {
          "name": "tributeToken",
          "type": "address"
        },
        {
          "name": "paymentRequested",
          "type": "uint256"
        },
        {
          "name": "paymentToken",
          "type": "address"
        },
        {
          "name": "startingPeriod",
          "type": "uint256"
        },
        {
          "name": "yesVotes",
          "type": "uint256"
        },
        {
          "name": "noVotes",
          "type": "uint256"
        },
        {
          "name": "details",
          "type": "string"
        },
        {
          "name": "maxTotalSharesAndLootAtYesVote",
          "type": "uint256"
        }
      ],
      "payable": false,
      "stateMutability": "view",
      "type": "function"
    },
    {
      "constant": true,
      "inputs": [
        {
          "name": "",
          "type": "address"
        }
      ],
      "name": "members",
      "outputs": [
        {
          "name": "delegateKey",
          "type": "address"
        },
        {
          "name": "shares",
          "type": "uint256"
        },
        {
          "name": "exists",
          "type": "bool"
        },
        {
          "name": "highestIndexYesVote",
          "type": "uint256"
        }
      ],
      "payable": false,
      "stateMutability": "view",
      "type": "function"
    },
    {
      "constant": true,
      "inputs": [
        {
          "name": "",
          "type": "uint256"
        }
      ],
      "name": "approvedTokens",
      "outputs": [
        {
          "name": "",
          "type": "address"
        }
      ],
      "payable": false,
      "stateMutability": "view",
      "type": "function"
    },
    {
      "constant": true,
      "inputs": [],
      "name": "emergencyProcessingWait",
      "outputs": [
        {
          "name": "",
          "type": "uint256"
        }
      ],
      "payable": false,
      "stateMutability": "view",
      "type": "function"
    },
    {
      "constant": true,
      "inputs": [],
      "name": "totalShares",
      "outputs": [
        {
          "name": "",
          "type": "uint256"
        }
      ],
      "payable": false,
      "stateMutability": "view",
      "type": "function"
    },
    {
      "constant": true,
      "inputs": [
        {
          "name": "",
          "type": "uint256"
        }
      ],
      "name": "proposalQueue",
      "outputs": [
        {
          "name": "",
          "type": "uint256"
        }
      ],
      "payable": false,
      "stateMutability": "view",
      "type": "function"
    },
    {
      "constant": true,
      "inputs": [
        {
          "name": "",
          "type": "address"
        }
      ],
      "name": "memberAddressByDelegateKey",
      "outputs": [
        {
          "name": "",
          "type": "address"
        }
      ],
      "payable": false,
      "stateMutability": "view",
      "type": "function"
    },
    {
      "constant": true,
      "inputs": [],
      "name": "emergencyWarning",
      "outputs": [
        {
          "name": "",
          "type": "bool"
        }
      ],
      "payable": false,
      "stateMutability": "view",
      "type": "function"
    },
    {
      "constant": true,
      "inputs": [],
      "name": "gracePeriodLength",
      "outputs": [
        {
          "name": "",
          "type": "uint256"
        }
      ],
      "payable": false,
      "stateMutability": "view",
      "type": "function"
    },
    {
      "constant": true,
      "inputs": [],
      "name": "result",
      "outputs": [
        {
          "name": "",
          "type": "uint256"
        }
      ],
      "payable": false,
      "stateMutability": "view",
      "type": "function"
    },
    {
      "constant": true,
      "inputs": [],
      "name": "summoningTime",
      "outputs": [
        {
          "name": "",
          "type": "uint256"
        }
      ],
      "payable": false,
      "stateMutability": "view",
      "type": "function"
    },
    {
      "constant": true,
      "inputs": [],
      "name": "votingPeriodLength",
      "outputs": [
        {
          "name": "",
          "type": "uint256"
        }
      ],
      "payable": false,
      "stateMutability": "view",
      "type": "function"
    },
    {
      "constant": true,
      "inputs": [],
      "name": "proposalDeposit",
      "outputs": [
        {
          "name": "",
          "type": "uint256"
        }
      ],
      "payable": false,
      "stateMutability": "view",
      "type": "function"
    },
    {
      "constant": true,
      "inputs": [],
      "name": "guildBank",
      "outputs": [
        {
          "name": "",
          "type": "address"
        }
      ],
      "payable": false,
      "stateMutability": "view",
      "type": "function"
    },
    {
      "constant": true,
      "inputs": [],
      "name": "lastEmergencyProposalIndex",
      "outputs": [
        {
          "name": "",
          "type": "uint256"
        }
      ],
      "payable": false,
      "stateMutability": "view",
      "type": "function"
    },
    {
      "constant": true,
      "inputs": [],
      "name": "periodDuration",
      "outputs": [
        {
          "name": "",
          "type": "uint256"
        }
      ],
      "payable": false,
      "stateMutability": "view",
      "type": "function"
    },
    {
      "constant": true,
      "inputs": [],
      "name": "depositToken",
      "outputs": [
        {
          "name": "",
          "type": "address"
        }
      ],
      "payable": false,
      "stateMutability": "view",
      "type": "function"
    },
    {
      "constant": true,
      "inputs": [],
      "name": "proposalCount",
      "outputs": [
        {
          "name": "",
          "type": "uint256"
        }
      ],
      "payable": false,
      "stateMutability": "view",
      "type": "function"
    },
    {
      "constant": true,
      "inputs": [],
      "name": "admin",
      "outputs": [
        {
          "name": "",
          "type": "address"
        }
      ],
      "payable": false,
      "stateMutability": "view",
      "type": "function"
    },
    {
      "inputs": [
        {
          "name": "_admin",
          "type": "address"
        },
        {
          "name": "_approvedTokens",
          "type": "address[1]"
        },
        {
          "name": "_periodDuration",
          "type": "uint256"
        },
        {
          "name": "_votingPeriodLength",
          "type": "uint256"
        },
        {
          "name": "_gracePeriodLength",
          "type": "uint256"
        },
        {
          "name": "_emergencyProcessingWait",
          "type": "uint256"
        },
        {
          "name": "_bailoutWait",
          "type": "uint256"
        },
        {
          "name": "_proposalDeposit",
          "type": "uint256"
        },
        {
          "name": "_dilutionBound",
          "type": "uint256"
        },
        {
          "name": "_processingReward",
          "type": "uint256"
        }
      ],
      "payable": false,
      "stateMutability": "nonpayable",
      "type": "constructor"
    },
    {
      "anonymous": false,
      "inputs": [
        {
          "indexed": false,
          "name": "proposalIndex",
          "type": "uint256"
        },
        {
          "indexed": true,
          "name": "delegateKey",
          "type": "address"
        },
        {
          "indexed": true,
          "name": "memberAddress",
          "type": "address"
        },
        {
          "indexed": true,
          "name": "applicant",
          "type": "address"
        },
        {
          "indexed": false,
          "name": "sharesRequested",
          "type": "uint256"
        },
        {
          "indexed": false,
          "name": "lootRequested",
          "type": "uint256"
        },
        {
          "indexed": false,
          "name": "tributeOffered",
          "type": "uint256"
        },
        {
          "indexed": false,
          "name": "tributeToken",
          "type": "address"
        },
        {
          "indexed": false,
          "name": "paymentRequested",
          "type": "uint256"
        },
        {
          "indexed": false,
          "name": "paymentToken",
          "type": "address"
        }
      ],
      "name": "SubmitProposal",
      "type": "event"
    },
    {
      "anonymous": false,
      "inputs": [
        {
          "indexed": true,
          "name": "delegateKey",
          "type": "address"
        },
        {
          "indexed": true,
          "name": "memberAddress",
          "type": "address"
        },
        {
          "indexed": false,
          "name": "proposalIndex",
          "type": "uint256"
        },
        {
          "indexed": false,
          "name": "proposalQueueIndex",
          "type": "uint256"
        },
        {
          "indexed": false,
          "name": "startingPeriod",
          "type": "uint256"
        }
      ],
      "name": "SponsorProposal",
      "type": "event"
    },
    {
      "anonymous": false,
      "inputs": [
        {
          "indexed": true,
          "name": "proposalIndex",
          "type": "uint256"
        },
        {
          "indexed": true,
          "name": "delegateKey",
          "type": "address"
        },
        {
          "indexed": true,
          "name": "memberAddress",
          "type": "address"
        },
        {
          "indexed": false,
          "name": "uintVote",
          "type": "uint8"
        }
      ],
      "name": "SubmitVote",
      "type": "event"
    },
    {
      "anonymous": false,
      "inputs": [
        {
          "indexed": true,
          "name": "proposalIndex",
          "type": "uint256"
        },
        {
          "indexed": true,
          "name": "proposalId",
          "type": "uint256"
        },
        {
          "indexed": false,
          "name": "didPass",
          "type": "bool"
        }
      ],
      "name": "ProcessProposal",
      "type": "event"
    },
    {
      "anonymous": false,
      "inputs": [
        {
          "indexed": true,
          "name": "memberAddress",
          "type": "address"
        },
        {
          "indexed": false,
          "name": "sharesToBurn",
          "type": "uint256"
        },
        {
          "indexed": false,
          "name": "lootToBurn",
          "type": "uint256"
        }
      ],
      "name": "Ragequit",
      "type": "event"
    },
    {
      "anonymous": false,
      "inputs": [
        {
          "indexed": true,
          "name": "proposalIndex",
          "type": "uint256"
        },
        {
          "indexed": false,
          "name": "applicantAddress",
          "type": "address"
        }
      ],
      "name": "CancelProposal",
      "type": "event"
    },
    {
      "anonymous": false,
      "inputs": [
        {
          "indexed": true,
          "name": "memberAddress",
          "type": "address"
        },
        {
          "indexed": false,
          "name": "newDelegateKey",
          "type": "address"
        }
      ],
      "name": "UpdateDelegateKey",
      "type": "event"
    },
    {
      "anonymous": false,
      "inputs": [
        {
          "indexed": true,
          "name": "admin",
          "type": "address"
        },
        {
          "indexed": false,
          "name": "shares",
          "type": "uint256"
        }
      ],
      "name": "SummonComplete",
      "type": "event"
    },
    {
      "constant": false,
      "inputs": [
        {
          "name": "applicant",
          "type": "address"
        },
        {
          "name": "sharesRequested",
          "type": "uint256"
        },
        {
          "name": "lootRequested",
          "type": "uint256"
        },
        {
          "name": "tributeOffered",
          "type": "uint256"
        },
        {
          "name": "tributeToken",
          "type": "address"
        },
        {
          "name": "paymentRequested",
          "type": "uint256"
        },
        {
          "name": "paymentToken",
          "type": "address"
        },
        {
          "name": "details",
          "type": "string"
        }
      ],
      "name": "submitProposal",
      "outputs": [
        {
          "name": "proposalId",
          "type": "uint256"
        }
      ],
      "payable": false,
      "stateMutability": "nonpayable",
      "type": "function"
    },
    {
      "constant": false,
      "inputs": [
        {
          "name": "proposalId",
          "type": "uint256"
        }
      ],
      "name": "sponsorProposal",
      "outputs": [
        {
          "name": "",
          "type": "uint256"
        }
      ],
      "payable": false,
      "stateMutability": "nonpayable",
      "type": "function"
    },
    {
      "constant": false,
      "inputs": [
        {
          "name": "proposalIndex",
          "type": "uint256"
        },
        {
          "name": "uintVote",
          "type": "uint8"
        }
      ],
      "name": "submitVote",
      "outputs": [],
      "payable": false,
      "stateMutability": "nonpayable",
      "type": "function"
    },
    {
      "constant": false,
      "inputs": [
        {
          "name": "proposalIndex",
          "type": "uint256"
        }
      ],
      "name": "processProposal",
      "outputs": [],
      "payable": false,
      "stateMutability": "nonpayable",
      "type": "function"
    },
    {
      "constant": true,
      "inputs": [],
      "name": "getCurrentPeriod",
      "outputs": [
        {
          "name": "",
          "type": "uint256"
        }
      ],
      "payable": false,
      "stateMutability": "view",
      "type": "function"
    },
    {
      "constant": true,
      "inputs": [],
      "name": "getProposalQueueLength",
      "outputs": [
        {
          "name": "",
          "type": "uint256"
        }
      ],
      "payable": false,
      "stateMutability": "view",
      "type": "function"
    },
    {
      "constant": true,
      "inputs": [
        {
          "name": "proposalId",
          "type": "uint256"
        }
      ],
      "name": "getProposalFlags",
      "outputs": [
        {
          "name": "",
          "type": "bool[6]"
        }
      ],
      "payable": false,
      "stateMutability": "view",
      "type": "function"
    },
    {
      "constant": true,
      "inputs": [
        {
          "name": "highestIndexYesVote",
          "type": "uint256"
        }
      ],
      "name": "canRagequit",
      "outputs": [
        {
          "name": "",
          "type": "bool"
        }
      ],
      "payable": false,
      "stateMutability": "view",
      "type": "function"
    },
    {
      "constant": true,
      "inputs": [
        {
          "name": "startingPeriod",
          "type": "uint256"
        }
      ],
      "name": "hasVotingPeriodExpired",
      "outputs": [
        {
          "name": "",
          "type": "bool"
        }
      ],
      "payable": false,
      "stateMutability": "view",
      "type": "function"
    },
    {
      "constant": true,
      "inputs": [
        {
          "name": "memberAddress",
          "type": "address"
        },
        {
          "name": "proposalIndex",
          "type": "uint256"
        }
      ],
      "name": "getMemberProposalVote",
      "outputs": [
        {
          "name": "",
          "type": "uint8"
        }
      ],
      "payable": false,
      "stateMutability": "view",
      "type": "function"
    },
    {
      "constant": true,
      "inputs": [],
      "name": "getProposal",
      "outputs": [
        {
          "name": "",
          "type": "uint256"
        }
      ],
      "payable": false,
      "stateMutability": "view",
      "type": "function"
    },
    {
      "constant": true,
      "inputs": [],
      "name": "getResult",
      "outputs": [
        {
          "name": "",
          "type": "uint256"
        }
      ],
      "payable": false,
      "stateMutability": "view",
      "type": "function"
    }
  ],
  "bytecode": "0x608060405260006009819055600a819055600c805460ff19169055600d553480156200002a57600080fd5b5060405162002d5238038062002d5283398181016040526101408110156200005157600080fd5b50805160408201516060830151608084015160a085015160c086015160e08701516101008801516101208901516000805460ff191660011790559798602001976001600160a01b038a166200010757604080517f08c379a000000000000000000000000000000000000000000000000000000000815260206004820152601160248201527f61646d696e2063616e6e6f742062652030000000000000000000000000000000604482015290519081900360640190fd5b600088116200017757604080517f08c379a000000000000000000000000000000000000000000000000000000000815260206004820152601b60248201527f5f706572696f644475726174696f6e2063616e6e6f7420626520300000000000604482015290519081900360640190fd5b60008711620001e757604080517f08c379a000000000000000000000000000000000000000000000000000000000815260206004820152601f60248201527f5f766f74696e67506572696f644c656e6774682063616e6e6f74206265203000604482015290519081900360640190fd5b670de0b6b3a76400008711156200024a576040517f08c379a000000000000000000000000000000000000000000000000000000000815260040180806020018281038252602181526020018062002d0d6021913960400191505060405180910390fd5b670de0b6b3a7640000861115620002c257604080517f08c379a000000000000000000000000000000000000000000000000000000000815260206004820181905260248201527f5f6772616365506572696f644c656e6774682065786365656473206c696d6974604482015290519081900360640190fd5b600085116200031d576040517f08c379a000000000000000000000000000000000000000000000000000000000815260040180806020018281038252602481526020018062002d2e6024913960400191505060405180910390fd5b60008054610100600160a81b0319166101006001600160a01b038d160217815589906020020151600780546001600160a01b0319166001600160a01b0390921691909117905560005b60018110156200044e5760008a82600181106200037f57fe5b60200201516001600160a01b03161415620003fb57604080517f08c379a000000000000000000000000000000000000000000000000000000000815260206004820152601a60248201527f5f617070726f766564546f6b656e2063616e6e6f742062652030000000000000604482015290519081900360640190fd5b600e8a82600181106200040a57fe5b6020908102919091015182546001808201855560009485529290932090920180546001600160a01b0319166001600160a01b03909316929092179091550162000366565b506040516200045d9062000586565b604051809103906000f0801580156200047a573d6000803e3d6000fd5b50600880546001600160a01b03199081166001600160a01b039384161790915560018a815560028a815560038a815560048a9055600588905542600655604080516080810182526000805461010090819004891680845260208085018981528587018a815260608701868152938652600f8352878620965187548d16908e161787559051868b015551978501805460ff1916981515989098179097555192909401919091558054839004871680825260108552828220805490971617909555600a8490559354845193845293519304909316927f03995a801b13c36325306deef859ef977ce61c6e15a794281bf969d20482522792918290030190a25050505050505050505062000594565b61051880620027f583390190565b61225180620005a46000396000f3fe608060405234801561001057600080fd5b50600436106101e55760003560e01c80638340bbce1161010f578063b2643aab116100a2578063da35c66411610071578063da35c664146106a8578063de292789146106b0578063e63bc62d146106b8578063f851a440146106d5576101e5565b8063b2643aab1461063b578063b470aade14610690578063b9e2bea014610698578063c89039c5146106a0576101e5565b806399653fbe116100de57806399653fbe146105e6578063a3dc38001461060e578063a42afd291461062b578063a44a5e7e14610633576101e5565b80638340bbce1461059c5780638b15a605146105a45780639425a476146105ac5780639746d940146105c9576101e5565b80633b214a741161018757806363858f2d1161015657806363858f2d1461057c5780636537214714610584578063797daf701461058c5780637d5b6c7214610594576101e5565b80633b214a741461043d578063402c17941461045a578063505afd7414610480578063590f940b1461049c576101e5565b806308ae4b0c116101c357806308ae4b0c1461039e5780631dafede0146103f45780631e2362ec1461042d5780633a98ef3914610435576101e5565b8063013cf08b146101ea578063044a0ca814610334578063086146d214610384575b600080fd5b6102076004803603602081101561020057600080fd5b50356106dd565b604051808f6001600160a01b03166001600160a01b031681526020018e6001600160a01b03166001600160a01b031681526020018d6001600160a01b03166001600160a01b031681526020018c81526020018b81526020018a8152602001896001600160a01b03166001600160a01b03168152602001888152602001876001600160a01b03166001600160a01b0316815260200186815260200185815260200184815260200180602001838152602001828103825284818151815260200191508051906020019080838360005b838110156102ec5781810151838201526020016102d4565b50505050905090810190601f1680156103195780820380516001836020036101000a031916815260200191505b509f5050505050505050505050505050505060405180910390f35b6103606004803603604081101561034a57600080fd5b506001600160a01b038135169060200135610840565b6040518082600281111561037057fe5b60ff16815260200191505060405180910390f35b61038c610947565b60408051918252519081900360200190f35b6103c4600480360360208110156103b457600080fd5b50356001600160a01b0316610976565b604080516001600160a01b0390951685526020850193909352901515838301526060830152519081900360800190f35b6104116004803603602081101561040a57600080fd5b50356109ad565b604080516001600160a01b039092168252519081900360200190f35b61038c6109d4565b61038c6109da565b61038c6004803603602081101561045357600080fd5b50356109e0565b6104116004803603602081101561047057600080fd5b50356001600160a01b03166109fe565b610488610a19565b604080519115158252519081900360200190f35b61038c60048036036101008110156104b357600080fd5b6001600160a01b038235811692602081013592604082013592606083013592608081013582169260a08201359260c0830135169190810190610100810160e082013564010000000081111561050757600080fd5b82018360208201111561051957600080fd5b8035906020019184600183028401116401000000008311171561053b57600080fd5b91908080601f016020809104026020016040519081016040528093929190818152602001838380828437600092019190915250929550610a22945050505050565b61038c610b5d565b61038c610b63565b61038c610b69565b61038c610b6f565b61038c610b75565b61038c610b7b565b610488600480360360208110156105c257600080fd5b5035610b81565b61038c600480360360208110156105df57600080fd5b5035610ba8565b61060c600480360360408110156105fc57600080fd5b508035906020013560ff16610ee5565b005b6104886004803603602081101561062457600080fd5b50356112eb565b610411611394565b61038c6113a3565b6106586004803603602081101561065157600080fd5b50356113a9565b604051808260c080838360005b8381101561067d578181015183820152602001610665565b5050505090500191505060405180910390f35b61038c611413565b61038c611419565b61041161141f565b61038c61142e565b61038c611434565b61060c600480360360208110156106ce57600080fd5b503561143a565b610411611736565b60116020528060005260406000206000915090508060000160009054906101000a90046001600160a01b0316908060010160009054906101000a90046001600160a01b0316908060020160009054906101000a90046001600160a01b0316908060030154908060040154908060050154908060060160009054906101000a90046001600160a01b0316908060070154908060080160009054906101000a90046001600160a01b03169080600901549080600a01549080600b01549080600d018054600181600116156101000203166002900480601f0160208091040260200160405190810160405280929190818152602001828054600181600116156101000203166002900480156108305780601f1061080557610100808354040283529160200191610830565b820191906000526020600020905b81548152906001019060200180831161081357829003601f168201915b50505050509080600e015490508e565b6001600160a01b0382166000908152600f602052604081206002015460ff166108a8576040805162461bcd60e51b81526020600482015260156024820152741b595b58995c88191bd95cc81b9bdd08195e1a5cdd605a1b604482015290519081900360640190fd5b60125482106108f8576040805162461bcd60e51b81526020600482015260176024820152761c1c9bdc1bdcd85b08191bd95cc81b9bdd08195e1a5cdd604a1b604482015290519081900360640190fd5b601160006012848154811061090957fe5b6000918252602080832090910154835282810193909352604091820181206001600160a01b0387168252600f0190925290205460ff16905092915050565b60006109706001546109646006544261174a90919063ffffffff16565b9063ffffffff61175f16565b90505b90565b600f6020526000908152604090208054600182015460028301546003909301546001600160a01b0390921692909160ff9091169084565b600e81815481106109ba57fe5b6000918252602090912001546001600160a01b0316905081565b60045481565b600a5481565b601281815481106109ed57fe5b600091825260209091200154905081565b6010602052600090815260409020546001600160a01b031681565b600c5460ff1681565b6000805460ff16610a68576040805162461bcd60e51b815260206004820152601f6024820152600080516020612172833981519152604482015290519081900360640190fd5b6000805460ff19169055670de0b6b3a7640000881115610acf576040805162461bcd60e51b815260206004820152601960248201527f746f6f206d616e79207368617265732072657175657374656400000000000000604482015290519081900360640190fd5b6001600160a01b038916610b22576040805162461bcd60e51b815260206004820152601560248201527406170706c6963616e742063616e6e6f74206265203605c1b604482015290519081900360640190fd5b610b2a611f66565b610b3b8a8a8a8a8a8a8a8a89611781565b5050600954600019016000805460ff1916600117905598975050505050505050565b60035481565b600b5481565b60125490565b60065481565b60025481565b60055481565b6000610b9860025483611a4290919063ffffffff16565b610ba0610947565b101592915050565b6000805460ff16610bee576040805162461bcd60e51b815260206004820152601f6024820152600080516020612172833981519152604482015290519081900360640190fd5b6000805460ff19168155338152601060209081526040808320546001600160a01b03168352600f909152902060010154610c60576040805162461bcd60e51b815260206004820152600e60248201526d6e6f7420612064656c656761746560901b604482015290519081900360640190fd5b600082815260116020526040902060018101546001600160a01b0316610ccd576040805162461bcd60e51b815260206004820181905260248201527f70726f706f73616c206d7573742068617665206265656e2070726f706f736564604482015290519081900360640190fd5b600c81015460ff1615610d115760405162461bcd60e51b81526004018080602001828103825260238152602001806121b56023913960400191505060405180910390fd5b600c8101546301000000900460ff1615610d72576040805162461bcd60e51b815260206004820152601b60248201527f70726f706f73616c20686173206265656e2063616e63656c6c65640000000000604482015290519081900360640190fd5b6000610de76001610ddb610d84610947565b60125415610dd35760128054601191600091610da790600163ffffffff61174a16565b81548110610db157fe5b9060005260206000200154815260200190815260200160002060090154610dd6565b60005b611a5b565b9063ffffffff611a4216565b60098301819055336000818152601060205260408120546002860180546001600160a01b0319166001600160a01b039092169182179055600c8601805460ff19166001908117909155601280548083018255938190527fbb8a6a4669ba250d26cd7a459eca9d215f8307e33aebe50379bc5a3617ec34449093018990559154939450928392917f2a383a979381335e3eb401ac01dd8083e024ff0256bf5338456ffc0063390bbd918991610e9b919061174a565b604080519283526020830191909152818101879052519081900360600190a3601254610ece90600163ffffffff61174a16565b93505050506000805460ff19166001179055919050565b60005460ff16610f2a576040805162461bcd60e51b815260206004820152601f6024820152600080516020612172833981519152604482015290519081900360640190fd5b6000805460ff19168155338152601060209081526040808320546001600160a01b03168352600f909152902060010154610f9c576040805162461bcd60e51b815260206004820152600e60248201526d6e6f7420612064656c656761746560901b604482015290519081900360640190fd5b336000908152601060209081526040808320546001600160a01b0316808452600f9092529091206012548410611013576040805162461bcd60e51b81526020600482015260176024820152761c1c9bdc1bdcd85b08191bd95cc81b9bdd08195e1a5cdd604a1b604482015290519081900360640190fd5b6000601160006012878154811061102657fe5b90600052602060002001548152602001908152602001600020905060038460ff161061108f576040805162461bcd60e51b81526020600482015260136024820152726d757374206265206c657373207468616e203360681b604482015290519081900360640190fd5b60008460ff1660028111156110a057fe5b90506110af8260090154610b81565b156110eb5760405162461bcd60e51b81526004018080602001828103825260228152602001806121d86022913960400191505060405180910390fd5b6001600160a01b0384166000908152600f8301602052604081205460ff16600281111561111457fe5b14611166576040805162461bcd60e51b815260206004820152601860248201527f6d656d6265722068617320616c726561647920766f7465640000000000000000604482015290519081900360640190fd5b600181600281111561117457fe5b148061118b5750600281600281111561118957fe5b145b6111dc576040805162461bcd60e51b815260206004820152601d60248201527f766f7465206d7573742062652065697468657220596573206f72204e6f000000604482015290519081900360640190fd5b6001600160a01b0384166000908152600f830160205260409020805482919060ff1916600183600281111561120d57fe5b0217905550600181600281111561122057fe5b141561125d576001830154600a83015461123f9163ffffffff611a4216565b600a830155600383015486111561125857600383018690555b611290565b600281600281111561126b57fe5b1415611290576001830154600b83015461128a9163ffffffff611a4216565b600b8301555b6040805160ff8716815290516001600160a01b03861691339189917f29bf0061f2faa9daa482f061b116195432d435536d8af4ae6b3c5dd78223679b919081900360200190a450506000805460ff1916600117905550505050565b601254600090821061133e576040805162461bcd60e51b81526020600482015260176024820152761c1c9bdc1bdcd85b08191bd95cc81b9bdd08195e1a5cdd604a1b604482015290519081900360640190fd5b601160006012848154811061134f57fe5b90600052602060002001548152602001908152602001600020600c0160016006811061137757fe5b602081049091015460ff601f9092166101000a9004169050919050565b6008546001600160a01b031681565b600d5481565b6113b1611f66565b600082815260116020526040808220815160c081019283905292600c909101916006918390855b825461010083900a900460ff1615158152602060019283018181049485019490930390920291018084116113d8575094979650505050505050565b60015481565b60095490565b6007546001600160a01b031681565b60095481565b600b5490565b60005460ff1661147f576040805162461bcd60e51b815260206004820152601f6024820152600080516020612172833981519152604482015290519081900360640190fd5b6000805460ff1916905561149281611a72565b6000601282815481106114a157fe5b600091825260208083209190910154808352601190915260408220600c8101805461ff00191661010017905590925090806114db85611d83565b91509150670de0b6b3a76400006115018460030154600a54611a4290919063ffffffff16565b111561150c57600091505b81156116e3576001600b55600c8301805462ff000019166201000017905582546001600160a01b03166000908152600f602052604090206002015460ff16156115a257600383015483546001600160a01b03166000908152600f60205260409020600101546115809163ffffffff611a4216565b83546001600160a01b03166000908152600f60205260409020600101556116c4565b82546001600160a01b039081166000908152601060209081526040808320549093168252600f9052206002015460ff16156116265782546001600160a01b0390811660009081526010602090815260408083205490931680835283832080546001600160a01b03199081168317909155600f90925292909120805490911690911790555b6040805160808101825284546001600160a01b0390811680835260038088015460208086019182526001868801818152600060608901818152968152600f8452898120985189549089166001600160a01b0319918216178a559451928901929092555160028801805491151560ff19909216919091179055935195909201949094558754909216808252601090925292909220805490911690911790555b6003830154600a546116db9163ffffffff611a4216565b600a556116e9565b6002600b555b6040805183151581529051859187917f86f74240ecee9e4230d26ff92e17fee978460d9c0f78f5c88b2864c9e7a494279181900360200190a350506000805460ff19166001179055505050565b60005461010090046001600160a01b031681565b60008282111561175957600080fd5b50900390565b600080821161176d57600080fd5b600082848161177857fe5b04949350505050565b611789611f84565b604051806101e001604052808b6001600160a01b03168152602001336001600160a01b0316815260200160006001600160a01b031681526020018a8152602001898152602001888152602001876001600160a01b03168152602001868152602001856001600160a01b03168152602001600081526020016000815260200160008152602001838152602001848152602001600081525090508060116000600954815260200190815260200160002060008201518160000160006101000a8154816001600160a01b0302191690836001600160a01b0316021790555060208201518160010160006101000a8154816001600160a01b0302191690836001600160a01b0316021790555060408201518160020160006101000a8154816001600160a01b0302191690836001600160a01b03160217905550606082015181600301556080820151816004015560a0820151816005015560c08201518160060160006101000a8154816001600160a01b0302191690836001600160a01b0316021790555060e082015181600701556101008201518160080160006101000a8154816001600160a01b0302191690836001600160a01b03160217905550610120820151816009015561014082015181600a015561016082015181600b015561018082015181600c0190600661197a92919061202d565b506101a0820151805161199791600d8401916020909101906120bf565b506101c09190910151600e90910155336000818152601060209081526040918290205460095483519081529182018d90528183018c9052606082018b90526001600160a01b038a8116608084015260a083018a905288811660c0840152925190831693928e1692849290917f1facc413faf060d5cc5c8bc12d8fe29e5c530eb98e2475c76733ec749787a7509181900360e00190a45050600980546001019055505050505050505050565b600082820183811015611a5457600080fd5b9392505050565b600081831015611a6b5781611a54565b5090919050565b6012548110611ac2576040805162461bcd60e51b81526020600482015260176024820152761c1c9bdc1bdcd85b08191bd95cc81b9bdd08195e1a5cdd604a1b604482015290519081900360640190fd5b611aca611f84565b6011600060128481548110611adb57fe5b6000918252602080832091909101548352828101939093526040918201812082516101e08101845281546001600160a01b039081168252600183015481169582019590955260028201548516818501526003820154606082015260048201546080820152600582015460a0820152600680830154861660c080840191909152600784015460e084015260088401549096166101008301526009830154610120830152600a830154610140830152600b83015461016083015284519586019485905290949193610180860193600c86019291908390855b825461010083900a900460ff161515815260206001928301818104948501949093039092029101808411611bb157505050928452505050600d8201805460408051602060026001851615610100026000190190941693909304601f8101849004840282018401909252818152938201939291830182828015611c745780601f10611c4957610100808354040283529160200191611c74565b820191906000526020600020905b815481529060010190602001808311611c5757829003601f168201915b50505050508152602001600e820154815250509050806101800151600160068110611c9b57fe5b602002015115611cdc5760405162461bcd60e51b81526004018080602001828103825260238152602001806121fa6023913960400191505060405180910390fd5b811580611d445750601160006012611cfb85600163ffffffff61174a16565b81548110611d0557fe5b90600052602060002001548152602001908152602001600020600c01600160068110611d2d57fe5b602081049091015460ff601f9092166101000a9004165b611d7f5760405162461bcd60e51b81526004018080602001828103825260238152602001806121926023913960400191505060405180910390fd5b5050565b600080611d8e611f84565b6011600060128681548110611d9f57fe5b6000918252602080832091909101548352828101939093526040918201812082516101e08101845281546001600160a01b039081168252600183015481169582019590955260028201548516818501526003820154606082015260048201546080820152600582015460a0820152600680830154861660c080840191909152600784015460e084015260088401549096166101008301526009830154610120830152600a830154610140830152600b83015461016083015284519586019485905290949193610180860193600c86019291908390855b825461010083900a900460ff161515815260206001928301818104948501949093039092029101808411611e7557505050928452505050600d8201805460408051602060026001851615610100026000190190941693909304601f8101849004840282018401909252818152938201939291830182828015611f385780601f10611f0d57610100808354040283529160200191611f38565b820191906000526020600020905b815481529060010190602001808311611f1b57829003601f168201915b5050509183525050600e91909101546020909101526101608101516101409091015111946000945092505050565b6040518060c001604052806006906020820280388339509192915050565b60405180610280016040528060006001600160a01b0316815260200160006001600160a01b0316815260200160006001600160a01b0316815260200160008152602001600081526020016000815260200160006001600160a01b031681526020016000815260200160006001600160a01b03168152602001600081526020016000815260200160008152602001612019611f66565b815260200160608152602001600081525090565b6001830191839082156120af5791602002820160005b8382111561208057835183826101000a81548160ff0219169083151502179055509260200192600101602081600001049283019260010302612043565b80156120ad5782816101000a81549060ff0219169055600101602081600001049283019260010302612080565b505b506120bb929150612139565b5090565b828054600181600116156101000203166002900490600052602060002090601f016020900481019282601f1061210057805160ff191683800117855561212d565b8280016001018555821561212d579182015b8281111561212d578251825591602001919060010190612112565b506120bb929150612157565b61097391905b808211156120bb57805460ff1916815560010161213f565b61097391905b808211156120bb576000815560010161215d56fe5265656e7472616e637947756172643a207265656e7472616e742063616c6c0070726576696f75732070726f706f73616c206d7573742062652070726f63657373656470726f706f73616c2068617320616c7265616479206265656e2073706f6e736f72656470726f706f73616c20766f74696e6720706572696f6420686173206578706972656470726f706f73616c2068617320616c7265616479206265656e2070726f636573736564a265627a7a723058204aadd5a65785cc61785723b74e34bd108bbb4ad24956b9ecd95015be2e7f326b64736f6c63430005090032608060405234801561001057600080fd5b50600080546001600160a01b031916331790556104e6806100326000396000f3fe608060405234801561001057600080fd5b50600436106100415760003560e01c806301e3366714610046578063732c8f57146100905780638da5cb5b1461014f575b600080fd5b61007c6004803603606081101561005c57600080fd5b506001600160a01b03813581169160208101359091169060400135610173565b604080519115158252519081900360200190f35b61007c600480360360808110156100a657600080fd5b6001600160a01b0382351691602081013591604082013591908101906080810160608201356401000000008111156100dd57600080fd5b8201836020820111156100ef57600080fd5b8035906020019184602083028401116401000000008311171561011157600080fd5b91908080602002602001604051908101604052809392919081815260200183836020028082843760009201919091525092955061026c945050505050565b61015761044e565b604080516001600160a01b039092168252519081900360200190f35b600080546001600160a01b0316331461018b57600080fd5b836001600160a01b0316836001600160a01b03167f2717ead6b9200dd235aad468c9809ea400fe33ac69b5bfaa6d3e90fc922b6398846040518082815260200191505060405180910390a3836001600160a01b031663a9059cbb84846040518363ffffffff1660e01b815260040180836001600160a01b03166001600160a01b0316815260200182815260200192505050602060405180830381600087803b15801561023657600080fd5b505af115801561024a573d6000803e3d6000fd5b505050506040513d602081101561026057600080fd5b505190505b9392505050565b600080546001600160a01b0316331461028457600080fd5b60005b82518110156104425760006103318483815181106102a157fe5b60200260200101516001600160a01b03166370a08231306040518263ffffffff1660e01b815260040180826001600160a01b03166001600160a01b0316815260200191505060206040518083038186803b1580156102fe57600080fd5b505afa158015610312573d6000803e3d6000fd5b505050506040513d602081101561032857600080fd5b5051878761045d565b905083828151811061033f57fe5b60200260200101516001600160a01b0316876001600160a01b03167f2717ead6b9200dd235aad468c9809ea400fe33ac69b5bfaa6d3e90fc922b6398836040518082815260200191505060405180910390a383828151811061039d57fe5b60200260200101516001600160a01b031663a9059cbb88836040518363ffffffff1660e01b815260040180836001600160a01b03166001600160a01b0316815260200182815260200192505050602060405180830381600087803b15801561040457600080fd5b505af1158015610418573d6000803e3d6000fd5b505050506040513d602081101561042e57600080fd5b505161043957600080fd5b50600101610287565b50600195945050505050565b6000546001600160a01b031681565b60008161046957600080fd5b8361047657506000610265565b8383028385828161048357fe5b04141561049c5782818161049357fe5b04915050610265565b838386816104a657fe5b04029594505050505056fea265627a7a72305820600a90e68081feae486f77ec58352ebe4f959e2362fac128a8d418122da6121464736f6c634300050900325f766f74696e67506572696f644c656e6774682065786365656473206c696d69745f656d657267656e637950726f63657373696e67576169742063616e6e6f742062652030",
  "source": "pragma solidity >=0.5.0 < 0.6.0;\r\n\r\nimport \"./oz/SafeMath.sol\";\r\nimport \"./oz/IERC20.sol\";\r\nimport \"./oz/ReentrancyGuard.sol\";\r\nimport \"./GuildBank.sol\";\r\n\r\ncontract Governance is ReentrancyGuard {\r\n    using SafeMath for uint256;\r\n\r\n    /***************\r\n    GLOBAL CONSTANTS\r\n    ***************/\r\n    address public admin; // initial singular shareholder, assists with bailouts\r\n\r\n    uint256 public periodDuration; // default = 17280 = 4.8 hours in seconds (5 periods per day)\r\n    uint256 public votingPeriodLength; // default = 35 periods (7 days)\r\n    uint256 public gracePeriodLength; // default = 35 periods (7 days)\r\n    uint256 public emergencyProcessingWait; // default = 35 periods (7 days)\r\n    //uint256 public bailoutWait; // default = 70 periods (14 days)\r\n    uint256 public proposalDeposit; // default = 10 ETH (~$1,000 worth of ETH at contract deployment)\r\n    //uint256 public dilutionBound; // default = 3 - maximum multiplier a YES voter will be obligated to pay in case of mass ragequit\r\n    //uint256 public processingReward; // default = 0.1 - amount of ETH to give to whoever processes a proposal\r\n    uint256 public summoningTime; // needed to determine the current period\r\n\r\n    IERC20 public depositToken; // deposit token contract reference; default = wETH\r\n    GuildBank public guildBank; // guild bank contract reference\r\n\r\n    // HARD-CODED LIMITS\r\n    // These numbers are quite arbitrary; they are small enough to avoid overflows when doing calculations\r\n    // with periods or shares, yet big enough to not limit reasonable use cases.\r\n    uint256 constant MAX_VOTING_PERIOD_LENGTH = 10**18; // maximum length of voting period\r\n    uint256 constant MAX_GRACE_PERIOD_LENGTH = 10**18; // maximum length of grace period\r\n    // uint256 constant MAX_BAILOUT_WAIT = 10**18; // maximum # periods after a jailed member can be ragekicked before they must be bailed out instead\r\n    // uint256 constant MAX_DILUTION_BOUND = 10**18; // maximum dilution bound\r\n    // uint256 constant MAX_NUMBER_OF_SHARES_AND_LOOT = 10**18; // maximum number of shares that can be minted\r\n    uint256 constant MAX_NUMBER_OF_SHARES = 10**18; // maximum number of shares that can be minted\r\n\r\n    // ***************\r\n    // EVENTS\r\n    // ***************\r\n    event SubmitProposal(uint256 proposalIndex, address indexed delegateKey, address indexed memberAddress, address indexed applicant, uint256 sharesRequested, uint256 lootRequested, uint256 tributeOffered, address tributeToken, uint256 paymentRequested, address paymentToken);\r\n    event SponsorProposal(address indexed delegateKey, address indexed memberAddress, uint256 proposalIndex, uint256 proposalQueueIndex, uint256 startingPeriod);\r\n    event SubmitVote(uint256 indexed proposalIndex, address indexed delegateKey, address indexed memberAddress, uint8 uintVote);\r\n    event ProcessProposal(uint256 indexed proposalIndex, uint256 indexed proposalId, bool didPass);\r\n    event Ragequit(address indexed memberAddress, uint256 sharesToBurn, uint256 lootToBurn);\r\n    event CancelProposal(uint256 indexed proposalIndex, address applicantAddress);\r\n    event UpdateDelegateKey(address indexed memberAddress, address newDelegateKey);\r\n    event SummonComplete(address indexed admin, uint256 shares);\r\n\r\n    // *******************\r\n    // INTERNAL ACCOUNTING\r\n    // *******************\r\n    uint256 public proposalCount = 0; // total proposals submitted\r\n    uint256 public totalShares = 0; // total shares across all members\r\n    //uint256 public totalLoot = 0; // total loot across all members\r\n    uint256 public result;\r\n\r\n    bool public emergencyWarning = false; // true if emergency processing has ever been triggered\r\n    uint256 public lastEmergencyProposalIndex = 0; // index of the last proposal which triggered emergency processing\r\n\r\n    enum Vote {\r\n        Null, // default value, counted as abstention\r\n        Yes,\r\n        No\r\n    }\r\n\r\n    struct Member {\r\n        address delegateKey; // the key responsible for submitting proposals and voting - defaults to member address unless updated\r\n        uint256 shares; // the # of voting shares assigned to this member\r\n        //uint256 loot; // the loot amount available to this member (combined with shares on ragequit)\r\n        bool exists; // always true once a member has been created\r\n        uint256 highestIndexYesVote; // highest proposal index # on which the member voted YES\r\n        //uint256 jailed; // set to proposalIndex of a passing guild kick proposal for this member, prevents voting on and sponsoring proposals\r\n    }\r\n\r\n    struct Proposal {\r\n        address applicant; // the applicant who wishes to become a member - this key will be used for withdrawals (doubles as guild kick target for gkick proposals)\r\n        address proposer; // the account that submitted the proposal (can be non-member)\r\n        address sponsor; // the member that sponsored the proposal (moving it into the queue)\r\n        uint256 sharesRequested; // the # of shares the applicant is requesting\r\n        uint256 lootRequested; // the amount of loot the applicant is requesting\r\n        uint256 tributeOffered; // amount of tokens offered as tribute\r\n        IERC20 tributeToken; // tribute token contract reference\r\n        uint256 paymentRequested; // amount of tokens requested as payment\r\n        IERC20 paymentToken; // payment token contract reference\r\n        uint256 startingPeriod; // the period in which voting can start for this proposal\r\n        uint256 yesVotes; // the total number of YES votes for this proposal\r\n        uint256 noVotes; // the total number of NO votes for this proposal\r\n        bool[6] flags; // [sponsored, processed, didPass, cancelled, whitelist, guildkick]\r\n        string details; // proposal details - could be IPFS hash, plaintext, or JSON\r\n        uint256 maxTotalSharesAndLootAtYesVote; // the maximum # of total shares encountered at a yes vote on this proposal\r\n        mapping(address => Vote) votesByMember; // the votes on this proposal by each member\r\n    }\r\n\r\n    // mapping(address => bool) public tokenWhitelist;\r\n    IERC20[] public approvedTokens;\r\n\r\n    // mapping(address => bool) public proposedToWhitelist;\r\n    // mapping(address => bool) public proposedToKick;\r\n\r\n    mapping(address => Member) public members;\r\n    mapping(address => address) public memberAddressByDelegateKey;\r\n\r\n    mapping(uint256 => Proposal) public proposals;\r\n\r\n    uint256[] public proposalQueue;\r\n\r\n    // modifier onlyMember {\r\n    //     require(members[msg.sender].shares > 0 || members[msg.sender].loot > 0, \"not a member\");\r\n    //     _;\r\n    // }\r\n    modifier onlyMember {\r\n        require(members[msg.sender].shares > 0 , \"not a member\");\r\n        _;\r\n    }\r\n\r\n    modifier onlyShareholder {\r\n        require(members[msg.sender].shares > 0, \"not a shareholder\");\r\n        _;\r\n    }\r\n\r\n    modifier onlyDelegate {\r\n        require(members[memberAddressByDelegateKey[msg.sender]].shares > 0, \"not a delegate\");\r\n        _;\r\n    }\r\n\r\n    constructor(\r\n        address _admin,\r\n        address[1] memory _approvedTokens,\r\n        uint256 _periodDuration,\r\n        uint256 _votingPeriodLength,\r\n        uint256 _gracePeriodLength,\r\n        uint256 _emergencyProcessingWait,\r\n        uint256 _bailoutWait,\r\n        uint256 _proposalDeposit,\r\n        uint256 _dilutionBound,\r\n        uint256 _processingReward\r\n    ) public {\r\n        require(_admin != address(0), \"admin cannot be 0\");\r\n        require(_periodDuration > 0, \"_periodDuration cannot be 0\");\r\n        require(_votingPeriodLength > 0, \"_votingPeriodLength cannot be 0\");\r\n        require(_votingPeriodLength <= MAX_VOTING_PERIOD_LENGTH, \"_votingPeriodLength exceeds limit\");\r\n        require(_gracePeriodLength <= MAX_GRACE_PERIOD_LENGTH, \"_gracePeriodLength exceeds limit\");\r\n        require(_emergencyProcessingWait > 0, \"_emergencyProcessingWait cannot be 0\");\r\n        // require(_bailoutWait > _emergencyProcessingWait, \"_bailoutWait must be greater than _emergencyProcessingWait\");\r\n        // require(_bailoutWait <= MAX_BAILOUT_WAIT, \"_bailoutWait exceeds limit\");\r\n        // require(_dilutionBound > 0, \"_dilutionBound cannot be 0\");\r\n        // require(_dilutionBound <= MAX_DILUTION_BOUND, \"_dilutionBound exceeds limit\");\r\n        require(_approvedTokens.length > 0, \"need at least one approved token\");\r\n        // require(_proposalDeposit >= _processingReward, \"_proposalDeposit cannot be smaller than _processingReward\");\r\n\r\n        admin = _admin;\r\n\r\n        depositToken = IERC20(_approvedTokens[0]);\r\n\r\n        for (uint256 i = 0; i < _approvedTokens.length; i++) {\r\n             require(_approvedTokens[i] != address(0), \"_approvedToken cannot be 0\");\r\n            // require(!tokenWhitelist[_approvedTokens[i]], \"duplicate approved token\");\r\n            //tokenWhitelist[_approvedTokens[i]] = true;\r\n            approvedTokens.push(IERC20(_approvedTokens[i]));\r\n        }\r\n\r\n        guildBank = new GuildBank();\r\n\r\n        periodDuration = _periodDuration;\r\n        votingPeriodLength = _votingPeriodLength;\r\n        gracePeriodLength = _gracePeriodLength;\r\n        emergencyProcessingWait = _emergencyProcessingWait;\r\n        // bailoutWait = _bailoutWait;\r\n        proposalDeposit = _proposalDeposit;\r\n        // dilutionBound = _dilutionBound;\r\n        // processingReward = _processingReward;\r\n\r\n        summoningTime = now;\r\n\r\n        //members[admin] = Member(admin, 1, 0, true, 0, 0);\r\n        members[admin] = Member(admin, 1, true, 0);\r\n        memberAddressByDelegateKey[admin] = admin;\r\n        totalShares = 1;\r\n\r\n        emit SummonComplete(admin, 1);\r\n    }\r\n\r\n    /*****************\r\n    PROPOSAL FUNCTIONS\r\n    *****************/\r\n    function submitProposal(\r\n        address applicant,\r\n        uint256 sharesRequested,\r\n        uint256 lootRequested,\r\n        uint256 tributeOffered,\r\n        address tributeToken,\r\n        uint256 paymentRequested,\r\n        address paymentToken,\r\n        string memory details\r\n    ) public nonReentrant returns (uint256 proposalId) {\r\n        //require(sharesRequested.add(lootRequested) <= MAX_NUMBER_OF_SHARES_AND_LOOT, \"too many shares requested\");\r\n        require(sharesRequested <= MAX_NUMBER_OF_SHARES, \"too many shares requested\");\r\n        // require(tokenWhitelist[tributeToken], \"tributeToken is not whitelisted\");\r\n        // require(tokenWhitelist[paymentToken], \"payment is not whitelisted\");\r\n        require(applicant != address(0), \"applicant cannot be 0\");\r\n        // require(members[applicant].jailed == 0, \"proposal applicant must not be jailed\");\r\n\r\n        // collect tribute from proposer and store it in the Moloch until the proposal is processed\r\n        //require(IERC20(tributeToken).transferFrom(msg.sender, address(this), tributeOffered), \"tribute token transfer failed\");\r\n\r\n        bool[6] memory flags; // [sponsored, processed, didPass, cancelled, whitelist, guildkick]\r\n\r\n        _submitProposal(applicant, sharesRequested, lootRequested, tributeOffered, tributeToken, paymentRequested, paymentToken, details, flags);\r\n        return proposalCount - 1; // return proposalId - contracts calling submit might want it\r\n    }\r\n\r\n    // function submitWhitelistProposal(address tokenToWhitelist, string memory details) public nonReentrant returns (uint256 proposalId) {\r\n    //     require(tokenToWhitelist != address(0), \"must provide token address\");\r\n    //     require(!tokenWhitelist[tokenToWhitelist], \"cannot already have whitelisted the token\");\r\n\r\n    //     bool[6] memory flags; // [sponsored, processed, didPass, cancelled, whitelist, guildkick]\r\n    //     flags[4] = true;\r\n\r\n    //     _submitProposal(address(0), 0, 0, 0, tokenToWhitelist, 0, address(0), details, flags);\r\n    //     return proposalCount - 1;\r\n    // }\r\n\r\n    // function submitGuildKickProposal(address memberToKick, string memory details) public nonReentrant returns (uint256 proposalId) {\r\n    //     Member memory member = members[memberToKick];\r\n\r\n    //     require(member.shares > 0 || member.loot > 0, \"member must have at least one share or one loot\");\r\n    //     require(memberToKick != admin, \"the admin may not be kicked\");\r\n    //     require(members[memberToKick].jailed == 0, \"member must not already be jailed\");\r\n\r\n    //     bool[6] memory flags; // [sponsored, processed, didPass, cancelled, whitelist, guildkick]\r\n    //     flags[5] = true;\r\n\r\n    //     _submitProposal(memberToKick, 0, 0, 0, address(0), 0, address(0), details, flags);\r\n    //     return proposalCount - 1;\r\n    // }\r\n\r\n    function _submitProposal(\r\n        address applicant,\r\n        uint256 sharesRequested,\r\n        uint256 lootRequested,\r\n        uint256 tributeOffered,\r\n        address tributeToken,\r\n        uint256 paymentRequested,\r\n        address paymentToken,\r\n        string memory details,\r\n        bool[6] memory flags\r\n    ) internal {\r\n        Proposal memory proposal = Proposal({\r\n            applicant : applicant,\r\n            proposer : msg.sender,\r\n            sponsor : address(0),\r\n            sharesRequested : sharesRequested,\r\n            lootRequested : lootRequested,\r\n            tributeOffered : tributeOffered,\r\n            tributeToken : IERC20(tributeToken),\r\n            paymentRequested : paymentRequested,\r\n            paymentToken : IERC20(paymentToken),\r\n            startingPeriod : 0,\r\n            yesVotes : 0,\r\n            noVotes : 0,\r\n            flags : flags,\r\n            details : details,\r\n            maxTotalSharesAndLootAtYesVote : 0\r\n        });\r\n\r\n        proposals[proposalCount] = proposal;\r\n        address memberAddress = memberAddressByDelegateKey[msg.sender];\r\n        emit SubmitProposal(proposalCount, msg.sender, memberAddress, applicant, sharesRequested, lootRequested, tributeOffered, tributeToken, paymentRequested, paymentToken);\r\n        proposalCount += 1;\r\n    }\r\n\r\n    function sponsorProposal(uint256 proposalId)  public nonReentrant onlyDelegate  returns (uint256) {\r\n        // collect proposal deposit from sponsor and store it in the Moloch until the proposal is processed\r\n        //require(depositToken.transferFrom(msg.sender, address(this), proposalDeposit), \"proposal deposit token transfer failed\");\r\n\r\n        Proposal storage proposal = proposals[proposalId];\r\n\r\n        require(proposal.proposer != address(0), 'proposal must have been proposed');\r\n        require(!proposal.flags[0], \"proposal has already been sponsored\");\r\n        require(!proposal.flags[3], \"proposal has been cancelled\");\r\n        // require(members[proposal.applicant].jailed == 0, \"proposal applicant must not be jailed\");\r\n\r\n        // // whitelist proposal\r\n        // if (proposal.flags[4]) {\r\n        //     require(!tokenWhitelist[address(proposal.tributeToken)], \"cannot already have whitelisted the token\");\r\n        //     require(!proposedToWhitelist[address(proposal.tributeToken)], 'already proposed to whitelist');\r\n        //     proposedToWhitelist[address(proposal.tributeToken)] = true;\r\n\r\n        // // guild kick proposal\r\n        // } else if (proposal.flags[5]) {\r\n        //     require(!proposedToKick[proposal.applicant], 'already proposed to kick');\r\n        //     proposedToKick[proposal.applicant] = true;\r\n        // }\r\n\r\n        // compute startingPeriod for proposal\r\n        uint256 startingPeriod = max(\r\n            getCurrentPeriod(),\r\n            proposalQueue.length == 0 ? 0 : proposals[proposalQueue[proposalQueue.length.sub(1)]].startingPeriod\r\n        ).add(1);\r\n\r\n        proposal.startingPeriod = startingPeriod;\r\n\r\n        address memberAddress = memberAddressByDelegateKey[msg.sender];\r\n        proposal.sponsor = memberAddress;\r\n\r\n        proposal.flags[0] = true;\r\n\r\n        // append proposal to the queue\r\n        proposalQueue.push(proposalId);\r\n        emit SponsorProposal(msg.sender, memberAddress, proposalId, proposalQueue.length.sub(1), startingPeriod);\r\n        return proposalQueue.length.sub(1);\r\n    }\r\n\r\n    function submitVote(uint256 proposalIndex, uint8 uintVote) public nonReentrant onlyDelegate {\r\n        address memberAddress = memberAddressByDelegateKey[msg.sender];\r\n        Member storage member = members[memberAddress];\r\n\r\n        require(proposalIndex < proposalQueue.length, \"proposal does not exist\");\r\n        Proposal storage proposal = proposals[proposalQueue[proposalIndex]];\r\n\r\n        require(uintVote < 3, \"must be less than 3\");\r\n        Vote vote = Vote(uintVote);\r\n\r\n        //require(getCurrentPeriod() >= proposal.startingPeriod, \"voting period has not started\");\r\n        require(!hasVotingPeriodExpired(proposal.startingPeriod), \"proposal voting period has expired\");\r\n        require(proposal.votesByMember[memberAddress] == Vote.Null, \"member has already voted\");\r\n        require(vote == Vote.Yes || vote == Vote.No, \"vote must be either Yes or No\");\r\n\r\n        proposal.votesByMember[memberAddress] = vote;\r\n\r\n        if (vote == Vote.Yes) {\r\n            proposal.yesVotes = proposal.yesVotes.add(member.shares);\r\n\r\n            // set highest index (latest) yes vote - must be processed for member to ragequit\r\n            if (proposalIndex > member.highestIndexYesVote) {\r\n                member.highestIndexYesVote = proposalIndex;\r\n            }\r\n\r\n            // set maximum of total shares encountered at a yes vote - used to bound dilution for yes voters\r\n            // if (totalShares.add(totalLoot) > proposal.maxTotalSharesAndLootAtYesVote) {\r\n            //     proposal.maxTotalSharesAndLootAtYesVote = totalShares.add(totalLoot);\r\n            // }\r\n\r\n        } else if (vote == Vote.No) {\r\n            proposal.noVotes = proposal.noVotes.add(member.shares);\r\n        }\r\n\r\n        emit SubmitVote(proposalIndex, msg.sender, memberAddress, uintVote);\r\n    }\r\n\r\n   function processProposal(uint256 proposalIndex) public nonReentrant {\r\n       _validateProposalForProcessing(proposalIndex);\r\n\r\n       uint256 proposalId = proposalQueue[proposalIndex];\r\n       Proposal storage proposal = proposals[proposalId];\r\n\r\n       //require(!proposal.flags[4] && !proposal.flags[5], \"must be a standard proposal\");\r\n\r\n       proposal.flags[1] = true; // processed\r\n\r\n       (bool didPass, bool emergencyProcessing) = _didPass(proposalIndex);\r\n\r\n       // Make the proposal fail if the new total number of shares and loot exceeds the limit\r\n       // if (totalShares.add(totalLoot).add(proposal.sharesRequested).add(proposal.lootRequested) > MAX_NUMBER_OF_SHARES_AND_LOOT) {\r\n       //     didPass = false;\r\n       // }\r\n        if (totalShares.add(proposal.sharesRequested) > MAX_NUMBER_OF_SHARES) {\r\n            didPass = false;\r\n        }\r\n\r\n\r\n       // Make the proposal fail if it is requesting more tokens as payment than the available guild bank balance\r\n       // if (!emergencyProcessing && proposal.paymentToken != IERC20(0) && proposal.paymentRequested > proposal.paymentToken.balanceOf(address(guildBank))) {\r\n       //     didPass = false;\r\n       // }\r\n\r\n       // PROPOSAL PASSED\r\n       if (didPass) {\r\n            result=1;\r\n           proposal.flags[2] = true; // didPass\r\n\r\n           // if the applicant is already a member, add to their existing shares & loot\r\n           if (members[proposal.applicant].exists) {\r\n               members[proposal.applicant].shares = members[proposal.applicant].shares.add(proposal.sharesRequested);\r\n               //members[proposal.applicant].loot = members[proposal.applicant].loot.add(proposal.lootRequested);\r\n\r\n           // the applicant is a new member, create a new record for them\r\n           } else {\r\n               // if the applicant address is already taken by a member's delegateKey, reset it to their member address\r\n               if (members[memberAddressByDelegateKey[proposal.applicant]].exists) {\r\n                   address memberToOverride = memberAddressByDelegateKey[proposal.applicant];\r\n                   memberAddressByDelegateKey[memberToOverride] = memberToOverride;\r\n                   members[memberToOverride].delegateKey = memberToOverride;\r\n               }\r\n\r\n               // use applicant address as delegateKey by default\r\n               members[proposal.applicant] = Member(proposal.applicant, proposal.sharesRequested, true, 0);\r\n               //members[proposal.applicant] = Member(proposal.applicant, proposal.sharesRequested, proposal.lootRequested, true, 0, 0);\r\n               memberAddressByDelegateKey[proposal.applicant] = proposal.applicant;\r\n           }\r\n\r\n           // mint new shares & loot\r\n           totalShares = totalShares.add(proposal.sharesRequested);\r\n           // totalLoot = totalLoot.add(proposal.lootRequested);\r\n\r\n           // require(\r\n           //     proposal.tributeToken.transfer(address(guildBank), proposal.tributeOffered),\r\n           //     \"token transfer to guild bank failed\"\r\n           // );\r\n\r\n           // require(\r\n           //     guildBank.withdrawToken(proposal.paymentToken, proposal.applicant, proposal.paymentRequested),\r\n           //     \"token payment to applicant failed\"\r\n           // );\r\n\r\n\r\n       // PROPOSAL FAILED\r\n       } else {\r\n            result=2;\r\n           // return all tokens to the applicant (skip if emergency processing)\r\n           if (!emergencyProcessing) {\r\n               // require(\r\n               //     proposal.tributeToken.transfer(proposal.proposer, proposal.tributeOffered),\r\n               //     \"failing vote token transfer failed\"\r\n               // );\r\n           }\r\n       }\r\n\r\n       //_returnDeposit(proposal.sponsor);\r\n\r\n       emit ProcessProposal(proposalIndex, proposalId, didPass);\r\n   }\r\n\r\n//    function processWhitelistProposal(uint256 proposalIndex) public nonReentrant {\r\n//        _validateProposalForProcessing(proposalIndex);\r\n//\r\n//        uint256 proposalId = proposalQueue[proposalIndex];\r\n//        Proposal storage proposal = proposals[proposalId];\r\n//\r\n//        require(proposal.flags[4], \"must be a whitelist proposal\");\r\n//\r\n//        proposal.flags[1] = true; // processed\r\n//\r\n//        (bool didPass,) = _didPass(proposalIndex);\r\n//\r\n//        if (didPass) {\r\n//            proposal.flags[2] = true; // didPass\r\n//\r\n//            tokenWhitelist[address(proposal.tributeToken)] = true;\r\n//            approvedTokens.push(proposal.tributeToken);\r\n//        }\r\n//\r\n//        proposedToWhitelist[address(proposal.tributeToken)] = false;\r\n//\r\n//        _returnDeposit(proposal.sponsor);\r\n//\r\n//        emit ProcessProposal(proposalIndex, proposalId, didPass);\r\n//    }\r\n\r\n//    function processGuildKickProposal(uint256 proposalIndex) public nonReentrant {\r\n//        _validateProposalForProcessing(proposalIndex);\r\n//\r\n//        uint256 proposalId = proposalQueue[proposalIndex];\r\n//        Proposal storage proposal = proposals[proposalId];\r\n//\r\n//        require(proposal.flags[5], \"must be a guild kick proposal\");\r\n//\r\n//        proposal.flags[1] = true; // processed\r\n//\r\n//        (bool didPass,) = _didPass(proposalIndex);\r\n//\r\n//        if (didPass) {\r\n//            proposal.flags[2] = true; // didPass\r\n//            Member storage member = members[proposal.applicant];\r\n//            member.jailed = proposalIndex;\r\n//\r\n//            // transfer shares to loot\r\n//            member.loot = member.loot.add(member.shares);\r\n//            totalShares = totalShares.sub(member.shares);\r\n//            totalLoot = totalLoot.add(member.shares);\r\n//            member.shares = 0; // revoke all shares\r\n//        }\r\n//\r\n//        proposedToKick[proposal.applicant] = false;\r\n//\r\n//        _returnDeposit(proposal.sponsor);\r\n//\r\n//        emit ProcessProposal(proposalIndex, proposalId, didPass);\r\n//    }\r\n\r\n    function _didPass(uint256 proposalIndex) internal returns (bool didPass, bool emergencyProcessing) {\r\n        Proposal memory proposal = proposals[proposalQueue[proposalIndex]];\r\n\r\n        didPass = proposal.yesVotes > proposal.noVotes;\r\n\r\n        // Make the proposal fail (and skip returning tribute) if emergencyProcessingWait is exceeded\r\n        emergencyProcessing = false;\r\n        // if (getCurrentPeriod() >= proposal.startingPeriod.add(votingPeriodLength).add(gracePeriodLength).add(emergencyProcessingWait)) {\r\n        //     emergencyWarning = true;\r\n        //     lastEmergencyProposalIndex = proposalIndex;\r\n        //     emergencyProcessing = true;\r\n        //     didPass = false;\r\n        // }\r\n\r\n        // // Make the proposal fail if it was past its grace period during the last emergency processing and it is not a guild kick proposal\r\n        // if (emergencyWarning) {\r\n        //     if (proposal.startingPeriod <= proposals[proposalQueue[lastEmergencyProposalIndex]].startingPeriod.add(emergencyProcessingWait) && !proposal.flags[5]) {\r\n        //         didPass = false;\r\n        //     }\r\n        // }\r\n\r\n        // // Make the proposal fail if the dilutionBound is exceeded\r\n        // if ((totalShares.add(totalLoot)).mul(dilutionBound) < proposal.maxTotalSharesAndLootAtYesVote) {\r\n        //     didPass = false;\r\n        // }\r\n\r\n        // // Make the proposal fail if the applicant is jailed\r\n        // // - for standard proposals, we don't want the applicant to get any shares/loot/payment\r\n        // // - for guild kick proposals, we should never be able to propose to kick a jailed member (or have two kick proposals active), so it doesn't matter\r\n        // if (members[proposal.applicant].jailed != 0) {\r\n        //     didPass = false;\r\n        // }\r\n\r\n        return (didPass, emergencyProcessing);\r\n    }\r\n\r\n    function _validateProposalForProcessing(uint256 proposalIndex) internal view {\r\n        require(proposalIndex < proposalQueue.length, \"proposal does not exist\");\r\n        Proposal memory proposal = proposals[proposalQueue[proposalIndex]];\r\n\r\n        //require(getCurrentPeriod() >= proposal.startingPeriod.add(votingPeriodLength).add(gracePeriodLength), \"proposal is not ready to be processed\");\r\n        require(proposal.flags[1] == false, \"proposal has already been processed\");\r\n        require(proposalIndex == 0 || proposals[proposalQueue[proposalIndex.sub(1)]].flags[1], \"previous proposal must be processed\");\r\n    }\r\n\r\n   // function _returnDeposit(address sponsor) internal {\r\n   //     require(\r\n   //         depositToken.transfer(msg.sender, processingReward),\r\n   //         \"failed to send processing reward to msg.sender\"\r\n   //     );\r\n\r\n   //     require(\r\n   //         depositToken.transfer(sponsor, proposalDeposit.sub(processingReward)),\r\n   //         \"failed to return proposal deposit to sponsor\"\r\n   //     );\r\n   // }\r\n\r\n   // function ragequit(uint256 sharesToBurn, uint256 lootToBurn) public nonReentrant onlyMember {\r\n   //     _ragequit(msg.sender, sharesToBurn, lootToBurn, approvedTokens);\r\n   // }\r\n\r\n   // function safeRagequit(uint256 sharesToBurn, uint256 lootToBurn, IERC20[] memory tokenList) public nonReentrant onlyMember {\r\n   //     // all tokens in tokenList must be in the tokenWhitelist\r\n   //     for (uint256 i=0; i < tokenList.length; i++) {\r\n   //         //require(tokenWhitelist[address(tokenList[i])], \"token must be whitelisted\");\r\n\r\n   //         if (i > 0) {\r\n   //             require(tokenList[i] > tokenList[i - 1], \"token list must be unique and in ascending order\");\r\n   //         }\r\n   //     }\r\n\r\n   //     _ragequit(msg.sender, sharesToBurn, lootToBurn, tokenList);\r\n   // }\r\n\r\n\r\n   // function _ragequit(address memberAddress, uint256 sharesToBurn, uint256 lootToBurn, IERC20[] memory tokenList) internal {\r\n   //      //uint256 initialTotalSharesAndLoot = totalShares.add(totalLoot);\r\n   //      uint256 initialTotalSharesAndLoot = totalShares.add(0);\r\n\r\n   //     Member storage member = members[memberAddress];\r\n\r\n   //     require(member.shares >= sharesToBurn, \"insufficient shares\");\r\n   //     //require(member.loot >= lootToBurn, \"insufficient loot\");\r\n\r\n   //     require(canRagequit(member.highestIndexYesVote), \"cannot ragequit until highest index proposal member voted YES on is processed\");\r\n\r\n   //     //uint256 sharesAndLootToBurn = sharesToBurn.add(lootToBurn);\r\n\r\n   //     // burn shares and loot\r\n   //     member.shares = member.shares.sub(sharesToBurn);\r\n   //     //member.loot = member.loot.sub(lootToBurn);\r\n   //     totalShares = totalShares.sub(sharesToBurn);\r\n   //     //totalLoot = totalLoot.sub(lootToBurn);\r\n\r\n   //     // instruct guildBank to transfer fair share of tokens to the ragequitter\r\n   //     // require(\r\n   //     //     guildBank.withdraw(memberAddress, sharesAndLootToBurn, initialTotalSharesAndLoot, tokenList),\r\n   //     //     \"withdrawal of tokens from guildBank failed\"\r\n   //     // );\r\n   //      require(\r\n   //         guildBank.withdraw(memberAddress, sharesToBurn, initialTotalSharesAndLoot, tokenList),\r\n   //         \"withdrawal of tokens from guildBank failed\"\r\n   //     );\r\n\r\n   //     emit Ragequit(msg.sender, sharesToBurn, lootToBurn);\r\n   // }\r\n\r\n//    function ragekick(address memberToKick) public nonReentrant {\r\n//        Member storage member = members[memberToKick];\r\n//\r\n//        require(member.jailed != 0, \"member must be in jail\");\r\n//        require(member.loot > 0, \"member must have some loot\"); // note - should be impossible for jailed member to have shares\r\n//        require(canRagequit(member.highestIndexYesVote), \"cannot ragequit until highest index proposal member voted YES on is processed\");\r\n//        require(!canBailout(memberToKick), \"bailoutWait has passed, member must be bailed out\");\r\n//\r\n//        _ragequit(memberToKick, 0, member.loot, approvedTokens);\r\n//    }\r\n//\r\n//    function bailout(address memberToBail) public nonReentrant {\r\n//        Member storage member = members[memberToBail];\r\n//\r\n//        require(member.jailed != 0, \"member must be in jail\");\r\n//        require(member.loot > 0, \"member must have some loot\"); // note - should be impossible for jailed member to have shares\r\n//        require(canBailout(memberToBail), \"cannot bailout yet\");\r\n//\r\n//        members[admin].loot = members[admin].loot.add(member.loot);\r\n//        member.loot = 0;\r\n//    }\r\n\r\n   // function cancelProposal(uint256 proposalId) public nonReentrant {\r\n   //     Proposal storage proposal = proposals[proposalId];\r\n   //     require(!proposal.flags[0], \"proposal has already been sponsored\");\r\n   //     require(!proposal.flags[3], \"proposal has already been cancelled\");\r\n   //     require(msg.sender == proposal.proposer, \"solely the proposer can cancel\");\r\n\r\n   //     proposal.flags[3] = true; // cancelled\r\n\r\n   //     require(\r\n   //         proposal.tributeToken.transfer(proposal.proposer, proposal.tributeOffered),\r\n   //         \"failed to return tribute to proposer\"\r\n   //     );\r\n\r\n   //     emit CancelProposal(proposalId, msg.sender);\r\n   // }\r\n\r\n   // function updateDelegateKey(address newDelegateKey) public nonReentrant onlyShareholder {\r\n   //     require(newDelegateKey != address(0), \"newDelegateKey cannot be 0\");\r\n\r\n   //     // skip checks if member is setting the delegate key to theisr member address\r\n   //     if (newDelegateKey != msg.sender) {\r\n   //         require(!members[newDelegateKey].exists, \"cannot overwrite existing members\");\r\n   //         require(!members[memberAddressByDelegateKey[newDelegateKey]].exists, \"cannot overwrite existing delegate keys\");\r\n   //     }\r\n\r\n   //     Member storage member = members[msg.sender];\r\n   //     memberAddressByDelegateKey[member.delegateKey] = address(0);\r\n   //     memberAddressByDelegateKey[newDelegateKey] = msg.sender;\r\n   //     member.delegateKey = newDelegateKey;\r\n\r\n   //     emit UpdateDelegateKey(msg.sender, newDelegateKey);\r\n   // }\r\n\r\n   /***************\r\n   GETTER FUNCTIONS\r\n   ***************/\r\n    function max(uint256 x, uint256 y) internal pure returns (uint256) {\r\n        return x >= y ? x : y;\r\n    }\r\n\r\n    function getCurrentPeriod() public view returns (uint256) {\r\n        return now.sub(summoningTime).div(periodDuration);\r\n    }\r\n\r\n   function getProposalQueueLength() public view returns (uint256) {\r\n       return proposalQueue.length;\r\n   }\r\n\r\n   function getProposalFlags(uint256 proposalId) public view returns (bool[6] memory) {\r\n       return proposals[proposalId].flags;\r\n   }\r\n\r\n   // can only ragequit if the latest proposal you voted YES on has been processed\r\n    function canRagequit(uint256 highestIndexYesVote) public view returns (bool) {\r\n        require(highestIndexYesVote < proposalQueue.length, \"proposal does not exist\");\r\n        return proposals[proposalQueue[highestIndexYesVote]].flags[1];\r\n    }\r\n\r\n//    function canBailout(address memberToBail) public view returns (bool) {\r\n//        Member memory member = members[memberToBail];\r\n//\r\n//        // get the starting period of the proposal to start the bailout wait from\r\n//        // - either the guild kick proposal or the member's highest index yes vote\r\n//        uint256 bailoutWaitStartingPeriod = member.highestIndexYesVote > member.jailed\r\n//            ? proposals[proposalQueue[member.highestIndexYesVote]].startingPeriod\r\n//            : proposals[proposalQueue[member.jailed]].startingPeriod;\r\n//\r\n//        // bailout wait starts after proposal grace period ends\r\n//        return getCurrentPeriod() >= bailoutWaitStartingPeriod.add(votingPeriodLength).add(gracePeriodLength).add(bailoutWait);\r\n//    }\r\n//\r\n    function hasVotingPeriodExpired(uint256 startingPeriod) public view returns (bool) {\r\n        return getCurrentPeriod() >= startingPeriod.add(votingPeriodLength);\r\n    }\r\n\r\n   function getMemberProposalVote(address memberAddress, uint256 proposalIndex) public view returns (Vote) {\r\n       require(members[memberAddress].exists, \"member does not exist\");\r\n       require(proposalIndex < proposalQueue.length, \"proposal does not exist\");\r\n       return proposals[proposalQueue[proposalIndex]].votesByMember[memberAddress];\r\n   }\r\n    function getProposal ()  public view returns(uint256){\r\n        return proposalCount;\r\n    }\r\n    function getResult ()  public view returns(uint256){\r\n        return result;//checks proposal passed or not\r\n    }\r\n}\r\n",
  "sourcePath": "C:\\Users\\abhinavanshul\\contracts\\truffle-contracts\\contracts\\dao\\Governance.sol",
  "compiler": {
    "name": "solc",
    "version": "0.5.9+commit.e560f70d.Emscripten.clang"
  },
  "schemaVersion": "3.0.23",
  "updatedAt": "2020-05-25T13:31:49.932Z",
  "devdoc": {
    "methods": {}
  },
  "userdoc": {
    "methods": {
      "submitProposal(address,uint256,uint256,uint256,address,uint256,address,string)": {
        "notice": "***************\r PROPOSAL FUNCTIONS\r****************"
      }
    }
  }
}