{
  "contractName": "GuildBank",
  "abi": [
    {
      "constant": true,
      "inputs": [],
      "name": "owner",
      "outputs": [
        {
          "name": "",
          "type": "address"
        }
      ],
      "payable": false,
      "stateMutability": "view",
      "type": "function"
    },
    {
      "inputs": [],
      "payable": false,
      "stateMutability": "nonpayable",
      "type": "constructor"
    },
    {
      "anonymous": false,
      "inputs": [
        {
          "indexed": true,
          "name": "receiver",
          "type": "address"
        },
        {
          "indexed": true,
          "name": "tokenAddress",
          "type": "address"
        },
        {
          "indexed": false,
          "name": "amount",
          "type": "uint256"
        }
      ],
      "name": "Withdrawal",
      "type": "event"
    },
    {
      "constant": false,
      "inputs": [
        {
          "name": "receiver",
          "type": "address"
        },
        {
          "name": "shares",
          "type": "uint256"
        },
        {
          "name": "totalShares",
          "type": "uint256"
        },
        {
          "name": "approvedTokens",
          "type": "address[]"
        }
      ],
      "name": "withdraw",
      "outputs": [
        {
          "name": "",
          "type": "bool"
        }
      ],
      "payable": false,
      "stateMutability": "nonpayable",
      "type": "function"
    },
    {
      "constant": false,
      "inputs": [
        {
          "name": "token",
          "type": "address"
        },
        {
          "name": "receiver",
          "type": "address"
        },
        {
          "name": "amount",
          "type": "uint256"
        }
      ],
      "name": "withdrawToken",
      "outputs": [
        {
          "name": "",
          "type": "bool"
        }
      ],
      "payable": false,
      "stateMutability": "nonpayable",
      "type": "function"
    }
  ],
  "bytecode": "0x608060405234801561001057600080fd5b50600080546001600160a01b031916331790556104e6806100326000396000f3fe608060405234801561001057600080fd5b50600436106100415760003560e01c806301e3366714610046578063732c8f57146100905780638da5cb5b1461014f575b600080fd5b61007c6004803603606081101561005c57600080fd5b506001600160a01b03813581169160208101359091169060400135610173565b604080519115158252519081900360200190f35b61007c600480360360808110156100a657600080fd5b6001600160a01b0382351691602081013591604082013591908101906080810160608201356401000000008111156100dd57600080fd5b8201836020820111156100ef57600080fd5b8035906020019184602083028401116401000000008311171561011157600080fd5b91908080602002602001604051908101604052809392919081815260200183836020028082843760009201919091525092955061026c945050505050565b61015761044e565b604080516001600160a01b039092168252519081900360200190f35b600080546001600160a01b0316331461018b57600080fd5b836001600160a01b0316836001600160a01b03167f2717ead6b9200dd235aad468c9809ea400fe33ac69b5bfaa6d3e90fc922b6398846040518082815260200191505060405180910390a3836001600160a01b031663a9059cbb84846040518363ffffffff1660e01b815260040180836001600160a01b03166001600160a01b0316815260200182815260200192505050602060405180830381600087803b15801561023657600080fd5b505af115801561024a573d6000803e3d6000fd5b505050506040513d602081101561026057600080fd5b505190505b9392505050565b600080546001600160a01b0316331461028457600080fd5b60005b82518110156104425760006103318483815181106102a157fe5b60200260200101516001600160a01b03166370a08231306040518263ffffffff1660e01b815260040180826001600160a01b03166001600160a01b0316815260200191505060206040518083038186803b1580156102fe57600080fd5b505afa158015610312573d6000803e3d6000fd5b505050506040513d602081101561032857600080fd5b5051878761045d565b905083828151811061033f57fe5b60200260200101516001600160a01b0316876001600160a01b03167f2717ead6b9200dd235aad468c9809ea400fe33ac69b5bfaa6d3e90fc922b6398836040518082815260200191505060405180910390a383828151811061039d57fe5b60200260200101516001600160a01b031663a9059cbb88836040518363ffffffff1660e01b815260040180836001600160a01b03166001600160a01b0316815260200182815260200192505050602060405180830381600087803b15801561040457600080fd5b505af1158015610418573d6000803e3d6000fd5b505050506040513d602081101561042e57600080fd5b505161043957600080fd5b50600101610287565b50600195945050505050565b6000546001600160a01b031681565b60008161046957600080fd5b8361047657506000610265565b8383028385828161048357fe5b04141561049c5782818161049357fe5b04915050610265565b838386816104a657fe5b04029594505050505056fea265627a7a72305820600a90e68081feae486f77ec58352ebe4f959e2362fac128a8d418122da6121464736f6c63430005090032",
  "source": "pragma solidity >=0.5.0 < 0.6.0;\r\n\r\nimport \"./oz/IERC20.sol\";\r\n\r\ncontract GuildBank  {\r\n    address public owner;\r\n\r\n    constructor () public {\r\n        owner = msg.sender;\r\n    }\r\n\r\n    modifier onlyOwner() {\r\n        require(msg.sender == owner);\r\n        _;\r\n    }\r\n\r\n    event Withdrawal(address indexed receiver, address indexed tokenAddress, uint256 amount);\r\n\r\n    function withdraw(address receiver, uint256 shares, uint256 totalShares, IERC20[] memory approvedTokens) public onlyOwner returns (bool) {\r\n        for (uint256 i = 0; i < approvedTokens.length; i++) {\r\n            uint256 amount = fairShare(approvedTokens[i].balanceOf(address(this)), shares, totalShares);\r\n            emit Withdrawal(receiver, address(approvedTokens[i]), amount);\r\n            require(approvedTokens[i].transfer(receiver, amount));\r\n        }\r\n        return true;\r\n    }\r\n\r\n    function withdrawToken(IERC20 token, address receiver, uint256 amount) public onlyOwner returns (bool) {\r\n        emit Withdrawal(receiver, address(token), amount);\r\n        return token.transfer(receiver, amount);\r\n    }\r\n\r\n    function fairShare(uint256 balance, uint256 shares, uint256 totalShares) internal pure returns (uint256) {\r\n        require(totalShares != 0);\r\n\r\n        if (balance == 0) { return 0; }\r\n\r\n        uint256 prod = balance * shares;\r\n\r\n        if (prod / balance == shares) { // no overflow in multiplication above?\r\n            return prod / totalShares;\r\n        }\r\n\r\n        return (balance / totalShares) * shares;\r\n    }\r\n\r\n}\r\n",
  "sourcePath": "C:\\Users\\abhinavanshul\\contracts\\truffle-contracts\\contracts\\dao\\GuildBank.sol",
  "compiler": {
    "name": "solc",
    "version": "0.5.9+commit.e560f70d.Emscripten.clang"
  },
  "schemaVersion": "3.0.23",
  "updatedAt": "2020-05-25T13:31:49.979Z",
  "devdoc": {
    "methods": {}
  },
  "userdoc": {
    "methods": {}
  }
}