{
  "contractName": "MolochSummoner",
  "abi": [
    {
      "constant": true,
      "inputs": [
        {
          "name": "",
          "type": "uint256"
        }
      ],
      "name": "Molochs",
      "outputs": [
        {
          "name": "",
          "type": "address"
        }
      ],
      "payable": false,
      "stateMutability": "view",
      "type": "function"
    },
    {
      "anonymous": false,
      "inputs": [
        {
          "indexed": true,
          "name": "M",
          "type": "address"
        },
        {
          "indexed": true,
          "name": "_summoner",
          "type": "address"
        }
      ],
      "name": "Summoned",
      "type": "event"
    },
    {
      "constant": false,
      "inputs": [
        {
          "name": "_summoner",
          "type": "address"
        },
        {
          "name": "_approvedTokens",
          "type": "address[1]"
        },
        {
          "name": "_periodDuration",
          "type": "uint256"
        },
        {
          "name": "_votingPeriodLength",
          "type": "uint256"
        },
        {
          "name": "_gracePeriodLength",
          "type": "uint256"
        },
        {
          "name": "_emergencyProcessingWait",
          "type": "uint256"
        },
        {
          "name": "_bailoutWait",
          "type": "uint256"
        },
        {
          "name": "_proposalDeposit",
          "type": "uint256"
        },
        {
          "name": "_dilutionBound",
          "type": "uint256"
        },
        {
          "name": "_processingReward",
          "type": "uint256"
        }
      ],
      "name": "summonMoloch",
      "outputs": [],
      "payable": false,
      "stateMutability": "nonpayable",
      "type": "function"
    },
    {
      "constant": true,
      "inputs": [],
      "name": "getMolochCount",
      "outputs": [
        {
          "name": "MolochCount",
          "type": "uint256"
        }
      ],
      "payable": false,
      "stateMutability": "view",
      "type": "function"
    }
  ],
  "bytecode": "0x608060405234801561001057600080fd5b50613926806100206000396000f3fe608060405234801561001057600080fd5b50600436106100415760003560e01c80630fe204bd146100465780635abbe0fa1461006057806381fc5959146100e7575b600080fd5b61004e610120565b60408051918252519081900360200190f35b6100e5600480360361014081101561007757600080fd5b60408051602081810183526001600160a01b038535169493840193928301919080840190600190839083908082843760009201919091525091945050813592505060208101359060408101359060608101359060808101359060a08101359060c08101359060e00135610126565b005b610104600480360360208110156100fd57600080fd5b5035610263565b604080516001600160a01b039092168252519081900360200190f35b60015490565b8989898989898989898960405161013c9061028a565b6001600160a01b038b1681526020808201908b9080838360005b8381101561016e578181015183820152602001610156565b505050509050018981526020018881526020018781526020018681526020018581526020018481526020018381526020018281526020019a5050505050505050505050604051809103906000f0801580156101cd573d6000803e3d6000fd5b50600080546001600160a01b039283166001600160a01b0319918216178083556001805480820182559084527fb10e2d527612073b26eecdfd717e6a320cf44b4afac2b0732d9fcbe2b7fa0cf601805490921690841617905580546040518d84169391909116917f5d117058594e38d35f98a79b5e9cbcd9fa0597fad786e2826bc4f290a0f5d4a791a350505050505050505050565b6001818154811061027057fe5b6000918252602090912001546001600160a01b0316905081565b61365a806102988339019056fe608060405260006009819055600a819055600b805460ff19169055600c553480156200002a57600080fd5b506040516200365a3803806200365a83398181016040526101408110156200005157600080fd5b50805160408201516060830151608084015160a085015160c086015160e08701516101008801516101208901516000805460ff191660011790559798602001976001600160a01b038a166200010757604080517f08c379a000000000000000000000000000000000000000000000000000000000815260206004820152601460248201527f73756d6d6f6e65722063616e6e6f742062652030000000000000000000000000604482015290519081900360640190fd5b600088116200017757604080517f08c379a000000000000000000000000000000000000000000000000000000000815260206004820152601b60248201527f5f706572696f644475726174696f6e2063616e6e6f7420626520300000000000604482015290519081900360640190fd5b60008711620001e757604080517f08c379a000000000000000000000000000000000000000000000000000000000815260206004820152601f60248201527f5f766f74696e67506572696f644c656e6774682063616e6e6f74206265203000604482015290519081900360640190fd5b670de0b6b3a76400008711156200024a576040517f08c379a0000000000000000000000000000000000000000000000000000000008152600401808060200182810382526021815260200180620036156021913960400191505060405180910390fd5b670de0b6b3a7640000861115620002c257604080517f08c379a000000000000000000000000000000000000000000000000000000000815260206004820181905260248201527f5f6772616365506572696f644c656e6774682065786365656473206c696d6974604482015290519081900360640190fd5b600085116200031d576040517f08c379a0000000000000000000000000000000000000000000000000000000008152600401808060200182810382526024815260200180620036366024913960400191505060405180910390fd5b60008054610100600160a81b0319166101006001600160a01b038d160217815589906020020151600780546001600160a01b0319166001600160a01b0390921691909117905560005b60018110156200044e5760008a82600181106200037f57fe5b60200201516001600160a01b03161415620003fb57604080517f08c379a000000000000000000000000000000000000000000000000000000000815260206004820152601a60248201527f5f617070726f766564546f6b656e2063616e6e6f742062652030000000000000604482015290519081900360640190fd5b600d8a82600181106200040a57fe5b6020908102919091015182546001808201855560009485529290932090920180546001600160a01b0319166001600160a01b03909316929092179091550162000366565b506040516200045d9062000586565b604051809103906000f0801580156200047a573d6000803e3d6000fd5b50600880546001600160a01b03199081166001600160a01b039384161790915560018a815560028a815560038a815560048a9055600588905542600655604080516080810182526000805461010090819004891680845260208085018981528587018a815260608701868152938652600e8352878620965187548d16908e161787559051868b015551978501805460ff19169815159890981790975551929094019190915580548390048716808252600f8552828220805490971617909555600a8490559354845193845293519304909316927f03995a801b13c36325306deef859ef977ce61c6e15a794281bf969d20482522792918290030190a25050505050505050505062000594565b61051880620030fd83390190565b612b5980620005a46000396000f3fe608060405234801561001057600080fd5b50600436106102065760003560e01c80638b15a6051161011a578063b470aade116100ad578063dacaa9d11161007c578063dacaa9d1146106f4578063de292789146106fc578063e0a8f6f514610704578063e63bc62d14610721578063ec51b0bf1461073e57610206565b8063b470aade146106d4578063b9e2bea0146106dc578063c89039c5146106e4578063da35c664146106ec57610206565b8063a3dc3800116100e9578063a3dc380014610652578063a42afd291461066f578063a44a5e7e14610677578063b2643aab1461067f57610206565b80638b15a605146105ea5780639425a476146105f25780639746d9401461060f57806399653fbe1461062c57610206565b80633b214a741161019d57806363858f2d1161016c57806363858f2d146105c257806365372147146105ca578063797daf70146105d25780637d5b6c72146105da5780638340bbce146105e257610206565b80633b214a7414610483578063402c1794146104a0578063505afd74146104c6578063590f940b146104e257610206565b806315eb349e116101d957806315eb349e146104155780631dafede01461043a5780631e2362ec146104735780633a98ef391461047b57610206565b8063013cf08b1461020b578063044a0ca814610355578063086146d2146103a557806308ae4b0c146103bf575b600080fd5b6102286004803603602081101561022157600080fd5b50356107ed565b604051808f6001600160a01b03166001600160a01b031681526020018e6001600160a01b03166001600160a01b031681526020018d6001600160a01b03166001600160a01b031681526020018c81526020018b81526020018a8152602001896001600160a01b03166001600160a01b03168152602001888152602001876001600160a01b03166001600160a01b0316815260200186815260200185815260200184815260200180602001838152602001828103825284818151815260200191508051906020019080838360005b8381101561030d5781810151838201526020016102f5565b50505050905090810190601f16801561033a5780820380516001836020036101000a031916815260200191505b509f5050505050505050505050505050505060405180910390f35b6103816004803603604081101561036b57600080fd5b506001600160a01b038135169060200135610950565b6040518082600281111561039157fe5b60ff16815260200191505060405180910390f35b6103ad610a57565b60408051918252519081900360200190f35b6103e5600480360360208110156103d557600080fd5b50356001600160a01b0316610a86565b604080516001600160a01b0390951685526020850193909352901515838301526060830152519081900360800190f35b6104386004803603604081101561042b57600080fd5b5080359060200135610abd565b005b6104576004803603602081101561045057600080fd5b5035610bd3565b604080516001600160a01b039092168252519081900360200190f35b6103ad610bfa565b6103ad610c00565b6103ad6004803603602081101561049957600080fd5b5035610c06565b610457600480360360208110156104b657600080fd5b50356001600160a01b0316610c24565b6104ce610c3f565b604080519115158252519081900360200190f35b6103ad60048036036101008110156104f957600080fd5b6001600160a01b038235811692602081013592604082013592606083013592608081013582169260a08201359260c0830135169190810190610100810160e082013564010000000081111561054d57600080fd5b82018360208201111561055f57600080fd5b8035906020019184600183028401116401000000008311171561058157600080fd5b91908080601f016020809104026020016040519081016040528093929190818152602001838380828437600092019190915250929550610c48945050505050565b6103ad610d83565b6103ad610d89565b6103ad610d8f565b6103ad610d95565b6103ad610d9b565b6103ad610da1565b6104ce6004803603602081101561060857600080fd5b5035610da7565b6104386004803603602081101561062557600080fd5b5035610dce565b6104386004803603604081101561064257600080fd5b508035906020013560ff166110f2565b6104ce6004803603602081101561066857600080fd5b50356114f8565b6104576115a1565b6103ad6115b0565b61069c6004803603602081101561069557600080fd5b50356115b6565b604051808260c080838360005b838110156106c15781810151838201526020016106a9565b5050505090500191505060405180910390f35b6103ad611620565b6103ad611626565b61045761162c565b6103ad61163b565b610457611641565b6103ad611655565b6104386004803603602081101561071a57600080fd5b503561165b565b6104386004803603602081101561073757600080fd5b50356118cb565b6104386004803603606081101561075457600080fd5b81359160208101359181019060608101604082013564010000000081111561077b57600080fd5b82018360208201111561078d57600080fd5b803590602001918460208302840111640100000000831117156107af57600080fd5b919080806020026020016040519081016040528093929190818152602001838360200280828437600092019190915250929550611bc7945050505050565b60106020528060005260406000206000915090508060000160009054906101000a90046001600160a01b0316908060010160009054906101000a90046001600160a01b0316908060020160009054906101000a90046001600160a01b0316908060030154908060040154908060050154908060060160009054906101000a90046001600160a01b0316908060070154908060080160009054906101000a90046001600160a01b03169080600901549080600a01549080600b01549080600d018054600181600116156101000203166002900480601f0160208091040260200160405190810160405280929190818152602001828054600181600116156101000203166002900480156109405780601f1061091557610100808354040283529160200191610940565b820191906000526020600020905b81548152906001019060200180831161092357829003601f168201915b50505050509080600e015490508e565b6001600160a01b0382166000908152600e602052604081206002015460ff166109b8576040805162461bcd60e51b81526020600482015260156024820152741b595b58995c88191bd95cc81b9bdd08195e1a5cdd605a1b604482015290519081900360640190fd5b6011548210610a08576040805162461bcd60e51b81526020600482015260176024820152761c1c9bdc1bdcd85b08191bd95cc81b9bdd08195e1a5cdd604a1b604482015290519081900360640190fd5b6010600060118481548110610a1957fe5b6000918252602080832090910154835282810193909352604091820181206001600160a01b0387168252600f0190925290205460ff16905092915050565b6000610a80600154610a7460065442611d1890919063ffffffff16565b9063ffffffff611d2d16565b90505b90565b600e6020526000908152604090208054600182015460028301546003909301546001600160a01b0390921692909160ff9091169084565b60005460ff16610b02576040805162461bcd60e51b815260206004820152601f602482015260008051602061298c833981519152604482015290519081900360640190fd5b6000805460ff19168155338152600e6020526040902060010154610b5c576040805162461bcd60e51b815260206004820152600c60248201526b3737ba10309036b2b6b132b960a11b604482015290519081900360640190fd5b610bc2338383600d805480602002602001604051908101604052809291908181526020018280548015610bb857602002820191906000526020600020905b81546001600160a01b03168152600190910190602001808311610b9a575b5050505050611d4f565b50506000805460ff19166001179055565b600d8181548110610be057fe5b6000918252602090912001546001600160a01b0316905081565b60045481565b600a5481565b60118181548110610c1357fe5b600091825260209091200154905081565b600f602052600090815260409020546001600160a01b031681565b600b5460ff1681565b6000805460ff16610c8e576040805162461bcd60e51b815260206004820152601f602482015260008051602061298c833981519152604482015290519081900360640190fd5b6000805460ff19169055670de0b6b3a7640000881115610cf5576040805162461bcd60e51b815260206004820152601960248201527f746f6f206d616e79207368617265732072657175657374656400000000000000604482015290519081900360640190fd5b6001600160a01b038916610d48576040805162461bcd60e51b815260206004820152601560248201527406170706c6963616e742063616e6e6f74206265203605c1b604482015290519081900360640190fd5b610d50612780565b610d618a8a8a8a8a8a8a8a89611f9b565b5050600954600019016000805460ff1916600117905598975050505050505050565b60035481565b60125481565b60115490565b60065481565b60025481565b60055481565b6000610dbe6002548361225c90919063ffffffff16565b610dc6610a57565b101592915050565b60005460ff16610e13576040805162461bcd60e51b815260206004820152601f602482015260008051602061298c833981519152604482015290519081900360640190fd5b6000805460ff19168155338152600f60209081526040808320546001600160a01b03168352600e909152902060010154610e85576040805162461bcd60e51b815260206004820152600e60248201526d6e6f7420612064656c656761746560901b604482015290519081900360640190fd5b600081815260106020526040902060018101546001600160a01b0316610ef2576040805162461bcd60e51b815260206004820181905260248201527f70726f706f73616c206d7573742068617665206265656e2070726f706f736564604482015290519081900360640190fd5b600c81015460ff1615610f365760405162461bcd60e51b8152600401808060200182810382526023815260200180612a6a6023913960400191505060405180910390fd5b600c8101546301000000900460ff1615610f97576040805162461bcd60e51b815260206004820152601b60248201527f70726f706f73616c20686173206265656e2063616e63656c6c65640000000000604482015290519081900360640190fd5b600061100c6001611000610fa9610a57565b60115415610ff85760118054601091600091610fcc90600163ffffffff611d1816565b81548110610fd657fe5b9060005260206000200154815260200190815260200160002060090154610ffb565b60005b612275565b9063ffffffff61225c16565b60098301819055336000818152600f60205260408120546002860180546001600160a01b0319166001600160a01b039092169182179055600c8601805460ff19166001908117909155601180548083018255938190527f31ecc21a745e3968a04e9570e4425bc18fa8019c68028196b546d1669c200c689093018890559154939450928392917f2a383a979381335e3eb401ac01dd8083e024ff0256bf5338456ffc0063390bbd9188916110c09190611d18565b604080519283526020830191909152818101879052519081900360600190a350506000805460ff191660011790555050565b60005460ff16611137576040805162461bcd60e51b815260206004820152601f602482015260008051602061298c833981519152604482015290519081900360640190fd5b6000805460ff19168155338152600f60209081526040808320546001600160a01b03168352600e9091529020600101546111a9576040805162461bcd60e51b815260206004820152600e60248201526d6e6f7420612064656c656761746560901b604482015290519081900360640190fd5b336000908152600f60209081526040808320546001600160a01b0316808452600e9092529091206011548410611220576040805162461bcd60e51b81526020600482015260176024820152761c1c9bdc1bdcd85b08191bd95cc81b9bdd08195e1a5cdd604a1b604482015290519081900360640190fd5b6000601060006011878154811061123357fe5b90600052602060002001548152602001908152602001600020905060038460ff161061129c576040805162461bcd60e51b81526020600482015260136024820152726d757374206265206c657373207468616e203360681b604482015290519081900360640190fd5b60008460ff1660028111156112ad57fe5b90506112bc8260090154610da7565b156112f85760405162461bcd60e51b8152600401808060200182810382526022815260200180612abd6022913960400191505060405180910390fd5b6001600160a01b0384166000908152600f8301602052604081205460ff16600281111561132157fe5b14611373576040805162461bcd60e51b815260206004820152601860248201527f6d656d6265722068617320616c726561647920766f7465640000000000000000604482015290519081900360640190fd5b600181600281111561138157fe5b14806113985750600281600281111561139657fe5b145b6113e9576040805162461bcd60e51b815260206004820152601d60248201527f766f7465206d7573742062652065697468657220596573206f72204e6f000000604482015290519081900360640190fd5b6001600160a01b0384166000908152600f830160205260409020805482919060ff1916600183600281111561141a57fe5b0217905550600181600281111561142d57fe5b141561146a576001830154600a83015461144c9163ffffffff61225c16565b600a830155600383015486111561146557600383018690555b61149d565b600281600281111561147857fe5b141561149d576001830154600b8301546114979163ffffffff61225c16565b600b8301555b6040805160ff8716815290516001600160a01b03861691339189917f29bf0061f2faa9daa482f061b116195432d435536d8af4ae6b3c5dd78223679b919081900360200190a450506000805460ff1916600117905550505050565b601154600090821061154b576040805162461bcd60e51b81526020600482015260176024820152761c1c9bdc1bdcd85b08191bd95cc81b9bdd08195e1a5cdd604a1b604482015290519081900360640190fd5b601060006011848154811061155c57fe5b90600052602060002001548152602001908152602001600020600c0160016006811061158457fe5b602081049091015460ff601f9092166101000a9004169050919050565b6008546001600160a01b031681565b600c5481565b6115be612780565b600082815260106020526040808220815160c081019283905292600c909101916006918390855b825461010083900a900460ff1615158152602060019283018181049485019490930390920291018084116115e5575094979650505050505050565b60015481565b60095490565b6007546001600160a01b031681565b60095481565b60005461010090046001600160a01b031681565b60125490565b60005460ff166116a0576040805162461bcd60e51b815260206004820152601f602482015260008051602061298c833981519152604482015290519081900360640190fd5b6000805460ff19168155818152601060205260409020600c81015460ff16156116fa5760405162461bcd60e51b8152600401808060200182810382526023815260200180612a6a6023913960400191505060405180910390fd5b600c8101546301000000900460ff16156117455760405162461bcd60e51b8152600401808060200182810382526023815260200180612adf6023913960400191505060405180910390fd5b60018101546001600160a01b031633146117a6576040805162461bcd60e51b815260206004820152601e60248201527f736f6c656c79207468652070726f706f7365722063616e2063616e63656c0000604482015290519081900360640190fd5b600c8101805463ff000000191663010000001790556006810154600182015460058301546040805163a9059cbb60e01b81526001600160a01b039384166004820152602481019290925251919092169163a9059cbb9160448083019260209291908290030181600087803b15801561181d57600080fd5b505af1158015611831573d6000803e3d6000fd5b505050506040513d602081101561184757600080fd5b50516118845760405162461bcd60e51b81526004018080602001828103825260248152602001806129f96024913960400191505060405180910390fd5b60408051338152905183917fc215fed6680bb02d323dc3f8b8f85241572607538426059c9232601bd293c3be919081900360200190a250506000805460ff19166001179055565b60005460ff16611910576040805162461bcd60e51b815260206004820152601f602482015260008051602061298c833981519152604482015290519081900360640190fd5b6000805460ff191690556119238161228c565b60006011828154811061193257fe5b600091825260208083209190910154808352601090915260408220600c8101805461ff001916610100179055909250908061196c8561259d565b91509150670de0b6b3a76400006119928460030154600a5461225c90919063ffffffff16565b111561199d57600091505b8115611b74576001601255600c8301805462ff000019166201000017905582546001600160a01b03166000908152600e602052604090206002015460ff1615611a3357600383015483546001600160a01b03166000908152600e6020526040902060010154611a119163ffffffff61225c16565b83546001600160a01b03166000908152600e6020526040902060010155611b55565b82546001600160a01b039081166000908152600f60209081526040808320549093168252600e9052206002015460ff1615611ab75782546001600160a01b039081166000908152600f602090815260408083205490931680835283832080546001600160a01b03199081168317909155600e90925292909120805490911690911790555b6040805160808101825284546001600160a01b0390811680835260038088015460208086019182526001868801818152600060608901818152968152600e8452898120985189549089166001600160a01b0319918216178a559451928901929092555160028801805491151560ff19909216919091179055935195909201949094558754909216808252600f90925292909220805490911690911790555b6003830154600a54611b6c9163ffffffff61225c16565b600a55611b7a565b60026012555b6040805183151581529051859187917f86f74240ecee9e4230d26ff92e17fee978460d9c0f78f5c88b2864c9e7a494279181900360200190a350506000805460ff19166001179055505050565b60005460ff16611c0c576040805162461bcd60e51b815260206004820152601f602482015260008051602061298c833981519152604482015290519081900360640190fd5b6000805460ff19168155338152600e6020526040902060010154611c66576040805162461bcd60e51b815260206004820152600c60248201526b3737ba10309036b2b6b132b960a11b604482015290519081900360640190fd5b60005b8151811015611cf9578015611cf157816001820381518110611c8757fe5b60200260200101516001600160a01b0316828281518110611ca457fe5b60200260200101516001600160a01b031611611cf15760405162461bcd60e51b8152600401808060200182810382526030815260200180612a8d6030913960400191505060405180910390fd5b600101611c69565b50611d0633848484611d4f565b50506000805460ff1916600117905550565b600082821115611d2757600080fd5b50900390565b6000808211611d3b57600080fd5b6000828481611d4657fe5b04949350505050565b600a54600090611d65908263ffffffff61225c16565b6001600160a01b0386166000908152600e60205260409020600181015491925090851115611dd0576040805162461bcd60e51b8152602060048201526013602482015272696e73756666696369656e742073686172657360681b604482015290519081900360640190fd5b611ddd81600301546114f8565b611e185760405162461bcd60e51b815260040180806020018281038252604d8152602001806129ac604d913960600191505060405180910390fd5b6001810154611e2d908663ffffffff611d1816565b6001820155600a54611e45908663ffffffff611d1816565b600a5560085460405163732c8f5760e01b81526001600160a01b03888116600483019081526024830189905260448301869052608060648401908152875160848501528751929094169363732c8f57938b938b9389938b939192909160a401906020808601910280838360005b83811015611eca578181015183820152602001611eb2565b5050505090500195505050505050602060405180830381600087803b158015611ef257600080fd5b505af1158015611f06573d6000803e3d6000fd5b505050506040513d6020811015611f1c57600080fd5b5051611f595760405162461bcd60e51b815260040180806020018281038252602a815260200180612a40602a913960400191505060405180910390fd5b6040805186815260208101869052815133927fcad1a1c68982832d9abc314de8a1e5d5e8c81b0588961e360766736d10c3be1a928290030190a2505050505050565b611fa361279e565b604051806101e001604052808b6001600160a01b03168152602001336001600160a01b0316815260200160006001600160a01b031681526020018a8152602001898152602001888152602001876001600160a01b03168152602001868152602001856001600160a01b03168152602001600081526020016000815260200160008152602001838152602001848152602001600081525090508060106000600954815260200190815260200160002060008201518160000160006101000a8154816001600160a01b0302191690836001600160a01b0316021790555060208201518160010160006101000a8154816001600160a01b0302191690836001600160a01b0316021790555060408201518160020160006101000a8154816001600160a01b0302191690836001600160a01b03160217905550606082015181600301556080820151816004015560a0820151816005015560c08201518160060160006101000a8154816001600160a01b0302191690836001600160a01b0316021790555060e082015181600701556101008201518160080160006101000a8154816001600160a01b0302191690836001600160a01b03160217905550610120820151816009015561014082015181600a015561016082015181600b015561018082015181600c01906006612194929190612847565b506101a082015180516121b191600d8401916020909101906128d9565b506101c09190910151600e90910155336000818152600f60209081526040918290205460095483519081529182018d90528183018c9052606082018b90526001600160a01b038a8116608084015260a083018a905288811660c0840152925190831693928e1692849290917f1facc413faf060d5cc5c8bc12d8fe29e5c530eb98e2475c76733ec749787a7509181900360e00190a45050600980546001019055505050505050505050565b60008282018381101561226e57600080fd5b9392505050565b600081831015612285578161226e565b5090919050565b60115481106122dc576040805162461bcd60e51b81526020600482015260176024820152761c1c9bdc1bdcd85b08191bd95cc81b9bdd08195e1a5cdd604a1b604482015290519081900360640190fd5b6122e461279e565b60106000601184815481106122f557fe5b6000918252602080832091909101548352828101939093526040918201812082516101e08101845281546001600160a01b039081168252600183015481169582019590955260028201548516818501526003820154606082015260048201546080820152600582015460a0820152600680830154861660c080840191909152600784015460e084015260088401549096166101008301526009830154610120830152600a830154610140830152600b83015461016083015284519586019485905290949193610180860193600c86019291908390855b825461010083900a900460ff1615158152602060019283018181049485019490930390920291018084116123cb57505050928452505050600d8201805460408051602060026001851615610100026000190190941693909304601f810184900484028201840190925281815293820193929183018282801561248e5780601f106124635761010080835404028352916020019161248e565b820191906000526020600020905b81548152906001019060200180831161247157829003601f168201915b50505050508152602001600e8201548152505090508061018001516001600681106124b557fe5b6020020151156124f65760405162461bcd60e51b8152600401808060200182810382526023815260200180612b026023913960400191505060405180910390fd5b81158061255e575060106000601161251585600163ffffffff611d1816565b8154811061251f57fe5b90600052602060002001548152602001908152602001600020600c0160016006811061254757fe5b602081049091015460ff601f9092166101000a9004165b6125995760405162461bcd60e51b8152600401808060200182810382526023815260200180612a1d6023913960400191505060405180910390fd5b5050565b6000806125a861279e565b60106000601186815481106125b957fe5b6000918252602080832091909101548352828101939093526040918201812082516101e08101845281546001600160a01b039081168252600183015481169582019590955260028201548516818501526003820154606082015260048201546080820152600582015460a0820152600680830154861660c080840191909152600784015460e084015260088401549096166101008301526009830154610120830152600a830154610140830152600b83015461016083015284519586019485905290949193610180860193600c86019291908390855b825461010083900a900460ff16151581526020600192830181810494850194909303909202910180841161268f57505050928452505050600d8201805460408051602060026001851615610100026000190190941693909304601f81018490048402820184019092528181529382019392918301828280156127525780601f1061272757610100808354040283529160200191612752565b820191906000526020600020905b81548152906001019060200180831161273557829003601f168201915b5050509183525050600e91909101546020909101526101608101516101409091015111946000945092505050565b6040518060c001604052806006906020820280388339509192915050565b60405180610280016040528060006001600160a01b0316815260200160006001600160a01b0316815260200160006001600160a01b0316815260200160008152602001600081526020016000815260200160006001600160a01b031681526020016000815260200160006001600160a01b03168152602001600081526020016000815260200160008152602001612833612780565b815260200160608152602001600081525090565b6001830191839082156128c95791602002820160005b8382111561289a57835183826101000a81548160ff021916908315150217905550926020019260010160208160000104928301926001030261285d565b80156128c75782816101000a81549060ff021916905560010160208160000104928301926001030261289a565b505b506128d5929150612953565b5090565b828054600181600116156101000203166002900490600052602060002090601f016020900481019282601f1061291a57805160ff1916838001178555612947565b82800160010185558215612947579182015b8281111561294757825182559160200191906001019061292c565b506128d5929150612971565b610a8391905b808211156128d557805460ff19168155600101612959565b610a8391905b808211156128d5576000815560010161297756fe5265656e7472616e637947756172643a207265656e7472616e742063616c6c0063616e6e6f7420726167657175697420756e74696c206869676865737420696e6465782070726f706f73616c206d656d62657220766f74656420594553206f6e2069732070726f6365737365646661696c656420746f2072657475726e207472696275746520746f2070726f706f73657270726576696f75732070726f706f73616c206d7573742062652070726f6365737365647769746864726177616c206f6620746f6b656e732066726f6d206775696c6442616e6b206661696c656470726f706f73616c2068617320616c7265616479206265656e2073706f6e736f726564746f6b656e206c697374206d75737420626520756e6971756520616e6420696e20617363656e64696e67206f7264657270726f706f73616c20766f74696e6720706572696f6420686173206578706972656470726f706f73616c2068617320616c7265616479206265656e2063616e63656c6c656470726f706f73616c2068617320616c7265616479206265656e2070726f636573736564a265627a7a72305820ffa2b7b09108c0ac06fc33e0ae4aec417565e7d3add4b822bd5cf908cea7f29864736f6c63430005090032608060405234801561001057600080fd5b50600080546001600160a01b031916331790556104e6806100326000396000f3fe608060405234801561001057600080fd5b50600436106100415760003560e01c806301e3366714610046578063732c8f57146100905780638da5cb5b1461014f575b600080fd5b61007c6004803603606081101561005c57600080fd5b506001600160a01b03813581169160208101359091169060400135610173565b604080519115158252519081900360200190f35b61007c600480360360808110156100a657600080fd5b6001600160a01b0382351691602081013591604082013591908101906080810160608201356401000000008111156100dd57600080fd5b8201836020820111156100ef57600080fd5b8035906020019184602083028401116401000000008311171561011157600080fd5b91908080602002602001604051908101604052809392919081815260200183836020028082843760009201919091525092955061026c945050505050565b61015761044e565b604080516001600160a01b039092168252519081900360200190f35b600080546001600160a01b0316331461018b57600080fd5b836001600160a01b0316836001600160a01b03167f2717ead6b9200dd235aad468c9809ea400fe33ac69b5bfaa6d3e90fc922b6398846040518082815260200191505060405180910390a3836001600160a01b031663a9059cbb84846040518363ffffffff1660e01b815260040180836001600160a01b03166001600160a01b0316815260200182815260200192505050602060405180830381600087803b15801561023657600080fd5b505af115801561024a573d6000803e3d6000fd5b505050506040513d602081101561026057600080fd5b505190505b9392505050565b600080546001600160a01b0316331461028457600080fd5b60005b82518110156104425760006103318483815181106102a157fe5b60200260200101516001600160a01b03166370a08231306040518263ffffffff1660e01b815260040180826001600160a01b03166001600160a01b0316815260200191505060206040518083038186803b1580156102fe57600080fd5b505afa158015610312573d6000803e3d6000fd5b505050506040513d602081101561032857600080fd5b5051878761045d565b905083828151811061033f57fe5b60200260200101516001600160a01b0316876001600160a01b03167f2717ead6b9200dd235aad468c9809ea400fe33ac69b5bfaa6d3e90fc922b6398836040518082815260200191505060405180910390a383828151811061039d57fe5b60200260200101516001600160a01b031663a9059cbb88836040518363ffffffff1660e01b815260040180836001600160a01b03166001600160a01b0316815260200182815260200192505050602060405180830381600087803b15801561040457600080fd5b505af1158015610418573d6000803e3d6000fd5b505050506040513d602081101561042e57600080fd5b505161043957600080fd5b50600101610287565b50600195945050505050565b6000546001600160a01b031681565b60008161046957600080fd5b8361047657506000610265565b8383028385828161048357fe5b04141561049c5782818161049357fe5b04915050610265565b838386816104a657fe5b04029594505050505056fea265627a7a72305820600a90e68081feae486f77ec58352ebe4f959e2362fac128a8d418122da6121464736f6c634300050900325f766f74696e67506572696f644c656e6774682065786365656473206c696d69745f656d657267656e637950726f63657373696e67576169742063616e6e6f742062652030a265627a7a72305820bac60b4c0cd8fd78479456a8f4d0d8f3a0296d9a186c62ffab79e7095a92592a64736f6c63430005090032",
  "source": "pragma solidity >=0.5.0 < 0.6.0;\r\n\r\nimport \"./Moloch.sol\";\r\n\r\ncontract MolochSummoner {\r\n\r\n    Moloch private M;\r\n\r\n    address[] public Molochs;\r\n\r\n    event Summoned(address indexed M, address indexed _summoner);\r\n\r\n    function summonMoloch(\r\n        address _summoner,\r\n        address[1] memory _approvedTokens,\r\n        uint256 _periodDuration,\r\n        uint256 _votingPeriodLength,\r\n        uint256 _gracePeriodLength,\r\n        uint256 _emergencyProcessingWait,\r\n        uint256 _bailoutWait,\r\n        uint256 _proposalDeposit,\r\n        uint256 _dilutionBound,\r\n        uint256 _processingReward\r\n        ) public {\r\n\r\n        M = new Moloch(\r\n            _summoner,\r\n            _approvedTokens,\r\n            _periodDuration,\r\n            _votingPeriodLength,\r\n            _gracePeriodLength,\r\n            _emergencyProcessingWait,\r\n            _bailoutWait,\r\n            _proposalDeposit,\r\n            _dilutionBound,\r\n            _processingReward\r\n            );\r\n\r\n        Molochs.push(address(M));\r\n\r\n        emit Summoned(address(M), _summoner);\r\n\r\n    }\r\n\r\n    function getMolochCount() public view returns (uint256 MolochCount) {\r\n        return Molochs.length;\r\n    }\r\n}\r\n",
  "sourcePath": "C:\\Users\\abhinavanshul\\contracts\\truffle-contracts\\contracts\\dao\\MolochSummoner.sol",
  "compiler": {
    "name": "solc",
    "version": "0.5.9+commit.e560f70d.Emscripten.clang"
  },
  "schemaVersion": "3.0.23",
  "updatedAt": "2020-05-25T13:31:50.074Z",
  "devdoc": {
    "methods": {}
  },
  "userdoc": {
    "methods": {}
  }
}