{
  "contractName": "Submitter",
  "abi": [
    {
      "constant": true,
      "inputs": [],
      "name": "moloch",
      "outputs": [
        {
          "name": "",
          "type": "address"
        }
      ],
      "payable": false,
      "stateMutability": "view",
      "type": "function"
    },
    {
      "inputs": [
        {
          "name": "molochAddress",
          "type": "address"
        }
      ],
      "payable": false,
      "stateMutability": "nonpayable",
      "type": "constructor"
    },
    {
      "anonymous": false,
      "inputs": [
        {
          "indexed": false,
          "name": "proposalId",
          "type": "uint256"
        }
      ],
      "name": "Submit",
      "type": "event"
    },
    {
      "constant": false,
      "inputs": [
        {
          "name": "applicant",
          "type": "address"
        },
        {
          "name": "sharesRequested",
          "type": "uint256"
        },
        {
          "name": "lootRequested",
          "type": "uint256"
        },
        {
          "name": "tributeOffered",
          "type": "uint256"
        },
        {
          "name": "tributeToken",
          "type": "address"
        },
        {
          "name": "paymentRequested",
          "type": "uint256"
        },
        {
          "name": "paymentToken",
          "type": "address"
        },
        {
          "name": "details",
          "type": "string"
        }
      ],
      "name": "submitProposal",
      "outputs": [],
      "payable": false,
      "stateMutability": "nonpayable",
      "type": "function"
    }
  ],
  "bytecode": "0x608060405234801561001057600080fd5b506040516103843803806103848339818101604052602081101561003357600080fd5b5051600080546001600160a01b039092166001600160a01b031990921691909117905561031f806100656000396000f3fe608060405234801561001057600080fd5b50600436106100365760003560e01c8063590f940b1461003b578063623d9ac91461011d575b600080fd5b61011b600480360361010081101561005257600080fd5b6001600160a01b038235811692602081013592604082013592606083013592608081013582169260a08201359260c0830135169190810190610100810160e08201356401000000008111156100a657600080fd5b8201836020820111156100b857600080fd5b803590602001918460018302840111640100000000831117156100da57600080fd5b91908080601f016020809104026020016040519081016040528093929190818152602001838380828437600092019190915250929550610141945050505050565b005b6101256102db565b604080516001600160a01b039092168252519081900360200190f35b60008060009054906101000a90046001600160a01b03166001600160a01b031663590f940b8a8a8a8a8a8a8a8a6040518963ffffffff1660e01b815260040180896001600160a01b03166001600160a01b03168152602001888152602001878152602001868152602001856001600160a01b03166001600160a01b03168152602001848152602001836001600160a01b03166001600160a01b0316815260200180602001828103825283818151815260200191508051906020019080838360005b8381101561021a578181015183820152602001610202565b50505050905090810190601f1680156102475780820380516001836020036101000a031916815260200191505b509950505050505050505050602060405180830381600087803b15801561026d57600080fd5b505af1158015610281573d6000803e3d6000fd5b505050506040513d602081101561029757600080fd5b50516040805182815290519192507f08324b3d745b914e3abd4ffbfead91e3b78391a98c173202129215ab933adfbe919081900360200190a1505050505050505050565b6000546001600160a01b03168156fea265627a7a723058202e11ecbb3ce8c19d008ca616d8c38560668e81d3a1f73caba9b39e100af2046b64736f6c63430005090032",
  "source": "// helper for testing moloch.submitProposal return value\r\n\r\npragma solidity >=0.5.0 < 0.6.0;\r\n\r\nimport \"../Moloch.sol\";\r\n\r\ncontract Submitter {\r\n\r\n  event Submit(uint256 proposalId);\r\n\r\n  Moloch public moloch; // moloch contract reference\r\n\r\n  constructor(address molochAddress) public {\r\n    moloch = Moloch(molochAddress);\r\n  }\r\n\r\n  function submitProposal(\r\n    address applicant,\r\n    uint256 sharesRequested,\r\n    uint256 lootRequested,\r\n    uint256 tributeOffered,\r\n    address tributeToken,\r\n    uint256 paymentRequested,\r\n    address paymentToken,\r\n    string memory details\r\n  ) public {\r\n    uint256 proposalId = moloch.submitProposal(\r\n      applicant,\r\n      sharesRequested,\r\n      lootRequested,\r\n      tributeOffered,\r\n      tributeToken,\r\n      paymentRequested,\r\n      paymentToken,\r\n      details\r\n    );\r\n\r\n    emit Submit(proposalId);\r\n  }\r\n\r\n  // function submitWhitelistProposal(\r\n  //   address tokenToWhitelist,\r\n  //   string memory details\r\n  // ) public {\r\n  //   uint256 proposalId = moloch.submitWhitelistProposal(\r\n  //     tokenToWhitelist,\r\n  //     details\r\n  //   );\r\n\r\n  //   emit Submit(proposalId);\r\n  // }\r\n\r\n  // function submitGuildKickProposal(\r\n  //   address memberToKick,\r\n  //   string memory details\r\n  // ) public {\r\n  //   uint256 proposalId = moloch.submitGuildKickProposal(\r\n  //     memberToKick,\r\n  //     details\r\n  //   );\r\n\r\n  //   emit Submit(proposalId);\r\n  // }\r\n}\r\n",
  "sourcePath": "C:\\Users\\abhinavanshul\\contracts\\truffle-contracts\\contracts\\dao\\test-helpers\\Submitter.sol",
  "compiler": {
    "name": "solc",
    "version": "0.5.9+commit.e560f70d.Emscripten.clang"
  },
  "schemaVersion": "3.0.23",
  "updatedAt": "2020-05-25T13:31:50.142Z",
  "devdoc": {
    "methods": {}
  },
  "userdoc": {
    "methods": {}
  }
}